:020000040800F2
:1000000000F00020A56100086D0D00086F0D0008CC
:10001000730D0008770D00087B0D0008000000003C
:100020000000000000000000000000007F0D00083C
:10003000810D000800000000830D0008850D0008F8
:10004000BF610008BF610008BF610008BF61000810
:10005000BF610008BF610008BF610008BF61000800
:10006000BF610008BF610008BF610008BF610008F0
:10007000BF610008BF610008BF610008BF610008E0
:10008000BF610008BF610008BF610008BF610008D0
:10009000BF610008BF610008BF610008BF610008C0
:1000A000BF610008BF610008BF610008BF610008B0
:1000B0003D0D0008B55D0008BF610008BF61000884
:1000C000BF610008BF610008BF610008BF61000890
:1000D000BF6100081B610008BF610008BF61000824
:1000E000BF610008BF610008BF610008BF61000870
:1000F000BF610008BF610008BF610008BF61000860
:10010000BF610008BF610008BF610008BF6100084F
:10011000BF610008BF610008BF610008BF6100083F
:10012000BF610008BF610008BF610008BF6100082F
:10013000BF610008BF610008BF610008BF6100081F
:10014000BF610008BF610008BF610008BF6100080F
:10015000BF610008BF610008BF610008BF610008FF
:10016000BF610008BF610008BF610008BF610008EF
:10017000BF610008BF610008BF610008BF610008DF
:10018000BF610008BF61000800F002F800F041F80C
:100190000AA090E8000C82448344AAF10107DA45E2
:1001A00001D100F036F8AFF2090EBAE80F0013F0F3
:1001B000010F18BFFB1A43F001031847D83701009D
:1001C000F8370100103A24BF78C878C1FAD852072E
:1001D00024BF30C830C144BF04680C6070470000C1
:1001E0000023002400250026103A28BF78C1FBD840
:1001F000520728BF30C148BF0B607047782909F00B
:100200009B81002070471FB509F0BCFB1FBD10B5D6
:1002100010BD09F049FA1146FFF7F5FF00F04DF85F
:1002200009F067FA03B4FFF7F2FF03BC05F016FF0D
:1002300000B58FB00121880506F04CFEFB4808F0A0
:100240004BFA00200090FA480190FA4802900020F2
:10025000039001200490002005904FF480600690E8
:1002600040000790800008904011099040020A90D9
:1002700000200B9001200C9000200D900E906946FC
:10028000EA4808F0CBFA0121E84808F001FB012216
:100290001021E64808F089FB0121E5484C3808F0B8
:1002A00025F90121E2484C3808F015F90122102106
:1002B000DE4808F07AFB0FB000BD8CB000BF4FF4F1
:1002C000A06005F08FFFA82005F046FE4FF4E13056
:1002D00005F0D1FE00F060FE05F0BEFC01F03CFD33
:1002E00005F0E8FD05F022FE05F07AFDFFF7A0FF1E
:1002F0004FF47840D04908800120059054E00598DB
:10030000292816DA00201021CDE90010059800EB0D
:100310008000400004900598401E00EB800080049F
:10032000000C0523039001465220049A05F0F3FBCC
:1003300036E00598282819DD0598512816DA00209E
:100340001021CDE90010059800EB800040000490DA
:100350000598293800EB80008004000C05230390E9
:100360000146E820049A05F0D6FB19E005985028CC
:1003700016DD00201021CDE90010059800EB80006B
:10038000400004900598513800EB80008004000C78
:100390000523039001464FF4BF70049A05F0BBFBA0
:1003A0000598401C80B2059005986528A7DB1F20A2
:1003B000A14908800121880707F040FAF8E30020EE
:1003C000049005F067FC06900698D8B306980228BA
:1003D0001CD0042835D1994800780E2803DD072069
:1003E0009649087004E095480078401C93490870CD
:1003F000002010210523CDE90010904802784FF429
:10040000E1714FF4BF7005F086FB1AE08B4800786D
:10041000082803DA0F208949087004E0874800782B
:10042000401E86490870002010210523CDE90010E8
:10043000824802784FF4E1714FF4BF7005F06BFB16
:1004400000BF00BF7E48007801282DD100207C49E4
:1004500008707C480068B0F5805F26D274484C383C
:1004600007F0F5FF7849714808F0E6FA714800880E
:1004700000EE100AB8EE400A72480068734901EBBA
:10048000C00080ED000A9FED720A6E4800680121ED
:1004900001EB40006D4901EB800080ED000A6948E6
:1004A0000068401C67490860F3E300214FF080407A
:1004B00007F0C4F9002063490860012300221903F2
:1004C00007A808F0A5FE614907A808F083FE4FF4CD
:1004D000805260495D4808F0D3FA5E4890ED000A0A
:1004E000F0EE000A80EE201A80ED001A53480078E2
:1004F000C01F092875D2DFE800F00575FDFCFBFA86
:10050000F9F8F7000120049068E0049829281DDA22
:1005100000201021CDE90010049800F52F704D49FE
:1005200001EB800090ED000ABCEEC00A8DED030ADD
:100530000498401E00EB80008004000C0923029008
:1005400001460020039A05F0E6FA44E004982828C2
:1005500020DD049851281DDA00201021CDE900107B
:10056000049800F52F703B4901EB800090ED000AE4
:10057000BCEEC00A8DED030A0498293800EB800018
:100580008004000C0923029001469620039A05F08E
:10059000C2FA20E0049850281DDD00201021CDE98A
:1005A0000010049800F52F702A4901EB800090EDAF
:1005B000000ABCEEC00A8DED030A0498513800EB26
:1005C00080008004000C0923029001464FF49670CD
:1005D000039A05F0A0FA0498401C0490049865283A
:1005E00093DBA3E30120049086E00498292833DA02
:1005F00000201021CDE90010049800F5487015493D
:1006000001EB800090ED000ABCEEC00A8DED030AFC
:100610000498401E00EB80008004000C0923029027
:1006200001460020039A05F076FA5AE01064024071
:100630004C20014044000020200000200800002041
:10064000000000200400002020800010442800202A
:100650000000000044A800200498282820DD049809
:1006600051281DDA00201021CDE90010049800F572
:100670004870FE4901EB800090ED000ABCEEC00A14
:100680008DED030A0498293800EB80008004000CEB
:100690000923029001469620039A05F03CFA20E0D7
:1006A000049850281DDD00201021CDE90010049889
:1006B00000F54870ED4901EB800090ED000ABCEEBA
:1006C000C00A8DED030A0498513800EB80008004C5
:1006D000000C0923029001464FF49670039A05F02E
:1006E0001AFA0498401C06E0AFE23DE2CCE158E182
:1006F000E7E076E005E0049004986528FFF675AF22
:1007000014E30120049068E0049829281DDA0020F1
:100710001021CDE90010049800F56170D34901EB78
:10072000800090ED000ABCEEC00A8DED030A04982B
:10073000401E00EB80008004000C0923029001465B
:100740000020039A05F0E7F944E00498282820DD0A
:10075000049851281DDA00201021CDE900100498DA
:1007600000F56170C14901EB800090ED000ABCEE1C
:10077000C00A8DED030A0498293800EB800080043C
:10078000000C0923029001469620039A05F0C3F954
:1007900020E0049850281DDD00201021CDE9001034
:1007A000049800F56170B14901EB800090ED000AFA
:1007B000BCEEC00A8DED030A0498513800EB8000AE
:1007C0008004000C0923029001464FF49670039AAE
:1007D00005F0A1F90498401C04900498652893DB67
:1007E000A4E20120049068E0049829281DDA002082
:1007F0001021CDE90010049800F57A709B4901EBB7
:10080000800090ED000ABCEEC00A8DED030A04984A
:10081000401E00EB80008004000C0923029001467A
:100820000020039A05F077F944E00498282820DD99
:10083000049851281DDA00201021CDE900100498F9
:1008400000F57A70894901EB800090ED000ABCEE5A
:10085000C00A8DED030A0498293800EB800080045B
:10086000000C0923029001469620039A05F053F9E3
:1008700020E0049850281DDD00201021CDE9001053
:10088000049800F57A70794901EB800090ED000A38
:10089000BCEEC00A8DED030A0498513800EB8000CD
:1008A0008004000C0923029001464FF49670039ACD
:1008B00005F031F90498401C04900498652893DBF6
:1008C00034E20120049068E0049829281DDA002011
:1008D0001021CDE90010049800F24C40634901EB6F
:1008E000800090ED000ABCEEC00A8DED030A04986A
:1008F000401E00EB80008004000C0923029001469A
:100900000020039A05F007F944E00498282820DD28
:10091000049851281DDA00201021CDE90010049818
:1009200000F24C40514901EB800090ED000ABCEE12
:10093000C00A8DED030A0498293800EB800080047A
:10094000000C0923029001469620039A05F0E3F873
:1009500020E0049850281DDD00201021CDE9001072
:10096000049800F24C40414901EB800090ED000AF0
:10097000BCEEC00A8DED030A0498513800EB8000EC
:100980008004000C0923029001464FF49670039AEC
:1009900005F0C1F80498401C04900498652893DB86
:1009A000C4E1012004906BE0049829281DDA00209E
:1009B0001021CDE90010049800F596602B4901EB59
:1009C000800090ED000ABCEEC00A8DED030A049889
:1009D000401E00EB80008004000C092302900146B9
:1009E0000020039A05F097F847E00498282820DDB6
:1009F000049851281DDA00201021CDE90010049838
:100A000000F59660194901EB800090ED000ABCEEFC
:100A1000C00A8DED030A0498293800EB8000800499
:100A2000000C0923029001469620039A05F073F802
:100A300023E00498502820DD00201021CDE900108B
:100A4000049800F59660094901EB800090ED000ADA
:100A5000BCEEC00A8DED030A0498513800EB80000B
:100A60008004000C09230290014601E044A8002004
:100A70004FF49670039A05F04EF80498401C0490C9
:100A80000498652890DB51E10120049068E0049807
:100A900029281DDA00201021CDE90010049800F269
:100AA0001450AF4901EB800090ED000ABCEEC00A83
:100AB0008DED030A0498401E00EB80008004000CBA
:100AC0000923029001460020039A05F024F844E02F
:100AD0000498282820DD049851281DDA00201021D0
:100AE000CDE90010049800F214509D4901EB8000FC
:100AF00090ED000ABCEEC00A8DED030A0498293877
:100B000000EB80008004000C09230290014696202F
:100B1000039A05F000F820E0049850281DDD00201D
:100B20001021CDE90010049800F214508C4901EB1B
:100B3000800090ED000ABCEEC00A8DED030A049817
:100B4000513800EB80008004000C0923029001461C
:100B50004FF49670039A04F0DEFF0498401C049052
:100B60000498652893DBE1E00120049069E0049893
:100B700029281EDA00201021CDE90010049800F584
:100B8000AF60774901EB800090ED000ABCEEC00A2F
:100B90008DED030A0498401E00EB80008004000CD9
:100BA0000923029001460020039A04F0B4FF45E0B7
:100BB000C2E00498282820DD049851281DDA00207E
:100BC0001021CDE90010049800F5AF60644901EBF5
:100BD000800090ED000ABCEEC00A8DED030A049877
:100BE000293800EB80008004000C092302900146A4
:100BF0009620039A04F08FFF20E0049850281DDD12
:100C000000201021CDE90010049800F5AF60544990
:100C100001EB800090ED000ABCEEC00A8DED030AE6
:100C20000498513800EB80008004000C09230290E6
:100C300001464FF49670039A04F06DFF0498401C2F
:100C400004900498652892DB70E00120049069E02C
:100C5000049829281EDA00201021CDE900100498FC
:100C600000F2DC503E4901EB800090ED000ABCEE42
:100C7000C00A8DED030A0498401E00EB800080043A
:100C8000000C0923029001460020039A04F043FF60
:100C900045E050E00498282820DD049851281DDA0A
:100CA00000201021CDE90010049800F2DC502C49FE
:100CB00001EB800090ED000ABCEEC00A8DED030A46
:100CC0000498293800EB80008004000C092302906E
:100CD00001469620039A04F01EFF20E00498502855
:100CE0001DDD00201021CDE90010049800F2DC5039
:100CF0001B4901EB800090ED000ABCEEC00A8DEDAF
:100D0000030A0498513800EB80008004000C09238A
:100D1000029001464FF49670039A04F0FCFE04988A
:100D2000401C04900498652892DB00BF00BF01219D
:100D3000880706F083FD00BFFFF741BB10B5012116
:100D4000880707F0AAF9012809D10649087041026D
:100D5000054805F0C4FB0121880707F0AFF910BD75
:100D600044A800200000002000140240704700BF8B
:100D7000FEE700BFFEE700BFFEE700BFFEE77047EB
:100D800070477047704700000CB50020019000903C
:100D90007648006840F480307449086000BF7348AA
:100DA000006800F4003000900198401C0190009809
:100DB00018B90198B0F5A04FF1D16C48006800F463
:100DC000003010B10120009001E000200090009858
:100DD000012846D165484030006840F080506349A2
:100DE000403108606248006840F440406049086053
:100DF0005E48083000685D490831086008460068B0
:100E000040F4004008600846006840F4A0500860C4
:100E10005848091F0860081F006840F08070091FCB
:100E2000086000BF5148006800F000700028F9D049
:100E300040F20570504908604C480830006820F0C6
:100E400003004A49083108600846006840F0020083
:100E5000086000BF45480830006800F00C00082812
:100E6000F8D10CBD10B54548006840F47000434906
:100E700008603E48006840F001003C4908600020DE
:100E80003A4908310860394800683D490840374907
:100E900008603C48091D0860081F006820F4802095
:100EA000091F0860002031490C310860FFF76CFF12
:100EB0004FF0006031498039086010BD70B50020E6
:100EC0000022022300240221284D08352D6805F058
:100ED0000C0020B1042806D0082834D107E02A4DA0
:100EE0002A4E356033E02A4D284E35602FE01F4DE5
:100EF0002D1D2D68C5F380541C4D2D1D2D6805F04A
:100F00003F0154B1224DB5FBF1F5184E361D366840
:100F1000C6F3881605FB06F209E01B4DB5FBF1F59B
:100F2000124E361D3668C6F3881605FB06F20F4DC5
:100F30002D1D2D68C5F301456D1C6B00B2FBF3F54B
:100F4000124E356003E0104D104E356000BF00BFFB
:100F5000064D08352D68C5F303150E4E705D0B4D1B
:100F60002D68C540094E356070BD00000038024054
:100F70000070004008544007003C024088ED00E04B
:100F8000FFFFF6FE103000240024F4000C000020C7
:100F900000127A00100000201CB50121202005F06D
:100FA00099FF4FF4C060009001208DF804000020EC
:100FB0008DF8060003208DF8050001208DF807004C
:100FC0006946044805F004FA4FF4C061014805F091
:100FD0007BFA1CBD0014024001B5BDF80000009072
:100FE000BDF80000F849088008BD01B5BDF8000053
:100FF0000090BDF80000F449891C088008BD08B5C0
:10100000F148801C00880090BDF8000008BDEE4A41
:1010100010804FF0D842A2F88010704710B50446F7
:101020002046FFF7D9FF052004F0B0FFFFF7E7FFE8
:1010300010BDE6480089E44908807047E249891CF0
:101040000880704730B5014601F01F04C1F3451315
:10105000CA0AE50205EB43151544A8B230BD00BF2E
:101060000100A0F10102D0B2FAD1704730B50446B8
:101070000D46D648808849F24131884205D0D34890
:10108000808845F21031884214D1D0494889FFF751
:10109000A3FF2012FFF7A9FFE0B2FFF7A6FFCB499D
:1010A0008889FFF799FF2812FFF79FFFE8B2FFF743
:1010B0009CFFABE0C548808846F6040188421DD1FC
:1010C000C2488079012804D1C0480088401E001B16
:1010D00084B2BE494889FFF77FFF2012FFF785FFE2
:1010E000E0B2FFF782FFB9498889FFF775FF281240
:1010F000FFF77BFFE8B2FFF778FF87E0B34880880F
:1011000041F66311884247D1B0488079A8B9AF4809
:101110000088401E001B84B2AC494889FFF75CFF81
:101120000020FFF762FF0020FFF75FFF2012FFF7AC
:101130005CFFE0B2FFF759FF16E0A4494889FFF7CA
:101140004BFF2012FFF751FFE0B2FFF74EFF9F4920
:101150000988491EC1F30F20FFF747FF9B49097813
:10116000491EC8B2FFF741FF98498889FFF734FF4D
:101170002812FFF73AFFE8B2FFF737FF9349498893
:10118000491EC1F30F20FFF730FF90498978491EAF
:10119000C8B2FFF72AFF39E08C48808845F2105129
:1011A000884220D189494889FFF716FF2012FFF7AE
:1011B0001CFF86494989491C88B2FFF70DFFE0B240
:1011C000FFF713FF81498889FFF706FF2812FFF711
:1011D0000CFF7E498989491C88B2FFF7FDFEE8B201
:1011E000FFF703FF12E079488079012804D177489E
:1011F0000088401E001B84B2744948892146FFF7CD
:1012000006FF724988892946FFF701FF30BD2DE9A5
:10121000F04105460E4600240027A0466B48008892
:10122000A84203DD69484088B04202DC0020BDE8E6
:10123000F08131462846FFF719FF6448808849F25B
:101240004131884211D06148808846F604018842C5
:101250000BD05E48808845F21031884205D05B484B
:10126000808841F66311884203D12E20FFF7B4FE37
:101270000DE05648808845F21051884204D14FF461
:101280003850FFF7A9FE02E02220FFF7A5FE4F48E5
:10129000808849F22031884202D10220FFF7DFFE28
:1012A000FFF7ADFE04464948808841F66311884245
:1012B00001D12046BBE70220FFF7D1FEFFF79FFEDA
:1012C00004464248808849F2413188420BD03F4869
:1012D000808845F21031884205D03C48808845F22C
:1012E000105188420AD10220FFF7B9FEFFF787FEAE
:1012F0008046E7B24FF6FF7000EA07273348808840
:1013000049F22531884216D03048808844F2355160
:10131000884210D02D488088091F88420BD02B4866
:1013200080884BF20551884205D0284880884CF2CD
:101330000551884201D1204679E72448808849F246
:10134000413188420BD02148808845F210318842D3
:1013500005D01E48808845F21051884207D1E0121E
:10136000C002B91240EA411040EAE8205FE7204697
:10137000FFF768FE5BE700B51448808849F2413109
:10138000884211D01148808846F6040188420BD06B
:101390000E48808845F21031884205D00B4880887D
:1013A00041F66311884203D12920FFF715FE14E0AE
:1013B0000648808845F21051884209D14FF42450E4
:1013C000FFF70AFE09E000007E00006CC4E8002080
:1013D00040F273110720FFF71AFE00BD00B5FD486B
:1013E000808849F24131884211D0FA48808846F617
:1013F000040188420BD0F748808845F210318842BA
:1014000005D0F448808841F66311884203D1282032
:10141000FFF7E2FD0EE0EF48808845F21051884268
:1014200004D14FF42050FFF7D7FD03E0002107203F
:10143000FFF7EDFD00BDF0B5054600240027E548A7
:10144000807901280BD1E348808846F60401884260
:1014500005D0E048808841F66311884208D1DD4814
:101460008079F0B9DB48808841F66311884218D151
:10147000082D15D2DFE805F00406080A0C0E10123C
:1014800006250DE007250BE0042509E0052507E00A
:10149000012505E0002503E0032501E0022500BF4A
:1014A00000BFCC48808849F24131884217D0C948F2
:1014B000808846F60401884211D0C648808845F2EB
:1014C000103188420BD0C348808845F210518842C1
:1014D00005D0C048808841F6631188427ED1082D2E
:1014E0001CD2DFE805F00406090C0F12151800BF26
:1014F00014E044F0800411E044F040040EE044F0B5
:10150000C0040BE044F0200408E044F0600405E06F
:1015100044F0A00402E044F0E00400BF00BFAD4886
:10152000808845F21051884202D14FF4585700E0AC
:101530003627A848808845F2103188420DD0A5484A
:10154000808845F21051884207D0A248808841F631
:101550006311884201D044F008049E48808846F612
:101560000401884201D144F0020421463846FFF7C5
:101570004EFD9848808841F6631188421DD004F0E2
:10158000200068B19348008892494988884214DA5B
:101590009048068840888F490880084646800CE0BD
:1015A0008C4800888B494988884206DD894806882E
:1015B000408888490880084646808648808845F2E9
:1015C0001051884254D183494889FFF705FD002016
:1015D000FFF70BFD7F494989491C00E077E088B29D
:1015E000FFF7FAFC0020FFF700FD7A494989891CC2
:1015F00088B2FFF7F1FC77490988491EC1F30F2033
:10160000FFF7F3FC73494989C91C88B2FFF7E4FC72
:1016100070490978491EC8B2FFF7E7FC6D4988890F
:10162000FFF7DAFC0020FFF7E0FC6A498989491CD2
:1016300088B2FFF7D1FC0020FFF7D7FC6549898904
:10164000891C88B2FFF7C8FC62494988491EC1F36A
:101650000F20FFF7CAFC5F498989C91C88B2FFF7D0
:10166000BBFC5C498978491EC8B2FFF7BEFC55E057
:1016700058494889FFF7B0FC0020FFF7B6FC00206E
:10168000FFF7B3FC53490988491EC1F30F20FFF748
:10169000ACFC50490978491EC8B2FFF7A6FC4D4979
:1016A0008889FFF799FC0020FFF79FFC0020FFF7D7
:1016B0009CFC48494988491EC1F30F20FFF795FC5F
:1016C00044498978491EC8B2FFF78FFC26E0082DEF
:1016D0001CD2DFE805F004070A0D0F12151844F0BC
:1016E000300413E044F0100410E044F020040DE056
:1016F00000BF0BE044F0380408E044F0280405E0A3
:1017000044F0180402E044F0080400BF00BF0327BF
:1017100044F4805421463846FFF779FCF0BD30B5DB
:1017200004460D4629462046FFF7A0FCFFF781FC42
:10173000294800882949088030BD70B504460D4607
:1017400016462448808849F24131884205D0214814
:10175000808845F21031884214D11E494889FFF72C
:101760003BFC2012FFF741FCE0B2FFF73EFC1949B9
:101770008889FFF731FC2812FFF737FCE8B2FFF742
:1017800034FC93E01348808845F21051884227D1F9
:1017900010494889FFF720FC2012FFF726FC0D496D
:1017A0004989491C88B2FFF717FCE0B2FFF71DFC1E
:1017B00008498889FFF710FC2812FFF716FC054935
:1017C0008989491C88B2FFF707FCE8B2FFF70DFCD6
:1017D0006CE00000C4E80020200000208000006CC5
:1017E000FE48808841F66311884228D1FB48807901
:1017F00020B9FA480088401E001B84B2F749488986
:10180000FFF7EAFB2012FFF7F0FBE0B2FFF7EDFB7A
:101810002012FFF7EAFBE0B2FFF7E7FBEF49888908
:10182000FFF7DAFB2812FFF7E0FBE8B2FFF7DDFB7A
:101830002812FFF7DAFBE8B2FFF7D7FB36E0E748FC
:10184000808846F6040188421DD1E4488079012849
:1018500004D1E2480088401E001B84B2DF49488959
:10186000FFF7BAFB2012FFF7C0FBE0B2FFF7BDFBAA
:10187000DA498889FFF7B0FB2812FFF7B6FBE8B218
:10188000FFF7B3FB12E0D5488079012804D1D34893
:101890000088401E001B84B2D04948892146FFF7CA
:1018A000B6FBCE4988892946FFF7B1FBCB480089B2
:1018B000CB4908804FF0D840A0F8806070BD70B56B
:1018C0002DED048B0446BE20FFF786FB0520FFF7B5
:1018D0008CFB204607F045FF41EC190B9FEDC10B37
:1018E00053EC102B07F050FF41EC180B07F00CFFE6
:1018F00085B22846FFF779FB0120FFF776FBFF2032
:10190000FFF773FB0020FFF770FB0020FFF76DFB74
:10191000BDEC048B70BD10B50446002C66D1AF49F8
:101920008871F02008804FF4A070488008468088B5
:1019300049F2413188420BD0A848808846F604011C
:10194000884205D0A548808845F2103188421AD1D6
:101950002C20A24908812A2048812B208881084612
:10196000808846F60401884205D09C48808845F26C
:101970001031884206D14FF4A070984908804FF486
:10198000F0704880A1E09548808845F21051884267
:1019900010D14FF43050914908814FF428504881BC
:1019A0004FF42C5088814FF4F07008804FF4487049
:1019B00048808AE08948808841F6631188420DD1C9
:1019C0002C20864908812B2048812A2088814FF4C9
:1019D000F07008804FF44870488076E022207F49FC
:1019E000088120204881212088816EE001207B49E8
:1019F00088714FF4A0700880F020488008468088E5
:101A000049F24131884205D07448808845F210314E
:101A1000884207D12C20714908812A2048812B2037
:101A200088813FE06D48808846F60401884207D1EE
:101A30002C206A4908812B2048812A20888131E0A6
:101A40006648808845F21051884210D14FF43050DA
:101A5000624908814FF4285048814FF42C50888106
:101A60004FF4487008804FF4F07048801AE05B48EB
:101A7000808841F6631188420DD12C205749088196
:101A80002A2048812B2088814FF4487008804FF429
:101A9000F070488006E022205049088121204881CA
:101AA000202088814D48808846F60401884205D070
:101AB0004A48808845F21031884206D14FF4F070D0
:101AC000464908804FF4A07048800020FFF7B3FC1F
:101AD00010BD2DE9F04F86B004460D46904699465C
:101AE00004EB0800401E86B205EB0900401E87B2D9
:101AF0003A48808849F24131884215D03748808879
:101B000045F2103188420FD03448808846F60401EF
:101B1000884209D031488079012826D12F48808811
:101B200041F66311884220D12C494889FFF754FAC5
:101B30002012FFF75AFAE0B2FFF757FA3012FFF718
:101B400054FAF0B2FFF751FA24498889FFF744FAB2
:101B50002812FFF74AFAE8B2FFF747FA3812FFF700
:101B600044FAF8B2FFF741FAC1E01C48808841F618
:101B7000631188423DD119480088A0EB0800001B82
:101B800084B205EB0900401E1FFA80F91349488909
:101B9000FFF722FA2012FFF728FAE0B2FFF725FA42
:101BA00004EB0801491EC1F30F20FFF71EFA04EBF6
:101BB0000801491EC8B2FFF718FA08498889FFF7DB
:101BC0000BFA2812FFF711FAE8B2FFF70EFA4FEA04
:101BD0002920FFF70AFA09F0FF0007E0C4E8002017
:101BE0007E00006C6666666666660440FFF7FDF977
:101BF0007DE0FE48808845F21051884244D1FB497F
:101C00004889FFF7E9F92012FFF7EFF9F749498909
:101C1000491C88B2FFF7E0F9E0B2FFF7E6F9F349B3
:101C20004989891C88B2FFF7D7F93012FFF7DDF92F
:101C3000EE494989C91C88B2FFF7CEF9F0B2FFF727
:101C4000D4F9EA498889FFF7C7F92812FFF7CDF9D7
:101C5000E6498989491C88B2FFF7BEF9E8B2FFF767
:101C6000C4F9E2498989891C88B2FFF7B5F93812AD
:101C7000FFF7BBF9DD498989C91C88B2FFF7ACF9C8
:101C8000F8B2FFF7B2F932E0D848807901280ED1D6
:101C9000AA46BB46D5480088801B401E80B20190F2
:101CA000D2480088001B401E80B2009003E0A2468C
:101CB000B346019500975020059051200490522082
:101CC00003905320029051460598FFF7A0F959461A
:101CD0000498FFF79CF901990398FFF798F9009988
:101CE0000298FFF794F929462046FFF7BFF906B09E
:101CF000BDE8F08F70B504460026BC4805884088D2
:101D00004543BA48808846F60401884216D1B74850
:101D10008079012812D10020B44988712A20488195
:101D20002B20888100210846FFF7A0F90120AF4948
:101D300088712B2048812A20888103E000210846F1
:101D4000FFF794F9FFF775F9002602E0A848048030
:101D5000761CAE42FAD370BD00B5A1B00020209031
:101D600001217A2005F0B6F80121084605F0EAF8CD
:101D70004FF400401E9001208DF87C0000208DF86B
:101D80007E0002208DF87D0001208DF87F001EA9C5
:101D9000984804F01DFB4CF233701E9002208DF821
:101DA0007C0000208DF87E0003208DF87D0001204E
:101DB0008DF87F001EA9904804F00AFB4FF6807052
:101DC0001E9002208DF87C0000208DF87E000320FC
:101DD0008DF87D0001208DF87F001EA9874804F052
:101DE000F7FA4FF480501E9002208DF87C000020FE
:101DF0008DF87E0003208DF87D0001208DF87F0096
:101E00001EA97F4804F0E4FA4FF480501E9002208F
:101E10008DF87C0000208DF87E0003208DF87D0079
:101E200001208DF87F001EA9764804F0D1FA0C221B
:101E30000021714804F057FB0C2201216E4804F088
:101E400052FB0C2204216C4804F04DFB0C220521AE
:101E5000694804F048FB0C220821674804F043FB62
:101E60000C220921644804F03EFB0C220A2162483E
:101E700004F039FB0C220E215F4804F034FB0C22E5
:101E80000F215D4804F02FFB0C2207215B4804F072
:101E90002AFB0C220821594804F025FB0C220921B9
:101EA000564804F020FB0C220A21544804F01BFB86
:101EB0000C220B21514804F016FB0C2211464F480E
:101EC00004F011FB0C220D214C4804F00CFB0C22F9
:101ED0000E214A4804F007FB0C220F21474804F06A
:101EE00002FB0C221146464804F0FDFA0C22114672
:101EF000444804F0F8FA0F200890002009903C2094
:101F00000A9000200B900C900D900E9009200190EB
:101F10000020029008200390002004900590069075
:101F2000079006200F900020109011901020129022
:101F30000020139015901490169017904FF4805035
:101F40001890002019904FF480401A9000201B90A8
:101F500008A81C9001A81D900FA804F018FB0121EF
:101F6000062004F09FFB322004F058F801210020E5
:101F7000FFF74DF8322004F051F80020FFF74EF83B
:101F80001A49888008468088FF280ADB084680882E
:101F90004FF6FF71884204D014488088B0F5134F83
:101FA0007ED1D320FFF718F8FFF729F80F49888072
:101FB000FFF725F80D498880FFF721F80B49888045
:101FC000084680884FF6FF7101EA002007498880A3
:101FD000FFF715F8054989880843044988800846B1
:101FE000808849F2413188425AD00DE0C4E800208F
:101FF0008000006C00040240000C0240001002400F
:102000000014024000180240BF20FEF7E5FFFEF773
:10201000F6FFFE498880FEF7F2FFFC498880FEF754
:10202000EEFFFA498880FEF7EAFFF8498880084603
:1020300080884FF6FF7101EA0020F4498880FEF79E
:10204000DEFFF24989880843F04988800846808885
:1020500046F6040188427AD0D420FEF7BDFFFEF791
:10206000CEFFEA498880FEF7CAFFE8498880FEF77C
:10207000C6FFE6498880084680884FF6FF7101EA6E
:102080000020E2498880FEF7BAFFE04989880843CA
:10209000DE4988800846808845F21031884200E099
:1020A00055E054D04FF45A40FEF796FFFEF7A7FFD5
:1020B000D64988804FF45B40FEF78EFFFEF79FFF06
:1020C000D2498880084680884FF6FF7101EA0020D7
:1020D000CE4988804FF45C40FEF77EFFFEF78FFF0D
:1020E000CA4989880843C949888008468088B0F56C
:1020F000004F02D145F210508880C448808845F2D4
:102100001051884223D0A120FEF766FFFEF777FF2B
:10211000BE498880FEF773FFBC49888008468088E6
:102120004FF6FF7101EA0020B8498880FEF767FF8B
:10213000B64989880843B54988800846808845F2B1
:102140006171884203D141F66310B0498880AF487D
:10215000808849F24131884211D0AC48808845F2EC
:10216000103188420BD0A948808845F2105188422E
:1021700005D0A648808841F6631188421DD1A44845
:10218000006820F00F004FF02041C1F81C01084604
:10219000D0F81C0120F47060C1F81C010846D0F88A
:1021A0001C0140F00300C1F81C010846D0F81C01D6
:1021B00040F40070C1F81C0128E09448808846F67D
:1021C0000401884205D0914880884CF2055188422C
:1021D0001CD18F48006820F00F004FF02041C1F85B
:1021E0001C010846D0F81C0120F47060C1F81C01E5
:1021F0000846D0F81C0140F00A00C1F81C0108464E
:10220000D0F81C0140F44060C1F81C017F4881886F
:1022100080A007F051F97D48808849F24131884219
:102220007ED1CF20FEF7D8FE0020FEF7DEFEC120D3
:10223000FEF7DBFE3020FEF7D8FEED20FEF7CCFEE9
:102240006420FEF7D2FE0320FEF7CFFE1220FEF739
:10225000CCFE8120FEF7C9FEE820FEF7BDFE8520FA
:10226000FEF7C3FE1020FEF7C0FE7A20FEF7BDFE8B
:10227000CB20FEF7B1FE3920FEF7B7FE2C20FEF78B
:10228000B4FE0020FEF7B1FE3420FEF7AEFE0220C1
:10229000FEF7ABFEF720FEF79FFE2020FEF7A5FE1F
:1022A000EA20FEF799FE0020FEF79FFE0020FEF7D1
:1022B0009CFEC020FEF790FE1B20FEF796FEC1207C
:1022C000FEF78AFE0120FEF790FEC520FEF784FE91
:1022D0003020FEF78AFE3020FEF787FEC720FEF78B
:1022E0007BFEB720FEF781FE3620FEF775FE482004
:1022F000FEF77BFE3A20FEF76FFE5520FEF775FED7
:10230000B120FEF769FE0020FEF76FFE1A20FEF7EF
:102310006CFEB620FEF760FE0A20FEF766FE00E0C7
:10232000A5E0A220FEF761FEF220FEF755FE002098
:10233000FEF75BFE2620FEF74FFE0120FEF755FE5E
:10234000E020FEF749FE0F20FEF74FFE2A20FEF7A1
:102350004CFE2820FEF749FE0820FEF746FE0E2020
:10236000FEF743FE0820FEF740FE5420FEF73DFE38
:10237000A920FEF73AFE4320FEF737FE0A20FEF7BB
:1023800034FE0F20FEF731FE0020FEF72EFE002067
:10239000FEF72BFE0020FEF728FE0020FEF725FEAC
:1023A000E120FEF719FE0020FEF71FFE1520FEF7C4
:1023B0001CFE1720FEF719FE0720FEF716FE11205F
:1023C000FEF713FE0620FEF710FE2B20FEF70DFE93
:1023D0005620FEF70AFE3C20FEF707FE0520FEF71A
:1023E00004FE1020FEF701FE0F20FEF7FEFD3F2049
:1023F000FEF7FBFD3F20FEF7F8FD0F20FEF7F5FD91
:102400002B20FEF7E9FD00200CE00000C4E80020CE
:102410001C0100A0204C43442049443A25780D0A71
:1024200000000000FEF7E1FD0020FEF7DEFD0120C8
:10243000FEF7DBFD3F20FEF7D8FD2A20FEF7CCFD9E
:102440000020FEF7D2FD0020FEF7CFFD0020FEF7B2
:10245000CCFDEF20FEF7C9FD1120FEF7BDFD782071
:1024600003F0DCFD2920FEF7B7FD03F01DB9FE489F
:10247000808846F6040188427ED11120FEF7ACFD2B
:10248000142003F0CBFDD020FEF7A6FD0720FEF7B9
:10249000ACFD4220FEF7A9FD1D20FEF7A6FDD120D0
:1024A000FEF79AFD0020FEF7A0FD1A20FEF79DFD25
:1024B0000920FEF79AFDD220FEF78EFD0120FEF7DF
:1024C00094FD2220FEF791FDC020FEF785FD10202F
:1024D000FEF78BFD3B20FEF788FD0020FEF785FD13
:1024E0000220FEF782FD1120FEF77FFDC520FEF7DA
:1024F00073FD0320FEF779FDC820FEF76DFD002077
:10250000FEF773FD2520FEF770FD2120FEF76DFD1F
:102510000520FEF76AFD0020FEF767FD0A20FEF7A2
:1025200064FD6520FEF761FD2520FEF75EFD772046
:10253000FEF75BFD5020FEF758FD0F20FEF755FD1E
:102540000020FEF752FDF820FEF746FD0120FEF7C1
:102550004CFDFE20FEF740FD0020FEF746FD022068
:10256000FEF743FD2020FEF737FD3620FEF734FD51
:102570000820FEF73AFD00E02AE03A20FEF72CFDA5
:102580005520FEF732FD2B20FEF726FD0020FEF73A
:102590002CFD0020FEF729FD0120FEF726FD3F203F
:1025A000FEF723FD2A20FEF717FD0020FEF71DFD94
:1025B0000020FEF71AFD0120FEF717FDDF20FEF7D1
:1025C00014FD782003F02AFD2920FEF705FD4CE7D5
:1025D000A548808845F21031884240F07C87ED2084
:1025E000FEF7FAFC0120FEF700FDFE20FEF7FDFCE1
:1025F000EE20FEF7F1FCDE20FEF7F7FC2120FEF7CF
:10260000F4FCF120FEF7E8FC0120FEF7EEFCDF20F1
:10261000FEF7E2FC1020FEF7E8FCC420FEF7DCFC2D
:102620008F20FEF7E2FCC620FEF7D6FC0020FEF766
:10263000DCFCE220FEF7D9FCE220FEF7D6FCE2202B
:10264000FEF7D3FCBF20FEF7C7FCAA20FEF7CDFCA7
:10265000B020FEF7C1FC0D20FEF7C7FC0020FEF7FE
:10266000C4FC0D20FEF7C1FC0020FEF7BEFC1120CB
:10267000FEF7BBFC0020FEF7B8FC1920FEF7B5FC06
:102680000020FEF7B2FC2120FEF7AFFC0020FEF791
:10269000ACFC2D20FEF7A9FC0020FEF7A6FC3D2097
:1026A000FEF7A3FC0020FEF7A0FC5D20FEF79DFCDA
:1026B0000020FEF79AFC5D20FEF797FC0020FEF755
:1026C00094FCB120FEF788FC8020FEF78EFC0020F1
:1026D000FEF78BFC8B20FEF788FC0020FEF785FCC4
:1026E0009620FEF782FC0020FEF77FFCB220FEF76A
:1026F00073FC0020FEF779FC0020FEF776FC022038
:10270000FEF773FC0020FEF770FC0320FEF76DFC63
:102710000020FEF76AFCB320FEF75EFC0020FEF707
:1027200064FC0020FEF761FC0020FEF75EFC002048
:10273000FEF75BFC0020FEF758FC0020FEF755FC7E
:102740000020FEF752FC0020FEF74FFC0020FEF7B1
:102750004CFC0020FEF749FC0020FEF746FC002060
:10276000FEF743FC0020FEF740FC0020FEF73DFC96
:102770000020FEF73AFC0020FEF737FC0020FEF7B1
:1027800034FC0020FEF731FC0020FEF72EFC002078
:10279000FEF72BFC0020FEF728FC0020FEF725FCAE
:1027A0000020FEF722FC0020FEF71FFCB420FEF7FD
:1027B00013FC8B20FEF719FC0020FEF716FC962078
:1027C000FEF713FC0020FEF710FCA120FEF70DFC25
:1027D0000020FEF70AFCB520FEF7FEFB0220FEF704
:1027E00004FC0020FEF701FC0320FEF7FEFB0020A6
:1027F000FEF7FBFB0420FEF7F8FB0020FEF7F5FBDD
:10280000B620FEF7E9FB0020FEF7EFFB0020FEF705
:10281000ECFBB720FEF7E0FB0020FEF7E6FB002014
:10282000FEF7E3FB3F20FEF7E0FB0020FEF7DDFBB9
:102830005E20FEF7DAFB0020FEF7D7FB6420FEF7F0
:10284000D4FB0020FEF7D1FB8C20FEF7CEFB00204E
:10285000FEF7CBFBAC20FEF7C8FB0020FEF7C5FB64
:10286000DC20FEF7C2FB01E0C4E800200020FEF7F8
:10287000BCFB7020FEF7B9FB0020FEF7B6FB9020F2
:10288000FEF7B3FB0020FEF7B0FBEB20FEF7ADFB3D
:102890000020FEF7AAFBDC20FEF7A7FB0020FEF7D6
:1028A000A4FBB820FEF798FB0020FEF79EFB00205B
:1028B000FEF79BFB0020FEF798FB0020FEF795FB40
:1028C0000020FEF792FB0020FEF78FFB0020FEF7B2
:1028D0008CFB0020FEF789FBBA20FEF77DFB24204D
:1028E000FEF783FB0020FEF780FB0020FEF77DFB58
:1028F0000020FEF77AFBC120FEF76EFB2020FEF7DA
:1029000074FB0020FEF771FB5420FEF76EFB0020E5
:10291000FEF76BFBFF20FEF768FB0020FEF765FB70
:10292000C220FEF759FB0A20FEF75FFB0020FEF7EE
:102930005CFB0420FEF759FB0020FEF756FBC3208A
:10294000FEF74AFB3C20FEF750FB0020FEF74DFB54
:102950003A20FEF74AFB0020FEF747FB3920FEF73E
:1029600044FB0020FEF741FB3720FEF73EFB002032
:10297000FEF73BFB3C20FEF738FB0020FEF735FB63
:102980003620FEF732FB0020FEF72FFB3220FEF749
:102990002CFB0020FEF729FB2F20FEF726FB002052
:1029A000FEF723FB2C20FEF720FB0020FEF71DFB8B
:1029B0002920FEF71AFB0020FEF717FB2620FEF762
:1029C00014FB0020FEF711FB2420FEF70EFB002075
:1029D000FEF70BFB2420FEF708FB0020FEF705FBAB
:1029E0002320FEF702FB0020FEF7FFFA3C20FEF753
:1029F000FCFA0020FEF7F9FA3620FEF7F6FA00207E
:102A0000FEF7F3FA3220FEF7F0FA0020FEF7EDFAB7
:102A10002F20FEF7EAFA0020FEF7E7FA2C20FEF757
:102A2000E4FA0020FEF7E1FA2920FEF7DEFA0020A2
:102A3000FEF7DBFA2620FEF7D8FA0020FEF7D5FADB
:102A40002420FEF7D2FA0020FEF7CFFA2420FEF76A
:102A5000CCFA0020FEF7C9FA2320FEF7C6FA0020C0
:102A6000FEF7C3FAC420FEF7B7FA6220FEF7BDFAFC
:102A70000020FEF7BAFA0520FEF7B7FA0020FEF7AD
:102A8000B4FA8420FEF7B1FA0020FEF7AEFAF02087
:102A9000FEF7ABFA0020FEF7A8FA1820FEF7A5FA19
:102AA0000020FEF7A2FAA420FEF79FFA0020FEF70E
:102AB0009CFA1820FEF799FA0020FEF796FA5020AB
:102AC000FEF793FA0020FEF790FA0C20FEF78DFA3D
:102AD0000020FEF78AFA1720FEF787FA0020FEF79B
:102AE00084FA9520FEF781FA0020FEF77EFAF320A3
:102AF000FEF77BFA0020FEF778FAE620FEF775FA7B
:102B00000020FEF772FAC520FEF766FA3220FEF7C3
:102B10006CFA0020FEF769FA4420FEF766FA0020FE
:102B2000FEF763FA6520FEF760FA0020FEF75DFA13
:102B30007620FEF75AFA0020FEF757FA8820FEF7B3
:102B400054FA0020FEF751FAC620FEF745FA20207D
:102B5000FEF74BFA0020FEF748FA1720FEF745FA79
:102B60000020FEF742FA0120FEF73FFA0020FEF7B0
:102B70003CFAC720FEF730FA0020FEF736FA0020B4
:102B8000FEF733FA0020FEF730FA0020FEF72DFAA8
:102B9000C820FEF721FA0020FEF727FA0020FEF7F2
:102BA00024FA0020FEF721FA0020FEF71EFAC920C1
:102BB000FEF712FA0020FEF718FA0020FEF715FAC9
:102BC0000020FEF712FA0020FEF70FFA0020FEF7B1
:102BD0000CFA0020FEF709FA0020FEF706FA0020A2
:102BE000FEF703FA0020FEF700FA0020FEF7FDF9D9
:102BF0000020FEF7FAF90020FEF7F7F90020FEF7B3
:102C0000F4F90020FEF7F1F90020FEF7EEF90020BC
:102C1000FEF7EBF9E020FEF7DFF91620FEF7E5F905
:102C20000020FEF7E2F91C20FEF7DFF90020FEF796
:102C3000DCF92120FEF7D9F90020FEF7D6F936207D
:102C4000FEF7D3F90020FEF7D0F94620FEF7CDF9C4
:102C50000020FEF7CAF95220FEF7C7F90020FEF760
:102C6000C4F96420FEF7C1F90020FEF7BEF97A200E
:102C7000FEF7BBF90020FEF7B8F98B20FEF7B5F997
:102C80000020FEF7B2F99920FEF7AFF90020FEF719
:102C9000ACF9A820FEF7A9F90020FEF7A6F9B920A3
:102CA000FEF7A3F90020FEF7A0F9C420FEF79DF976
:102CB0000020FEF79AF9CA20FEF797F90020FEF7E8
:102CC00094F9D220FEF791F90020FEF78EF9D92071
:102CD000FEF78BF90020FEF788F9E020FEF785F972
:102CE0000020FEF782F9F320FEF77FF90020FEF7BF
:102CF0007CF9E120FEF770F91620FEF776F9002046
:102D0000FEF773F91C20FEF770F90020FEF76DF94D
:102D10002220FEF76AF90020FEF767F93620FEF759
:102D200064F90020FEF761F94520FEF75EF9002006
:102D3000FEF75BF95220FEF758F90020FEF755F92F
:102D40006420FEF752F90020FEF74FF97A20FEF7D3
:102D50004CF90020FEF749F98B20FEF746F90020D8
:102D6000FEF743F99920FEF740F90020FEF73DF900
:102D7000A820FEF73AF90020FEF737F9B920FEF750
:102D800034F90020FEF731F9C420FEF72EF90020B7
:102D9000FEF72BF9CA20FEF728F90020FEF725F9E7
:102DA000D220FEF722F90020FEF71FF9D820FEF707
:102DB0001CF90020FEF719F9E020FEF716F90020B3
:102DC000FEF713F9F320FEF710F90020FEF70DF9D6
:102DD000E220FEF701F90520FEF707F90020FEF7D3
:102DE00004F90B20FEF701F90020FEF7FEF81B2086
:102DF000FEF7FBF80020FEF7F8F83420FEF7F5F8B0
:102E00000020FEF7F2F84420FEF7EFF80020FEF76E
:102E1000ECF84F20FEF7E9F80020FEF7E6F8612015
:102E2000FEF7E3F80020FEF7E0F87920FEF7DDF882
:102E30000020FEF7DAF88820FEF7D7F80020FEF72A
:102E4000D4F89720FEF7D1F80020FEF7CEF8A620A0
:102E5000FEF7CBF80020FEF7C8F8B720FEF7C5F85C
:102E60000020FEF7C2F8C220FEF7BFF80020FEF7F0
:102E7000BCF8C720FEF7B9F80020FEF7B6F8D1205D
:102E8000FEF7B3F80020FEF7B0F8D620FEF7ADF855
:102E90000020FEF7AAF8DD20FEF7A7F80020FEF7D5
:102EA000A4F8F320FEF7A1F80020FEF79EF8E32037
:102EB000FEF792F80520FEF798F80020FEF795F847
:102EC0000A20FEF792F80020FEF78FF81C20FEF78C
:102ED0008CF80020FEF789F83320FEF786F80020F2
:102EE000FEF783F84420FEF780F80020FEF77DF817
:102EF0005020FEF77AF80020FEF777F86220FEF700
:102F000074F80020FEF771F87820FEF76EF80020C4
:102F1000FEF76BF88820FEF768F80020FEF765F8EA
:102F20009720FEF762F80020FEF75FF8A620FEF774
:102F30005CF80020FEF759F8B720FEF756F800209D
:102F4000FEF753F8C220FEF750F80020FEF74DF8C8
:102F5000C720FEF74AF80020FEF747F8D120FEF719
:102F600044F80020FEF741F8D520FEF73EF8002097
:102F7000FEF73BF8DD20FEF738F80020FEF735F8C5
:102F8000F320FEF732F80020FEF72FF8E420FEF7DA
:102F900023F80120FEF729F80020FEF726F801208B
:102FA000FEF723F80020FEF720F80220FEF71DF8B8
:102FB0000020FEF71AF82A20FEF717F80020FEF787
:102FC00014F83C20FEF711F80020FEF70EF84B2015
:102FD000FEF70BF80020FEF708F85D20FEF705F875
:102FE0000020FEF702F87420FDF7FFFF0020FDF738
:102FF000FCFF8420FDF7F9FF0020FDF7F6FF93208A
:10300000FDF7F3FF0020FDF7F0FFA220FDF7EDFF35
:103010000020FDF7EAFFB320FDF7E7FF0020FDF7F2
:10302000E4FFBE20FDF7E1FF0020FDF7DEFFC42036
:10303000FDF7DBFF0020FDF7D8FFCD20FDF7D5FF22
:103040000020FDF7D2FFD320FDF7CFFF0020FDF7D2
:10305000CCFFDD20FDF7C9FF0020FDF7C6FFF32000
:10306000FDF7C3FF0020FDF7C0FFE520FDF7B4FF2B
:103070000020FDF7BAFF0020FDF7B7FF0020FDF7A5
:10308000B4FF0020FDF7B1FF0220FDF7AEFF0020E6
:10309000FDF7ABFF2920FDF7A8FF0020FDF7A5FFF6
:1030A0003C20FDF7A2FF0020FDF79FFF4B20FDF71E
:1030B0009CFF0020FDF799FF5D20FDF796FF0020A3
:1030C000FDF793FF7420FDF790FF0020FDF78DFFC3
:1030D0008420FDF78AFF0020FDF787FF9320FDF78E
:1030E00084FF0020FDF781FFA220FDF77EFF002076
:1030F000FDF77BFFB320FDF778FF0020FDF775FF9C
:10310000BE20FDF772FF0020FDF76FFFC420FDF722
:103110006CFF0020FDF769FFCD20FDF766FF002062
:10312000FDF763FFD320FDF760FF0020FDF75DFF93
:10313000DC20FDF75AFF0020FDF757FFF320FDF7D5
:1031400054FF0020FDF751FFE620FDF745FF112059
:10315000FDF74BFF0020FDF748FF3420FDF745FF4A
:103160000020FDF742FF5620FDF73FFF0020FDF74E
:103170003CFF7620FDF739FF0020FDF736FF772072
:10318000FDF733FF0020FDF730FF6620FDF72DFF30
:103190000020FDF72AFF8820FDF727FF0020FDF71C
:1031A00024FF9920FDF721FF0020FDF71EFFBB2023
:1031B000FDF71BFF0020FDF718FF9920FDF715FF15
:1031C0000020FDF712FF6620FDF70FFF0020FDF73E
:1031D0000CFF5520FDF709FF0020FDF706FF5520E5
:1031E000FDF703FF0020FDF700FF4520FDF7FDFE82
:1031F0000020FDF7FAFE4320FDF7F7FE0020FDF763
:10320000F4FE4420FDF7F1FE0020FDF7EEFEE7207E
:10321000FDF7E2FE3220FDF7E8FE0020FDF7E5FEB7
:103220005520FDF7E2FE0020FDF7DFFE7620FDF7DA
:10323000DCFE0020FDF7D9FE6620FDF7D6FE00205B
:10324000FDF7D3FE6720FDF7D0FE0020FDF7CDFE91
:103250006720FDF7CAFE0020FDF7C7FE8720FDF7B7
:10326000C4FE0020FDF7C1FE9920FDF7BEFE002040
:10327000FDF7BBFEBB20FDF7B8FE0020FDF7B5FE55
:103280009920FDF7B2FE0020FDF7AFFE7720FDF795
:10329000ACFE0020FDF7A9FE4420FDF7A6FE0020AD
:1032A000FDF7A3FE5620FDF7A0FE0020FDF79DFED2
:1032B0002320FDF79AFE0020FDF797FE3320FDF74F
:1032C00094FE0020FDF791FE4520FDF78EFE0020C4
:1032D000FDF78BFEE820FDF77FFE0020FDF785FE61
:1032E0000020FDF782FE9920FDF77FFE0020FDF70C
:1032F0007CFE8720FDF779FE0020FDF776FE882012
:10330000FDF773FE0020FDF770FE7720FDF76DFEE0
:103310000020FDF76AFE6620FDF767FE0020FDF73E
:1033200064FE8820FDF761FE0020FDF75EFEAA2006
:10333000FDF75BFE0020FDF758FEBB20FDF755FEB4
:103340000020FDF752FE9920FDF74FFE0020FDF70B
:103350004CFE6620FDF749FE0020FDF746FE552095
:10336000FDF743FE0020FDF740FE5520FDF73DFE32
:103370000020FDF73AFE4420FDF737FE0020FDF760
:1033800034FE4420FDF731FE0020FDF72EFE5520CF
:10339000FDF72BFE0020FDF728FEE920FDF71CFEBF
:1033A000AA20FDF722FE0020FDF71FFE0020FDF7FA
:1033B0001CFE0020FDF719FE0020FDF70DFEAA20DF
:1033C000FDF713FECF20FDF707FE0020FDF70DFEF1
:1033D0000020FDF70AFE0020FDF707FE0020FDF7A4
:1033E00004FE0020FDF701FE0020FDF7FEFD002099
:1033F000FDF7FBFD0020FDF7F8FD0020FDF7F5FDD2
:103400000020FDF7F2FD0020FDF7EFFD0020FDF7A5
:10341000ECFD0020FDF7E9FD0020FDF7E6FD0020B2
:10342000FDF7E3FD0020FDF7E0FD0020FDF7DDFDE9
:10343000F020FDF7D1FD0020FDF7D7FD5020FDF76E
:10344000D4FD0020FDF7D1FD0020FDF7CEFD0020CA
:10345000FDF7CBFDF320FDF7BFFD0020FDF7C5FD17
:10346000F920FDF7B9FD0620FDF7BFFD1020FDF79F
:10347000BCFD2920FDF7B9FD0020FDF7B6FD3A207F
:10348000FDF7AAFD5520FDF7B0FD1120FDF7A4FDC5
:10349000642002F0C3FD2920FDF79EFD3520FDF7D5
:1034A0009BFD0020FDF7A1FD5120FDF795FDFF20BC
:1034B000FDF79BFD5320FDF78FFD2C20FDF795FDBB
:1034C0005520FDF789FD8220FDF78FFD2C20FDF7AB
:1034D00083FD02F0E9B8FE48808845F21051884229
:1034E0007ED155214FF47040FDF791FDAA214FF296
:1034F0000100FDF78CFD52214FF20200FDF787FD20
:1035000008214FF20300FDF782FD01214FF2040074
:10351000FDF77DFD0D214FF43040FDF778FD0D21C5
:103520004BF20100FDF773FD0D214BF20200FDF798
:103530006EFD34214FF43640FDF769FD34214BF226
:103540000160FDF764FD34214BF20260FDF75FFD81
:103550000D214FF43140FDF75AFD0D214BF20110C2
:10356000FDF755FD0D214BF20210FDF750FD342102
:103570004FF43740FDF74BFD34214BF20170FDF75E
:1035800046FD34214BF20270FDF741FD00214FF45E
:103590003240FDF73CFD00214BF20120FDF737FDE5
:1035A00000214BF20220FDF732FD24214FF4384078
:1035B000FDF72DFD24214BF60100FDF728FD242108
:1035C0004BF60200FDF723FD01214FF43F40FDF7CC
:1035D0001EFD0F214FF43340FDF719FD0F2100E0D0
:1035E000FEE34BF20130FDF712FD0F214BF20230EA
:1035F000FDF70DFD34214FF43940FDF708FD34216E
:103600004BF60110FDF703FD34214BF60210FDF7D8
:10361000FEFC08214FF43540FDF7F9FC08214BF280
:103620000150FDF7F4FC08214BF20250FDF7EFFCCE
:1036300003214FF44240FDF7EAFC24214FF43A40C5
:10364000FDF7E5FC24214BF60120FDF7E0FC2421E9
:103650004BF60220FDF7DBFC00214FF43C40FDF768
:10366000D6FC78214BF60140FDF7D1FC00214BF64A
:103670000240FDF7CCFC00214FF43D40FDF7C7FCB4
:1036800078214BF60150FDF7C2FC00214BF60250A9
:10369000FDF7BDFC00214FF43E40FDF7B8FC64216E
:1036A0004BF60160FDF7B3FC00214FF45140FDF7EC
:1036B000AEFC33214DF20110FDF7A9FC00214DF2C3
:1036C0000210FDF7A4FC34214DF20310FDF79FFC1E
:1036D00000214DF20410FDF79AFC3A214DF205103D
:1036E000FDF795FC00214DF20610FDF790FC4A21F4
:1036F0004DF20710FDF78BFC00214DF20810FDF78D
:1037000086FC5C214DF20910FDF781FC00214DF291
:103710000A10FDF77CFC81214DF20B10FDF777FCC0
:1037200000214DF20C10FDF772FCA6214DF20D1098
:10373000FDF76DFC00214DF20E10FDF768FCE52150
:103740004DF20F10FDF763FC01214DF21010FDF753
:103750005EFC13214DF21110FDF759FC01214DF2D1
:103760001210FDF754FC54214DF21310FDF74FFCDD
:1037700001214DF21410FDF74AFC82214DF2151083
:10378000FDF745FC01214DF21610FDF740FCCA2162
:103790004DF21710FDF73BFC02214DF21810FDF71A
:1037A00036FC00214DF21910FDF731FC02214DF2DB
:1037B0001A10FDF72CFC01214DF21B10FDF727FC20
:1037C00002214DF21C10FDF722FC34214DF21D1098
:1037D000FDF71DFC02214DF21E10FDF718FC6721BC
:1037E0004DF21F10FDF713FC02214DF22010FDF7E2
:1037F0000EFC84214DF22110FDF709FC02214DF24F
:103800002210FDF704FCA4214DF22310FDF7FFFB6D
:1038100002214DF22410FDF7FAFBB7214DF22510DD
:10382000FDF7F5FB02214DF22610FDF7F0FBCF214D
:103830004DF22710FDF7EBFB02214DF22810FDF7AA
:10384000E6FBDE214DF22910FDF7E1FB02214DF2EE
:103850002A10FDF7DCFBF2214DF22B10FDF7D7FB10
:1038600002214DF22C10FDF7D2FBFE214DF22D105E
:10387000FDF7CDFB03214DF22E10FDF7C8FB102103
:103880004DF22F10FDF7C3FB03214DF23010FDF771
:10389000BEFB33214DF23110FDF7B9FB03214DF290
:1038A0003210FDF7B4FB6D214DF23310FDF7AFFB85
:1038B00000214FF45240FDF7AAFB33214DF20120C5
:1038C000FDF7A5FB00214DF20220FDF7A0FB01E072
:1038D000C4E8002034214DF20320FDF798FB0021BD
:1038E0004DF20420FDF793FB3A214DF20520FDF740
:1038F0008EFB00214DF20620FDF789FB4A214DF297
:103900000720FDF784FB00214DF20820FDF77FFB27
:103910005C214DF20920FDF77AFB00214DF20A20CF
:10392000FDF775FB81214DF20B20FDF770FB0021A7
:103930004DF20C20FDF76BFBA6214DF20D20FDF79B
:1039400066FB00214DF20E20FDF761FBE5214DF2F3
:103950000F20FDF75CFB01214DF21020FDF757FB16
:1039600013214DF21120FDF752FB01214DF21220DF
:10397000FDF74DFB54214DF21320FDF748FB0121CB
:103980004DF21420FDF743FB82214DF21520FDF787
:103990003EFB01214DF21620FDF739FBCA214DF205
:1039A0001720FDF734FB02214DF21820FDF72FFB05
:1039B00000214DF21920FDF72AFB02214DF21A20B9
:1039C000FDF725FB01214DF21B20FDF720FB022115
:1039D0004DF21C20FDF71BFB34214DF21D20FDF79D
:1039E00016FB02214DF21E20FDF711FB67214DF25F
:1039F0001F20FDF70CFB02214DF22020FDF707FBF5
:103A000084214DF22120FDF702FB02214DF22220FC
:103A1000FDF7FDFAA4214DF22320FDF7F8FA02216B
:103A20004DF22420FDF7F3FAB7214DF22520FDF7E2
:103A3000EEFA02214DF22620FDF7E9FACF214DF2F0
:103A40002720FDF7E4FA02214DF22820FDF7DFFAE6
:103A5000DE214DF22920FDF7DAFA02214DF22A206B
:103A6000FDF7D5FAF2214DF22B20FDF7D0FA022115
:103A70004DF22C20FDF7CBFAFE214DF22D20FDF763
:103A8000C6FA03214DF22E20FDF7C1FA10214DF2A6
:103A90002F20FDF7BCFA03214DF23020FDF7B7FAD5
:103AA00033214DF23120FDF7B2FA03214DF23220DD
:103AB000FDF7ADFA6D214DF23320FDF7A8FA002194
:103AC0004FF45340FDF7A3FA33214DF20130FDF7D7
:103AD0009EFA00214DF20230FDF799FA34214DF2A1
:103AE0000330FDF794FA00214DF20430FDF78FFA10
:103AF0003A214DF20530FDF78AFA00214DF20630E9
:103B0000FDF785FA4A214DF20730FDF780FA0021D2
:103B10004DF20830FDF77BFA5C214DF20930FDF7DC
:103B200076FA00214DF20A30FDF771FA81214DF24B
:103B30000B30FDF76CFA00214DF20C30FDF767FAFF
:103B4000A6214DF20D30FDF762FA00214DF20E3044
:103B5000FDF75DFAE5214DF20F30FDF758FA01212E
:103B60004DF21030FDF753FA13214DF21130FDF7ED
:103B70004EFA01214DF21230FDF749FA54214DF26F
:103B80001330FDF744FA01214DF21430FDF73FFAEE
:103B900082214DF21530FDF73AFA01214DF216302F
:103BA000FDF735FACA214DF21730FDF730FA022140
:103BB0004DF21830FDF72BFA00214DF21930FDF7C8
:103BC00026FA02214DF21A30FDF721FA01214DF2B9
:103BD0001B30FDF71CFA02214DF21C30FDF717FADD
:103BE00034214DF21D30FDF712FA02214DF21E3044
:103BF000FDF70DFA67214DF21F30FDF708FA02219B
:103C00004DF22030FDF703FA84214DF22130FDF70B
:103C1000FEF902214DF22230FDF7F9F9A4214DF20F
:103C20002330FDF7F4F902214DF22430FDF7EFF9CE
:103C3000B7214DF22530FDF7EAF902214DF2263089
:103C4000FDF7E5F9CF214DF22730FDF7E0F902212C
:103C50004DF22830FDF7DBF9DE214DF22930FDF77A
:103C6000D6F902214DF22A30FDF7D1F9F2214DF2B9
:103C70002B30FDF7CCF902214DF22C30FDF7C7F9BE
:103C8000FE214DF22D30FDF7C2F903214DF22E3009
:103C9000FDF7BDF910214DF22F30FDF7B8F90321E2
:103CA0004DF23030FDF7B3F933214DF23130FDF7ED
:103CB000AEF903214DF23230FDF7A9F96D214DF235
:103CC0003330FDF7A4F900214FF45440FDF79FF97C
:103CD00033214DF20140FDF79AF900214DF20240E7
:103CE000FDF795F934214DF20340FDF790F90021DD
:103CF0004DF20440FDF78BF93A214DF20540FDF7F6
:103D000086F900214DF20640FDF781F94A214DF276
:103D10000740FDF77CF900214DF20840FDF777F9E7
:103D20005C214DF20940FDF772F900214DF20A4085
:103D3000FDF76DF981214DF20B40FDF768F9002187
:103D40004DF20C40FDF763F9A6214DF20D40FDF751
:103D50005EF900214DF20E40FDF759F9E5214DF2D3
:103D60000F40FDF754F901214DF21040FDF74FF9D6
:103D700013214DF21140FDF74AF901214DF2124095
:103D8000FDF745F954214DF21340FDF740F90121AB
:103D90004DF21440FDF73BF982214DF21540FDF73D
:103DA00036F901214DF21640FDF731F9CA214DF2E5
:103DB0001740FDF72CF902214DF21840FDF727F9C5
:103DC00000214DF21940FDF722F902214DF21A406F
:103DD000FDF71DF901214DF21B40FDF718F900E038
:103DE00004E302214DF21C40FDF711F934214DF29C
:103DF0001D40FDF70CF902214DF21E40FDF707F9B9
:103E000067214DF21F40FDF702F902214DF22040DB
:103E1000FDF7FDF884214DF22140FDF7F8F802216D
:103E20004DF22240FDF7F3F8A4214DF22340FDF7B7
:103E3000EEF802214DF22440FDF7E9F8B7214DF2EA
:103E40002540FDF7E4F802214DF22640FDF7DFF8AA
:103E5000CF214DF22740FDF7DAF802214DF228403C
:103E6000FDF7D5F8DE214DF22940FDF7D0F802210B
:103E70004DF22A40FDF7CBF8F2214DF22B40FDF731
:103E8000C6F802214DF22C40FDF7C1F8FE214DF29B
:103E90002D40FDF7BCF803214DF22E40FDF7B7F899
:103EA00010214DF22F40FDF7B2F803214DF23040C2
:103EB000FDF7ADF833214DF23140FDF7A8F80321AD
:103EC0004DF23240FDF7A3F86D214DF23340FDF77E
:103ED0009EF800214FF45540FDF799F833214DF23B
:103EE0000150FDF794F800214DF20250FDF78FF8D4
:103EF00034214DF20350FDF78AF800214DF20450B1
:103F0000FDF785F83A214DF20550FDF780F80021C4
:103F10004DF20650FDF77BF84A214DF20750FDF7B0
:103F200076F800214DF20850FDF771F85C214DF252
:103F30000950FDF76CF800214DF20A50FDF767F8C3
:103F400081214DF20B50FDF762F800214DF20C502B
:103F5000FDF75DF8A6214DF20D50FDF758F8002150
:103F60004DF20E50FDF753F8E5214DF20F50FDF7DD
:103F70004EF801214DF21050FDF749F813214DF292
:103F80001150FDF744F801214DF21250FDF73FF8B2
:103F900054214DF21350FDF73AF801214DF214501F
:103FA000FDF735F882214DF21550FDF730F801216B
:103FB0004DF21650FDF72BF8CA214DF21750FDF7C0
:103FC00026F802214DF21850FDF721F800214DF29C
:103FD0001950FDF71CF802214DF21A50FDF717F8A1
:103FE00001214DF21B50FDF712F802214DF21C5039
:103FF000FDF70DF834214DF21D50FDF708F80221B0
:104000004DF21E50FDF703F867214DF21F50FCF7EB
:10401000FEFF02214DF22050FCF7F9FF84214DF202
:104020002150FCF7F4FF02214DF22250FCF7EFFF84
:10403000A4214DF22350FCF7EAFF02214DF2245057
:10404000FCF7E5FFB7214DF22550FCF7E0FF022118
:104050004DF22650FCF7DBFFCF214DF22750FCF745
:10406000D6FF02214DF22850FCF7D1FFDE214DF2A0
:104070002950FCF7CCFF02214DF22A50FCF7C7FF74
:10408000F2214DF22B50FCF7C2FF02214DF22C50D1
:10409000FCF7BDFFFE214DF22D50FCF7B8FF0321C8
:1040A0004DF22E50FCF7B3FF10214DF22F50FCF7CC
:1040B000AEFF03214DF23050FCF7A9FF33214DF242
:1040C0003150FCF7A4FF03214DF23250FCF79FFF63
:1040D0006D214DF23350FCF79AFF00214FF456400A
:1040E000FCF795FF33214DF20160FCF790FF0021B2
:1040F0004DF20260FCF78BFF34214DF20360FCF7B8
:1041000086FF00214DF20460FCF781FF3A214DF259
:104110000560FCF77CFF00214DF20660FCF777FF9D
:104120004A214DF20760FCF772FF00214DF2086052
:10413000FCF76DFF5C214DF20960FCF768FF002180
:104140004DF20A60FCF763FF81214DF20B60FCF732
:104150005EFF00214DF20C60FCF759FFA6214DF2E5
:104160000D60FCF754FF00214DF20E60FCF74FFF8D
:10417000E5214DF20F60FCF74AFF01214DF210607E
:10418000FCF745FF13214DF21160FCF740FF0121C0
:104190004DF21260FCF73BFF54214DF21360FCF727
:1041A00036FF01214DF21460FCF731FF82214DF200
:1041B0001560FCF72CFF01214DF21660FCF727FF7C
:1041C000CA214DF21760FCF722FF02214DF2186060
:1041D000FCF71DFF00214DF21960FCF718FF0221CA
:1041E0004DF21A60FCF713FF01214DF21B60FCF742
:1041F0000EFF02214DF21C60FCF709FF34214DF245
:104200001D60FCF704FF02214DF21E60FCF7FFFE6B
:1042100067214DF21F60FCF7FAFE02214DF220608B
:10422000FCF7F5FE84214DF22160FCF7F0FE02213F
:104230004DF22260FCF7EBFEA4214DF22360FCF767
:10424000E6FE02214DF22460FCF7E1FEB7214DF2BB
:104250002560FCF7DCFE02214DF22660FCF7D7FE5C
:10426000CF214DF22760FCF7D2FE02214DF22860EB
:10427000FCF7CDFEDE214DF22960FCF7C8FE0221DD
:104280004DF22A60FCF7C3FEF2214DF22B60FCF7E1
:10429000BEFE02214DF22C60FCF7B9FEFE214DF26C
:1042A0002D60FCF7B4FE03214DF22E60FCF7AFFE4B
:1042B00010214DF22F60FCF7AAFE03214DF2306071
:1042C000FCF7A5FE33214DF23160FCF7A0FE03217F
:1042D0004DF23260FCF79BFE6D214DF23360FCF72E
:1042E00096FE55214FF47040FCF791FEAA214FF243
:1042F0000100FCF78CFE52214FF20200FCF787FE12
:1043000008214FF20300FCF782FE00214FF2040067
:10431000FCF77DFECC214FF43140FCF778FE002104
:104320004BF20110FCF773FE05214FF43640FCF709
:104330006EFE70214FF43740FCF769FE70214BF29E
:104340000170FCF764FE01214FF43840FCF75FFE7A
:1043500003214BF60100FCF75AFE03214BF6020045
:10436000FCF755FE03214BF60300FCF750FE02213B
:104370004FF43C40FCF74BFE00214BF60140FCF7AC
:1043800046FE00214BF60240FCF741FED0214FF4DF
:104390004940FCF73CFE02214CF60110FCF737FEC9
:1043A00050214CF60210FCF732FE50214CF603105F
:1043B000FCF72DFE50214CF60410FCF728FE0021DE
:1043C0004FF45450FCF723FE55214FF46850FCF78E
:1043D0001EFE4FF48850FCF7FFFD782001F0D6FD5B
:1043E0004FF42450FCF7F8FD01F05EB9FE488088D8
:1043F00049F2253188427DD147F6F001E520FCF7EE
:1044000006FE4FF480710120FCF701FE4FF4E061DD
:104410000220FCF7FCFD41F230010320FCF7F7FD20
:1044200000210420FCF7F3FD40F202210820FCF7F4
:10443000EEFD00210920FCF7EAFD00210A20FCF72F
:10444000E6FD00210C20FCF7E2FD00210D20FCF729
:10445000DEFD00210F20FCF7DAFD00211020FCF723
:10446000D6FD07211120FCF7D2FD00211220FCF718
:10447000CEFD00211320FCF7CAFD00210720FCF728
:10448000C6FD41F290611020FCF7C1FD40F22721EA
:104490001120FCF7BCFD9D211220FCF7B8FD4FF464
:1044A000C8511320FCF7B3FD25212920FCF7AFFDEF
:1044B0000D212B20FCF7ABFD07213020FCF7A7FDD9
:1044C00040F203313120FCF7A2FD03213220FCF73A
:1044D0009EFD40F206213520FCF799FD082136208B
:1044E000FCF795FD40F206413720FCF790FD4FF4B4
:1044F000417100E058E03820FCF789FD07213920A0
:10450000FCF785FD40F202613C20FCF780FD0821AC
:104510003D20FCF77CFD00215020FCF778FDEF21C9
:104520005120FCF774FD00215220FCF770FD40F291
:104530003F115320FCF76BFD4FF427416020FCF73F
:1045400066FD01216120FCF762FD00216A20FCF775
:104550005EFD00218020FCF75AFD00218120FCF740
:1045600056FD00218220FCF752FD00218320FCF73C
:104570004EFD00218420FCF74AFD00218520FCF738
:1045800046FD10219020FCF742FD4FF4C0619220BF
:10459000FCF73DFD40F233110720FCF738FD2221E6
:1045A0000020FCF734FD1FE78F48808849F228314E
:1045B00088427DD141F28F01EC20FCF728FD41F2C9
:1045C0003421EF20FCF723FD4FF480710120FCF72C
:1045D0001EFD4FF4E0610220FCF719FD41F23001AD
:1045E0000320FCF714FD00210420FCF710FD40F22D
:1045F00002210820FCF70BFD00210920FCF707FD34
:1046000000210A20FCF703FD01210C20FCF7FFFC30
:1046100000210D20FCF7FBFC00210F20FCF7F7FC2C
:1046200000211020FCF7F3FC07211120FCF7EFFC20
:1046300000211220FCF7EBFC00211320FCF7E7FC23
:1046400001210720FCF7E3FC322001F0E7FC41F2F6
:1046500090411020FCF7DBFC40F227211120FCF7F1
:10466000D6FC322001F0DAFC8A211220FCF7CFFCC4
:10467000322001F0D3FC4FF4D0511320FCF7C7FCDB
:1046800006212920FCF7C3FC0D212B20FCF7BFFCE1
:10469000322001F0C3FC00212020FCF7B8FC0021EF
:1046A0002120FCF7B4FC322001F0B8FC002100E02E
:1046B00075E03020FCF7ABFC40F204613120FCF7E0
:1046C000A6FC40F205313220FCF7A1FC0021352088
:1046D000FCF79DFC40F609413620FCF798FC4FF4AE
:1046E00001713720FCF793FC40F201313820FCF7D0
:1046F0008EFC40F207713920FCF789FC00213C2038
:10470000FCF785FC40F60A213D20FCF780FC3220B6
:1047100001F084FC00215020FCF779FCEF215120AE
:10472000FCF775FC00215220FCF771FC40F23F11B0
:104730005320FCF76CFC4FF427416020FCF767FC2A
:1047400001216120FCF763FC00216A20FCF75FFC7B
:1047500000218020FCF75BFC00218120FCF757FC46
:1047600000218220FCF753FC00218320FCF74FFC42
:1047700000218420FCF74BFC00218520FCF747FC3E
:1047800010219020FCF743FC4FF4C0619220FCF70D
:104790003EFC40F233110720FCF739FC24E61248B6
:1047A000808849F2203188427ED100210846FCF7FA
:1047B0002EFC4FF480710120FCF729FC4FF4E061DE
:1047C0000220FCF724FC41F230010320FCF71FFC1F
:1047D00000210420FCF71BFC40F202210820FCF71A
:1047E00016FC0021092001E0C4E80020FCF70FFCC2
:1047F00000210A20FCF70BFC01210C20FCF707FC30
:1048000000210D20FCF703FC00210F20FCF7FFFB2B
:10481000322001F003FC40F201110720FCF7F7FB06
:10482000322001F0FBFB4FF486511020FCF7EFFB28
:1048300007211120FCF7EBFB4FF488711220FCF7E5
:10484000E6FB4FF430611320FCF7E1FB0021292047
:10485000FCF7DDFB44F210012B20FCF7D8FB002114
:104860005020FCF7D4FBEF215120FCF7D0FB0021B6
:104870005220FCF7CCFB40F23F115320FCF7C7FB62
:104880004FF41C516020FCF7C2FB01216120FCF7B2
:10489000BEFB00216A20FCF7BAFB00218020FCF758
:1048A000B6FB0021812000E030E0FCF7B0FB0021E6
:1048B0008220FCF7ACFB00218320FCF7A8FB002141
:1048C0008420FCF7A4FB00218520FCF7A0FB10212D
:1048D0009020FCF79CFB00219220FCF798FB012123
:1048E0009320FCF794FB4FF488719520FCF78FFB25
:1048F00000219720FCF78BFB00219820FCF787FB19
:1049000040F273110720FCF782FB6DE5FE488088BA
:1049100049F2313188427DD141F21401E720FCF7A0
:1049200076FB4FF480710120FCF771FB4FF40071AE
:104930000220FCF76CFB41F238010320FCF767FB17
:1049400040F202210820FCF762FB00210920FCF75D
:104950005EFB00210A20FCF75AFB00210C20FCF72B
:1049600056FB00210D20FCF752FB00210F20FCF725
:104970004EFB00211020FCF74AFB07211120FCF719
:1049800046FB00211220FCF742FB00211320FCF71C
:104990003EFBC82001F042FB41F290611020FCF781
:1049A00036FB40F227211120FCF731FB322001F0C9
:1049B00035FB0C211220FCF72AFB322001F02EFBE4
:1049C0004FF400611320FCF722FB11212920FCF792
:1049D0001EFB0B212B20FCF71AFB322001F01EFBE3
:1049E00000212020FCF713FB40F23F112120FCF7AF
:1049F0000EFB00213020FCF70AFB4FF483713120BD
:104A0000FCF705FB00213220FCF701FB4FF401719C
:104A1000352000E064E0FCF7FAFA41F20A61362042
:104A2000FCF7F5FA40F207713720FCF7F0FA4FF483
:104A300083713820FCF7EBFA40F207713920FCF75C
:104A4000E6FA40F202413C20FCF7E1FA40F60F4161
:104A50003D20FCF7DCFA00215020FCF7D8FAEF21CA
:104A60005120FCF7D4FA00215220FCF7D0FA40F292
:104A70003F115320FCF7CBFA4FF41C516020FCF798
:104A8000C6FA01216120FCF7C2FA00216A20FCF776
:104A9000BEFA00218020FCF7BAFA00218120FCF741
:104AA000B6FA00218220FCF7B2FA00218320FCF73D
:104AB000AEFA00218420FCF7AAFA00218520FCF739
:104AC000A6FA10219020FCF7A2FA4FF4C0619220C0
:104AD000FCF79DFA40F233110720FCF798FA83E4C3
:104AE0008948808845F2084188427DD14FF4807121
:104AF0000120FCF78CFA4FF4E0610220FCF787FA02
:104B000041F230010320FCF782FA00210420FCF777
:104B10007EFA40F207210820FCF779FA00210920EB
:104B2000FCF775FA00210A20FCF771FA00210C202D
:104B3000FCF76DFA00210D20FCF769FA00210F2027
:104B4000FCF765FA142001F069FA41F2B061102017
:104B5000FCF75DFA01211120FCF759FA0121172019
:104B6000FCF755FA4FF49C711220FCF750FA4FF401
:104B700000611320FCF74BFA09212920FCF747FAC2
:104B800009212A20FCF743FA0021A420FCF73FFA70
:104B900000215020FCF73BFAEF215120FCF737FAB7
:104BA00000215220FCF733FA40F23F115320FCF76A
:104BB0002EFA4FF41C516020FCF729FA01216120E4
:104BC000FCF725FA00216A20FCF721FA0021802059
:104BD000FCF71DFA00218120FCF719FA0021822040
:104BE000FCF715FA002100E024E08320FCF70FFA1F
:104BF00000218420FCF70BFA00218520FCF707FA3E
:104C000013219020FCF703FA00219220FCF7FFF912
:104C100003219320FCF7FBF94FF488719520FCF7F2
:104C2000F6F940F273110720FCF7F1F9322001F098
:104C3000F5F9B8E43448808841F2055188427DD1C5
:104C400000210720FCF7E3F9322001F0E7F94FF4E7
:104C50008E711220FCF7DBF90121A420FCF7D7F9B3
:104C60000F210820FCF7D3F908210A20FCF7CFF91F
:104C700008210D20FCF7CBF940F207713020FCF73A
:104C8000C6F907213120FCF7C2F940F20361322056
:104C9000FCF7BDF94FF4E0613320FCF7B8F940F2BE
:104CA00002213420FCF7B3F902213520FCF7AFF9DB
:104CB00041F60F713620FCF7AAF940F20771372050
:104CC000FCF7A5F900213820FCF7A1F900213920D3
:104CD000FCF79DF940F207713A20FCF798F90021A2
:104CE0003B20FCF794F907213C20FCF790F90021C8
:104CF0003D20FCF78CF9322001F090F901210720CA
:104D0000FCF785F9012101E0C4E800201720FCF739
:104D10007EF9322001F082F94FF4BD511020FCF7EA
:104D200076F940F217211120FCF771F94FF48F71D9
:104D30001220FCF76CF94FF4706100E098E013204A
:104D4000FCF765F900212A20FCF761F90A212920E6
:104D5000FCF75DF94FF49F711220FCF758F9002120
:104D60005020FCF754F9EF215120FCF750F90021B5
:104D70005220FCF74CF940F23F115320FCF747F961
:104D80004FF41C516020FCF742F901216120FCF72F
:104D90003EF900216A20FCF73AF900218020FCF757
:104DA00036F900218120FCF732F900218220FCF73E
:104DB0002EF900218320FCF72AF900218420FCF73A
:104DC00026F900218520FCF722F913219020FCF719
:104DD0001EF94FF440719220FCF719F90521932038
:104DE000FCF715F900219520FCF711F90021972017
:104DF000FCF70DF900219820FCF709F94FF48071B8
:104E00000120FCF704F94FF4E0610220FCF7FFF801
:104E100041F238010320FCF7FAF800210420FCF7E6
:104E2000F6F800210C20FCF7F2F800210F20FCF727
:104E3000EEF800212020FCF7EAF800212120FCF701
:104E4000E6F821210720FCF7E2F8142001F0E6F84B
:104E500061210720FCF7DBF8142001F0DFF840F2B5
:104E600073110720FCF7D3F8142001F0D7F895E46C
:104E7000FE4880884BF2055188427CD100210846CB
:104E8000FCF7C5F800210846FCF7C1F800210846E8
:104E9000FCF7BDF800210846FCF7B9F80121A42071
:104EA000FCF7B5F8142001F0B9F84FF41C5160205C
:104EB000FCF7ADF840F202210820FCF7A8F84FF407
:104EC00005713020FCF7A3F843F215713120FCF78F
:104ED0009EF840F204613220FCF799F840F6166122
:104EE0003320FCF794F842F211213420FCF78FF8BC
:104EF0004FF4A8513520FCF78AF848F207513620C4
:104F0000FCF785F841F207413720FCF780F841F2C1
:104F100003413820FCF77BF820213920FCF777F893
:104F20001A219020FCF773F800211020FCF76FF88D
:104F300007211120FCF76BF800211220FCF767F81D
:104F400000211320FCF763F8142001F067F84FF4F8
:104F5000E6611020FCF75BF840F237111120FCF7F6
:104F600056F8142001F05AF84FF4DC711220FCF7C7
:104F70004EF8142000E085E001F050F84FF4706125
:104F80001320FCF744F880212A20FCF740F8482140
:104F90002920FCF73CF8142001F040F84FF4807110
:104FA0000120FCF734F84FF4E0610220FCF72FF801
:104FB00041F238010320FCF72AF840F202210820D0
:104FC000FCF725F800210A20FCF721F800210C202D
:104FD000FCF71DF800210D20FCF719F830210E20F8
:104FE000FCF715F800215020FCF711F8EF215120B3
:104FF000FCF70DF800215220FCF709F840F23F11B0
:105000005320FCF704F84FF41C516020FBF7FFFF1E
:1050100001216120FBF7FBFF00216A20FBF7F7FF6E
:1050200011219020FBF7F3FF4FF4C0619220FBF7B2
:10503000EEFF40F202419320FBF7E9FF02219420AA
:10504000FBF7E5FF142000F0E9FF01210720FBF743
:10505000DEFF142000F0E2FF61210720FBF7D7FFFD
:1050600040F273110720FBF7D2FF00212020FBF74D
:10507000CEFF00212120FBF7CAFF22210020FBF7F1
:10508000C6FF11E3794880884CF2055188427CD1F3
:1050900000210846FBF7BBFF00210846FBF7B7FFDE
:1050A000142000F0BBFF00210846FBF7B0FF0021F1
:1050B0000846FBF7ACFF00210846FBF7A8FF0021DC
:1050C0000846FBF7A4FF0121A420FBF7A0FF142052
:1050D00000F0A4FF4FF41C516020FBF798FF40F64E
:1050E00006010820FBF793FF40F203713020FBF725
:1050F0008EFF01213120FBF78AFF04213220FBF7CC
:1051000086FF4FF481713320FBF781FF4FF440712C
:105110003420FBF77CFF40F203113520FBF777FFCB
:105120001F213620FBF773FF40F203713720FBF796
:105130006EFF01213820FBF76AFF04213920FBF7BD
:1051400066FF15219020FBF762FF4FF4826110206B
:10515000FBF75DFF40F247211120FBF758FF4FF4AA
:10516000DE711220FBF753FF4FF460611320FBF751
:105170004EFF782000F052FF4FF480710120FBF7C2
:1051800046FF4FF40071022000E052E0FBF73FFFC2
:1051900041F230010320FBF73AFF08210A20FBF718
:1051A00036FF00210C20FBF732FF20210E20FBF7F9
:1051B0002EFF00210F20FBF72AFF00212020FBF704
:1051C00026FF00212120FBF722FF3D212A20FBF7AB
:1051D0001EFF142000F022FF2D212920FBF717FFCE
:1051E00000215020FBF713FF4DF2EF015120FBF798
:1051F0000EFF00215220FBF70AFF40F23F1153201F
:10520000FBF705FF00216120FBF701FF00216A2069
:10521000FBF7FDFE4FF440719220FBF7F8FE0521ED
:105220009320FBF7F4FE4FF480710720FBF7EFFEAD
:105230003AE20E48808844F2315188427ED1012101
:105240000020FBF7E4FE0A2000F0E8FE41F22861AE
:105250001020FBF7DCFE0E211220FBF7D8FE40F6F3
:1052600039211320FBF7D3FE0A2001E0C4E8002017
:1052700000F0D4FE40211120FBF7C9FE502115207B
:10528000FBF7C5FE0A2000F0C9FE1E211220FBF725
:10529000BEFE0A2000F0C2FE4FF4B1511020FBF711
:1052A000B6FE42F639211320FBF7B1FE0A2000F0CA
:1052B000B5FE4FF480710120FBF7A9FE4FF4407159
:1052C0000220FBF7A4FE41F238010320FBF79FFE0A
:1052D00040F202210820FBF79AFE08210A20FBF782
:1052E00096FE00213020FBF792FE40F20241312071
:1052F000FBF78DFE4FF483713220FBF788FE40F2FE
:1053000003513320FBF783FE4FF482713420FBF707
:105310007EFE40F201313520FBF779FE40F2077145
:105320003620FBF774FE40F205313720FBF76FFEA5
:105330004FF402713820FBF76AFE00E03EE040F6D1
:105340000B713920FBF763FE02214120FBF75FFE62
:105350004FF41C516020FBF75AFE01216120FBF73E
:1053600056FE4FF404719020FBF751FE4FF4857107
:105370009220FBF74CFE04219320FBF748FE4FF4EC
:105380008071A020FBF743FE01210720FBF73FFEC1
:1053900021210720FBF73BFE23210720FBF737FEE7
:1053A00033210720FBF733FE40F233110720FBF7D0
:1053B0002EFE0021A020FBF72AFE75E1F748808829
:1053C00044F2355188427CD130211520FBF71FFE75
:1053D00010219A20FBF71BFE20211120FBF717FE5E
:1053E00043F228411020FBF712FE02211220FBF7A6
:1053F0000EFE41F238011320FBF709FE282000F0D1
:105400000DFE12210846FBF702FE282000F006FEE2
:1054100043F220411020FBF7FAFD43F2380113203C
:10542000FBF7F5FD462000F0F9FD00213020FBF7E9
:10543000EEFD40F202413120FBF7E9FD40F2073179
:105440003220FBF7E4FD4FF441713320FBF7DFFD21
:1054500004213420FBF7DBFD40F201413520FBF74E
:10546000D6FD40F207713620FBF7D1FD40F2053141
:105470003720FBF7CCFD4FF4C2613820FBF7C7FDA6
:105480004FF4C2613920FBF7C2FD4FF48071012057
:10549000FBF7BDFD4FF440710220FBF7B8FD41F270
:1054A00030010320FBF7B3FD40F608010820FBF7AD
:1054B000AEFD08210A20FBF7AAFD4FF41C51602025
:1054C00000E033E0FBF7A3FD01216120FBF79FFD26
:1054D0004FF49F719020FBF79AFD4FF4807192205A
:1054E000FBF795FD4FF480719320FBF790FD4FF48F
:1054F0004051A020FBF78BFD1021A320FBF787FD77
:1055000001210720FBF783FD21210720FBF77FFD09
:1055100023210720FBF77BFD33210720FBF777FDD5
:1055200040F233110720FBF772FDBDE09B488088F5
:1055300041F663118842F8D1E220FBF74DFD1D20B2
:10554000FBF753FD0220FBF750FD0420FBF74DFD58
:10555000642000F01BFDE020FBF73EFD0120FBF77F
:1055600044FD0A2000F05AFDE020FBF735FD032042
:10557000FBF73BFD0C2000F051FD0120FBF72CFD5B
:105580000A2000F04BFDE620FBF726FD2F20FBF75D
:105590002CFDFF20FBF729FDFF20FBF726FDB020A7
:1055A000FBF71AFD2020FBF720FD0020FBF71DFD77
:1055B0000320FBF71AFD40F21F30FBF716FD012018
:1055C000FBF713FD40F2DF10FBF70FFD0020FBF7A8
:1055D0000CFDB420FBF700FD0420FBF706FD40F2B4
:1055E0001F40FBF702FD0020FBF7FFFC2E20FBF71E
:1055F000FCFC0020FBF7F9FC0020FBF7F6FC002088
:10560000FBF7F3FC0020FBF7F0FCB620FBF7E4FC13
:105610000220FBF7EAFC4FF40370FBF7E6FC0020E6
:10562000FBF7E3FC1720FBF7E0FC1520FBF7DDFCA4
:105630000020FBF7DAFC0020FBF7D7FCF020FBF79B
:10564000CBFC0320FBF7D1FC2920FBF7C5FCD020C5
:10565000FBF7C2FC0020FBF7C8FCBE20FBF7BCFC3C
:105660000520FBF7C2FCFE20FBF7BFFC0120FBF787
:10567000BCFC0020FBF7B9FC0020FBF7B6FC0020C7
:10568000FBF7B3FCB820FBF7A7FC0320FBF7ADFC4E
:105690000120FBF7AAFCBA20FBF79EFC0120FBF7D8
:1056A000A4FC6420FCF70BF90020FCF734F901207E
:1056B0003B4908604FF6FF70FCF71CFB21B000BDB2
:1056C0002DE9FC4F05460E4617469846DDF82C900E
:1056D000002001903148808846F60401884229D193
:1056E0002E488079012825D1AB4635462B480088C5
:1056F000C01B401E86B2474628480088A0EB0B001E
:10570000401E1FFA80F80020244988712A20488111
:105710002B20888143463A4631462846CDF80090F2
:10572000FFF7CEFF01201D4988712B2048812A20D8
:1057300088811DE0781B401C80B20190344615E042
:1057400021462846FBF792FCFBF773FC4FF0000A5A
:1057500007E04FF0D840A0F880900AF101001FFA4E
:1057600080FA01988245F4DB601C84B24445E7DD91
:10577000BDE8FC8F2DE9F84F07460D469046994647
:10578000DDF828B0A8EB0700401C1FFA80FAA9EB4F
:105790000500401C80B20090002418E0C4E80020FE
:1057A000BC824042281981B23846FBF75FFCFBF708
:1057B00040FC002607E004FB0A603BF81000F849B3
:1057C0000880701C86B25645F5DB601C84B20098D8
:1057D0008442E7DBBDE8F88F2DE9FF4F84B08146B6
:1057E0008A460020039002900698A0EB09050798CE
:1057F000A0EB0A06CDF80490CDF800A0002D01DD45
:10580000012705E00DB9002702E04FF0FF376D4298
:10581000002E02DD4FF0010806E016B94FF0000837
:1058200002E04FF0FF387642B54201DD2C4600E041
:1058300034464FF0000B21E0009A91B2019A90B2E9
:10584000FBF76DFF039828440390029830440290C0
:105850000398A04205DD0398001B0390019838448B
:1058600001900298A04205DD0298001B029000986A
:10587000404400900BF101001FFA80FB601C83453F
:10588000DADD08B0BDE8F08FF0B504460D461646E7
:105890001F462B46324629462046FFF79DFF3B46D2
:1058A000224629462046FFF797FF3B4632463946B7
:1058B0002046FFF791FF3B46324629463046FFF728
:1058C0008BFFF0BD2DE9F04306460F4690460024BD
:1058D00045460320A0EB48093CE07A1B91B23219FF
:1058E00090B2FBF71CFF3A1B91B2721990B2FBF712
:1058F00016FF3A1991B2721990B2FBF710FF7A199C
:1059000091B2321990B2FBF70AFF7A1991B2321BA9
:1059100090B2FBF704FF3A1991B2721B90B2FBF7F9
:10592000FEFE7A1B91B2321B90B2FBF7F8FE3A1BD7
:1059300091B2721B90B2FBF7F2FE641CB9F1000F3A
:1059400003DAA000801D814404E0601B80000A305F
:1059500081446D1EAC42C0DDBDE8F0832DE9F84FF7
:1059600080460E4617461C46B3462046E31704EB16
:105970005373DB1021464FEAE47C04EB5C7C4FEA76
:10598000EC0CA4EBCC0CBCF1000F02D04FF0010CDE
:1059900001E04FF0000C6344224604EBD27C4FEA56
:1059A0006C0C03FB0CF3DBB20093A7F12000C7B231
:1059B000002556E00C2C07D107EB4700794901EB95
:1059C000800010F8059013E0102C05D1764800EB0C
:1059D000071010F805900BE0182C07D107EBC70053
:1059E000724901EB800010F8059001E0BDE8F88FE6
:1059F0004FF0000A2FE009F0800030B16C480288B7
:105A000031464046FBF799FE07E00A9828B96948F5
:105A1000028831464046FBF790FE4FEA49604FEA64
:105A20001069701C86B264484088B04200DCDDE733
:105A3000A6EB0B00A0420AD15E4608F101001FFA56
:105A400080F85D480088404500DCCFE706E00AF1B9
:105A5000010000F0FF0ABAF1080FCCDB00BF681CA0
:105A6000C5B200988542A5DB00BFBFE710B502466E
:105A7000012000E050430B00A1F10104E1B2F9D193
:105A800010BD2DE9FF4F81B0074691461E460E9D81
:105A90004FF0000A002439E0301B401EC1B20A203A
:105AA000FFF7E4FFB9FBF0F00A21B0FBF1F201FBD4
:105AB0001208BAF1000F16D1701EA04213DDB8F122
:105AC000000F0ED10020AB4605EBDB71491001FB46
:105AD0000471009088B22B4620220299FFF73EFF06
:105AE00012E04FF0010A0020AB4605EBDB714910D4
:105AF00001FB0471009088B208F13001CAB22B4654
:105B00000299FFF72BFF00BF601CC4B2B442C3DB95
:105B100005B0BDE8F08F2DE9FF4F82B006469246F2
:105B20001F46DDE90F480020019000255CE0781B4E
:105B3000401EC1B20A20FFF799FFBAFBF0F00A211C
:105B4000B0FBF1F201FB1209019840BB781EA8429C
:105B500036DDB9F1000F31D108F0800078B108F0DE
:105B60000100A34604EBDB71491001FB05610090C5
:105B700088B2234630220399FFF7F0FE0EE008F0CA
:105B80000100A34604EBDB71491001FB05610090A5
:105B900088B2234620220399FFF7E0FE22E00FE0BF
:105BA0008000006C8E990008029E0008F2A3000895
:105BB0002000002022000020C4E8002001200190E5
:105BC00008F00100A34604EBDB71491001FB0561FD
:105BD000009088B209F13001CAB223460399FFF759
:105BE000BDFE00BF681CC5B2BD42A0DB06B0BDE86B
:105BF000F08F2DE9F84704460D4690469946DDE9B9
:105C0000096704F0FF0A08EB04001FFA80F809EBAB
:105C100005001FFA80F916E0444502DB5446A81936
:105C200085B24D4500DB14E0002000903A78334601
:105C300029462046FFF792FE304606EBD07104EB72
:105C400061018CB27F1C38787E2802DC38782028ED
:105C5000E2DA00BFBDE8F8871CB50121112001F090
:105C600039F91C20009000208DF8040003208DF8E5
:105C7000050001208DF807006946354800F0A8FBB3
:105C80000120009002208DF807006946314800F09D
:105C90009FFB1CBD10B5044614B101202E490870AD
:105CA0002D480078002837D01021294800F0F2FB59
:105CB00078B10821264800F0EDFB50B104212448BA
:105CC00000F0E8FB28B10121224800F0E3FB0128A5
:105CD00022D10A2000F0A2F900201F4908701021EB
:105CE0001B4800F0D7FB08B9012010BD0821184857
:105CF00000F0D0FB08B90220F7E70421144800F0B7
:105D0000C9FB08B90320F0E70121124800F0C2FBEB
:105D100001281BD10420E8E710210D4800F0BAFB50
:105D2000012813D108210A4800F0B4FB01280DD145
:105D30000421074800F0AEFB012807D101210548E6
:105D400000F0A8FB10B90120034908700020CCE73F
:105D50000010024000000240240000207FB50546EC
:105D60000C460121022001F0FEF80295ADF8044036
:105D70000020ADF80600ADF80C0001A9164801F0AE
:105D8000D4FC01221146144802F070F90121124896
:105D900001F054FD1D208DF8000001208DF8010058
:105DA00003208DF8020001208DF80300684600F002
:105DB0001EFA7FBD10B50121074802F06EF90128D7
:105DC00004D106480078401C0449087001210248AB
:105DD00002F074F910BD000000040040090000202A
:105DE00000B58DB00121084601F074F801210802C8
:105DF00001F0CAF820200B9003208DF8300000201D
:105E00008DF833000BA9514800F0E2FA02F032FAA3
:105E1000002007900A9009904FF48030089007A85E
:105E200002F062FA002001908DF808008DF8090058
:105E30000390059001208DF8180001A9444802F054
:105E400024FA042301220521414802F0A4FA012189
:105E50003F4802F060FA0DB000BD10B504460723BC
:105E6000012221463A4802F096FA394802F0EFFA48
:105E700000BF0221364802F00BFC0028F9D034485C
:105E800002F021FB10BD2DE9F04107460C4600252C
:105E9000002608E03846FFF7E0FF0544052000F043
:105EA000BDF8701CC6B2A642F4DBB5FBF4F080B2BC
:105EB000BDE8F08100B585B00121084601F053F836
:105EC0004FF0804001F084FB192003904E20ADF884
:105ED00008000020ADF81000ADF80A0002A94FF04C
:105EE000804001F022FC4FF40070009001208DF8FA
:105EF000040003208DF8050000208DF80600012025
:105F00008DF807006946134800F062FA01218807FE
:105F100002F0C0F801221146900702F0A7F8002114
:105F20004FF0804001F08AFC05B000BD08B51C2090
:105F30008DF8000000208DF8010001208DF802008E
:105F40008DF80300684600F052F908BD00000240D9
:105F5000002001400014024010B504466FF0040018
:105F600000F092F9E11704EB5171C1F3C701394A0E
:105F700011701046007800EB4001C1EBC0104FF6E5
:105F8000FF7101EAC0003449088010BD0146314A62
:105F900012784A434FF0E0235A6100229A611A4670
:105FA000126942F001021A6100BF4FF0E02210694D
:105FB00000F001021AB100F48032002AF5D04FF04F
:105FC000E022126922F001024FF0E0231A61002260
:105FD0009A6170470146204A12884A434FF0E023F5
:105FE0005A6100229A611A46126942F001021A614E
:105FF00000BF4FF0E022106900F001021AB100F476
:106000008032002AF5D04FF0E022126922F001021E
:106010004FF0E0231A6100229A61704770B5044680
:106020004FF4077094FBF0F0C6B24FF4077094FB86
:10603000F0F100FB114085B205E04FF40770FFF767
:10604000C9FF701EC6B2002EF7D115B12846FFF762
:10605000C1FF70BD260000202800002000BF70474F
:1060600000BF4C4A128802F04002002AF9D0C2B2A6
:10607000484B9A80704710B588B004460121084605
:1060800000F028FF0121102000F07EFF07220921E7
:10609000414800F028FA07220A213F4800F023FA7D
:1060A0004FF4C060069002208DF81C008DF81D0092
:1060B00000208DF81E0001208DF81F0006A936482B
:1060C00000F086F902940020ADF80C00ADF80E0047
:1060D000ADF81000ADF814000C20ADF8120002A9C4
:1060E0002C4801F0B2F801212A4801F036F90122CA
:1060F00040F22551274801F0E6F925208DF80400EB
:1061000003208DF805008DF8060001208DF80700AA
:1061100001A800F06CF808B010BD10B540F2255190
:106120001C4801F00BFA10B31A4801F045F9C4B24B
:106130001A48008800F40040C8B91848008800F4E4
:10614000804060B10A2C03D000201449088020E070
:106150001248008840F400401049088019E00D2CD6
:1061600006D10E48008840F480400C49088010E0B9
:106170000A480088C0F30D0009490C5407480088FC
:10618000401C0649088008460088C72801DD002019
:10619000088010BD001001400000024030000020C7
:1061A000D2E800200948804709480047FEE7FEE79B
:1061B000FEE7FEE7FEE7FEE7FEE7FEE7FEE7FEE7B7
:1061C00004480549054A064B70470000650E000863
:1061D0008901000800EA002000F0002000EC002007
:1061E00000EC002032490143324A1160704770B51B
:1061F000002100230F22C4781CB32E4C246804F421
:10620000E064C4F5E064C4F30721C1F10404E3B21F
:106210000A4144789C40E1B28478144021430C0741
:10622000210E254C05786155047804F01F050124E2
:10623000AC4005786D11AD0005F1E025C5F80041D1
:1062400009E0047804F01F050124AC401B4D0678DA
:10625000761145F8264070BD194A0A400243154B95
:106260001B1F1A60704739B1124A121D126802438F
:10627000104B1B1D1A6006E00E4A121D1268824365
:106280000C4B1B1D1A607047042808D14FF0E02109
:10629000096941F004014FF0E022116107E04FF07D
:1062A000E021096921F004014FF0E02211617047FB
:1062B0000000FA050CED00E000E400E080E100E001
:1062C00080FFFF1F10B504469848844208D1012181
:1062D000084600F06AFE0021012000F066FE76E02C
:1062E0009348844208D10121022000F05EFE002183
:1062F000022000F05AFE6AE08E48844208D1012153
:10630000042000F052FE0021042000F04EFE5EE06A
:106310008948844208D10121082000F046FE00216E
:10632000082000F042FE52E08448844208D1012156
:10633000102000F03AFE0021102000F036FE46E06A
:106340007F48844208D10121202000F02EFE002148
:10635000202000F02AFE3AE07A48844208D1012148
:10636000402000F022FE0021402000F01EFE2EE022
:106370007548844208D10121802000F016FE0021DA
:10638000802000F012FE22E07048844208D10121F2
:10639000801500F00AFE0021A01500F006FE16E0B0
:1063A0006B48844208D10121401500F0FEFD002118
:1063B000601500F0FAFD0AE06648844207D1012129
:1063C000001500F0F2FD0021201500F0EEFD10BDDB
:1063D000F0B50A4600210023002400BF3DE001255E
:1063E00005FA01F3156805EA03049C4234D10568F7
:1063F0004F000326BE40B543056015794E00B540F9
:106400000668354305601579012D02D01579022DF6
:1064100016D185684F000326BE40B5438560557987
:106420004E00B540866835438560456801268E403C
:10643000B5434560456896798E40B6B235434560B0
:10644000C5684F000326BE40B543C560D5794E00F0
:10645000B540C6683543C560491C1029BFD3F0BD9F
:106460004FF6FF7101600021017141718171C171AD
:10647000704708B54FF480320092009A0A430092A8
:10648000009AC261C161009AC261C2690092C26988
:10649000009208BD0246002013690B400BB1012099
:1064A00000E0002070470146086980B2704702464C
:1064B000002053690B400BB1012000E00020704721
:1064C0000146486980B27047018370474183704735
:1064D0000AB1018300E0418370474161704742691E
:1064E0004A4042617047F0B5002300244D07ED0E8D
:1064F00002FA05F3CE1000F1200555F826504E079C
:10650000F70E0F26BE40B543CF1000F1200646F827
:106510002750CE1000F1200555F8265045EA030417
:10652000CE1000F1200545F82640F0BD00000240E5
:106530000004024000080240000C0240001002402B
:106540000014024000180240001C024000200240DB
:10655000002402400028024030B943F2DB028100EF
:10656000A1F1C0410A6005E043F2D2028100A1F12D
:10657000C0410A606FF07042411C8900A1F1C04126
:106580000A608100A1F1C041C1F804217047D0E93F
:1065900001121143C2681143026911434269114358
:1065A00082691143C2691143026A1143426A11436D
:1065B000826A1143C26A1143026B1143026892005E
:1065C000A2F1C0421160816808290BD101688900DD
:1065D000A1F1C041096841F0400201688900A1F1C0
:1065E000C0410A60416B0968426B526841EA02117E
:1065F000426B926841EA0221426B928941EA024170
:10660000426B128A41EA0251426B127D41EA0261F9
:10661000426B926911430268521C9200A2F1C0427F
:106620001160C16AB1F5804F1BD1816B0968826B23
:10663000526841EA0211826B926841EA0221826B40
:10664000128A41EA0251826B127D41EA0261826B39
:106650009269114302689200A2F1C042C2F804118B
:1066600007E06FF0704201688900A1F1C041C1F8F4
:1066700004217047002101600221416000218160F6
:10668000C160016141618161C16101624FF480516A
:106690004162490081620021C1620163F84941639E
:1066A0008163704751B18200A2F1C042126842F08A
:1066B00001038200A2F1C042136009E08200A2F14E
:1066C000C0421268EF4B1A408300A3F1C0431A6026
:1066D000704710280AD118214FF02042116640213E
:1066E00051664FF0FC319166D16610E01821E64A00
:1066F000116040214FF02042C2F884104FF0FC316D
:10670000E14A083211604FF02042C2F88C10704705
:1067100030B5002100220023446844F00804856855
:106720002C43C5682C4305692C43456944EA45243C
:10673000856944EA4531C4692468C5696D6844EADD
:106740000524C5692D8944EA0544C5692D7B44EAC1
:106750000562046A2468056A6D6844EA0524056ACE
:106760002D8944EA0544056A2D7B44EA05630468E3
:10677000102C05D14FF020442166A266E36608E0A4
:10678000C14C21604FF02044C4F88820BE4C0C342A
:10679000236030BD10210160002141608160C16033
:1067A000016141618161FC21C2691160C26951606E
:1067B000C2699160C269D160026A1160026A516067
:1067C000026A9160026AD160704799B1102808D1BD
:1067D0004FF02042126E42F004024FF020431A663E
:1067E0001DE0A94A126842F004024FF02043C3F8AA
:1067F000802014E0102809D14FF02042126EA14BE6
:10680000DB1E1A404FF020431A6608E09E4A1268C9
:106810009C4BDB1E1A404FF02043C3F8802070478A
:1068200099B1102808D14FF02042126E42F0400278
:106830004FF020431A661DE0934A126842F040026E
:106840004FF02043C3F8802014E0102809D14FF006
:106850002042126E8B4B3F3B1A404FF020431A668A
:1068600008E0894A1268874B3F3B1A404FF02043AB
:10687000C3F88020704701460020102903D14FF053
:106880002042506F02E0804A14321068704718208E
:106890007D492031086000200906C1F8A4004FF0AE
:1068A000FC30794928310860091D0860091D08601D
:1068B0007047016841F01001426841EA4221826854
:1068C00041EA4231704A20321160C1680968C268E9
:1068D000526841EA0221C268128941EA0241C26853
:1068E000127B41EA0261684A283211600169096835
:1068F0000269526841EA02210269128941EA0241B1
:106900000269127B41EA02615F4A2C3211604169DF
:1069100009684269526841EA02214269128941EAE2
:1069200002414269127B41EA02614FF02042C2F803
:10693000B01070470021016041608160FC21C26895
:106940001160C2685160C2689160C268D16002691A
:10695000116002695160026991600269D160426907
:10696000116042695160426991604269D16070472B
:1069700048B145492031096841F004014FF02042F7
:10698000C2F8A01009E04049203109683D4AD21EF2
:1069900011404FF02042C2F8A010704710B5F2B17C
:1069A000102807D14FF020435B6E0B434FF020447B
:1069B000636632E0B0F5807F08D1334B1B1D1B6846
:1069C0000B434FF02044C4F8843026E02E4B243390
:1069D0001B680B434FF02044C4F8A4301DE010287E
:1069E00007D14FF020435B6E8B434FF0204463662A
:1069F00013E0B0F5807F08D1234B1B1D1B688B4330
:106A00004FF02044C4F8843007E01F4B24331B6848
:106A10008B434FF02044C4F8A43010BD10B502469B
:106A200000200023102A03D14FF02044636E09E0B8
:106A3000B2F5807F03D1144C241D236802E0124C70
:106A40002434236803EA01040CB1012000E0002093
:106A500010BD102807D14FF02042526E8A434FF0EC
:106A600020435A6619E0B0F5807F0FD1064A121D07
:106A700012688A434FF02043C3F884200DE00000E1
:106A800050B10008FEFF0F00800000A0234A1268EA
:106A90008A434FF02043C3F8A420704770B50246E4
:106AA0000020002300240025102A03D14FF02046A7
:106AB000736E08E0B2F5807F03D1184E203E336834
:106AC00001E0164E336803EA010403EAD10514B16C
:106AD0000DB1012000E0002070BD102808D14FF05A
:106AE0002042526E22EAD1024FF020435A6614E04F
:106AF000B0F5807F09D1094A203A126822EAD10212
:106B00004FF02043C3F8842007E0044A126822EAC9
:106B1000D1024FF02043C3F8A4207047A40000A086
:106B2000F948006840F00100F74908600020F64984
:106B300008310860F4480068F4490840F2490860E8
:106B4000F348091D0860F348EF4984310860F048B4
:106B50001038091D0860EC48006820F48020EA49DC
:106B600008600020E8490C310860E7498C31086072
:106B700070470021E44A921C11701146087070475A
:106B800010B501460022002300204A11012A02D13B
:106B9000DD4C236808E0022A03D1DB4C7034236803
:106BA00002E0D94C7434236801F01F0201249440A0
:106BB0001C400CB1012000E0002010BD38B50020C1
:106BC00000900024002500BF3120FFF7D9FF0546C3
:106BD0000098401C00900098B0F5A04F01D0002D07
:106BE000F2D03120FFF7CCFF08B1012400E00024EF
:106BF000204638BD01460020C34A106820F0F80046
:106C000040EAC10010607047C34908607047002126
:106C1000BD4A703211701170012802D004280AD1C7
:106C200004E00121B84A7032117005E00521B64A2E
:106C30007032117000E000BF00BF7047B7490860B4
:106C4000704770B5049C41EA82150126C6EB5306D5
:106C500045EA0645054345EA0465AB4E361D3560F9
:106C600070BDAD4908667047820142EA0172A64BC9
:106C700084331A607047A8498866704710B583014D
:106C800043EA016343EA02739F4C8834236010BDDA
:106C9000A14908677047A049C864704702460020B0
:106CA000994B0833186820F0EC6042EA010318435E
:106CB000954B08331860704702460020924B08330A
:106CC000186820F0784042EA010318438E4B0833DD
:106CD00018607047014600208B4A0832106820F087
:106CE000030008431060704787480830006800F0D0
:106CF0000C00704701460020834A0832106820F0DB
:106D0000F000084310607047014600207E4A0832B8
:106D1000106820F4E05008431060704701460020DE
:106D2000794A0832106820F4604040EAC1001060DF
:106D30007047F0B50021002200240225002602231E
:106D4000714F08373F6807F00C0121B1042905D0C5
:106D5000082937D105E0724F076036E0714F0760B0
:106D600033E0694F3F1D3F68C7F38056664F3F1DB4
:106D70003F6807F03F036EB16A4FB7FBF3F7DFF8E8
:106D800088C10CF1040CDCF800C0CCF3881C07FBB4
:106D90000CF40CE0624FB7FBF3F7DFF86CC10CF1B9
:106DA000040CDCF800C0CCF3881C07FB0CF4564F35
:106DB0003F1D3F68C7F301477F1C7D00B4FBF5F71B
:106DC000076002E0564F076000BF00BF4E4F083714
:106DD0003F6807F0F0010909534F7A5C0768D74014
:106DE0004760494F08373F6807F4E051890A4E4F22
:106DF0007A5C4768D7408760434F08373F6807F49D
:106E00006041490B484F7A5C4768D740C760F0BD86
:106E1000002100F44072B2F5407F0AD13A4A0832AC
:106E2000116821F4F811414A02401143364A0832F0
:106E30001160354A70321268C0F30B031A43324BAB
:106E400070331A60704735494439086070473349D8
:106E50004039086070473649086070470146002095
:106E6000294A8C32106820F01F004A1E1043264A1F
:106E70008C321060704701460020234A8C32106823
:106E800020F4F8504A1E40EA02201F4A8C3210605B
:106E90007047014600201C4A8C32106820F44010D4
:106EA00008431060704701460020174A8C32106872
:106EB00020F4400008431060704701460020124A49
:106EC0008C32106820F44030084310607047194934
:106ED0000860704739B10C4A3032126802430A4BDD
:106EE00030331A6006E0084A303212688243064B9B
:106EF00030331A607047F9B1034A343212680243E2
:106F0000014B34331A601CE000380240FFFFF6EA00
:106F1000103000240030002000004742800E47421D
:106F20000024F40000127A0032000020FFFCFF0F62
:106F30005C014742E01147428F4A126882438E4B00
:106F40001A60704739B18C4A121D126802438A4B8D
:106F50001B1D1A6006E0884A121D12688243864B88
:106F60001B1D1A60704739B1834A0C321268024304
:106F7000814B0C331A6006E07F4A0C321268824360
:106F80007D4B0C331A60704739B17B4A103212685E
:106F90000243794B10331A6006E0774A10321268C8
:106FA0008243754B10331A60704739B1724A243AE4
:106FB00012680243704B243B1A6006E06E4A243A82
:106FC000126882436C4B243B1A60704739B16A4A9D
:106FD000203A12680243684B203B1A6006E0664A7A
:106FE000203A12688243644B203B1A60704739B1E3
:106FF000614A1C3A126802435F4B1C3B1A6006E070
:107000005D4A1C3A126882435B4B1C3B1A60704716
:1070100039B1594A143A12680243574B143B1A606B
:1070200006E0554A143A12688243534B143B1A60E7
:10703000704739B1504A103A126802434E4B103B28
:107040001A6006E04C4A103A126882434A4B103BE1
:107050001A60704739B1484A1C3212680243464BE5
:107060001C331A6006E0444A1C3212688243424BC9
:107070001C331A60704739B13F4A2032126802430C
:107080003D4B20331A6006E03B4A203212688243AF
:10709000394B20331A60704739B1374A24321268AD
:1070A0000243354B24331A6006E0334A2432126817
:1070B0008243314B24331A60704739B12E4A2C3247
:1070C000126802432C4B2C331A6006E02A4A2C32F9
:1070D00012688243284B2C331A60704739B1264A14
:1070E000303212680243244B30331A6006E0224AE1
:1070F000303212688243204B30331A6070470128C7
:1071000008D11D493C31096841F008011A4A3C3256
:10711000116007E018493C31096821F00801164A5E
:107120003C321160704739B1134A273A1278024352
:10713000114B273B1A7006E00F4A273A1278824318
:107140000D4B273B1A7070470B484030006840F0E9
:107150008070094940310860704701460020064AA6
:10716000283A12680A400AB1012000E00020704766
:1071700001492639087070473438024010B504467A
:10718000FA48844208D101211020FFF752FF002164
:107190001020FFF74EFF57E0F548844209D1012146
:1071A0004804FFF735FF00214FF40030FFF730FFB0
:1071B0004AE0F048844209D101218804FFF728FF02
:1071C00000214FF48020FFF723FF3DE0EA4884428E
:1071D00009D10121C804FFF71BFF00214FF4002053
:1071E000FFF716FF30E0E548844209D10121080588
:1071F000FFF70EFF00214FF48010FFF709FF23E097
:10720000DF48844208D101212020FFF712FF00212E
:107210002020FFF70EFF17E0DA48844209D1012150
:107220008807FFF7F5FE00214FF08040FFF7F0FEE2
:107230000AE0D548844207D101214005FFF7E8FE66
:1072400000216005FFF7E4FE10BD2DE9FF4705466C
:107250000E460024A14600BFA046B08900B100BF81
:107260002C8A24F44054F08804432C82AC8941F2E7
:107270000C608443B0883189084371890843044312
:10728000AC81AC8A24F44074B0890443AC82684673
:10729000FFF74FFDB548854202D0B948854202D17B
:1072A000DDF80C9001E0DDF80890A88900F40040BA
:1072B00040B109EBC90000EB091031684900B0FB8F
:1072C000F1F707E009EBC90000EB0910316889000C
:1072D000B0FBF1F76420B7FBF0F004012009642152
:1072E00001FB1078A88900F4004040B1322000EB87
:1072F000C800B0FBF1F000F00700044308E03220C2
:1073000000EB08106421B0FBF1F000F00F00044323
:107310002C81BDE8FF874FF4165101600021818068
:10732000C18001810C21418100218181704710B50C
:1073300002460020108A20F470600B884C8823439A
:107340008C882343CC8823431843108210BD00212E
:10735000018041808180C180704721B1828942F4DF
:107360000052828104E082894DF6FF731A408281C7
:107370007047028B02F47F420283028B0A4302832E
:10738000704721B1828942F40042828103E0828900
:10739000C2F30E028281704721B1828A42F40062F8
:1073A000828204E0828A4FF2FF731A408282704721
:1073B000C1F308028280704701468888C0F3080044
:1073C0007047028A4FF6F0731A400282028A0A431B
:1073D0000282704721B1828942F00202828104E078
:1073E00082894FF6FD731A408281704782894FF27D
:1073F000FF731A40828182890A4382817047028A20
:107400004FF6DF731A400282028A0A4302827047F3
:1074100021B1028A42F48042028204E0028A4BF6E1
:10742000FF731A4002827047818941F00101818116
:10743000704721B1828A42F00802828204E0828A87
:107440004FF6F7731A4082827047028BD2B20283E2
:10745000028B42EA01220283704721B1828A42F004
:107460002002828204E0828A4FF6DF731A40828211
:10747000704721B1828A42F01002828204E0828A3F
:107480004FF6EF731A4082827047828A4FF6FB7381
:107490001A408282828A0A438282704721B1828A9C
:1074A00042F00202828204E0828A4FF6FD731A40A3
:1074B000828270471AB1838A0B43838202E0838AF7
:1074C0008B4383827047F0B50346002400260025D5
:1074D000002040F66A17B94200D100BF1846C1F338
:1074E000421401F01F06012707FA06F5012C01D10D
:1074F0000C3004E0022C01D1103000E014301AB13D
:1075000007682F43076002E00768AF430760F0BDDC
:1075100002460020B1F5007F00D100BF13880B4068
:107520000BB1012000E00020704701F40072B2F5B9
:10753000007F00D100BFCA430280704770B5024689
:10754000002400230025002040F66A16B14200D135
:1075500000BFC1F3421501F01F03012606FA03F331
:10756000012D13D19689334017E00000001001402F
:107570000044004000480040004C004000500040E3
:107580000014014000780040007C0040022D02D130
:10759000168A334001E0968A33400C12012606FA1F
:1075A00004F41688344013B10CB1012000E000202F
:1075B00070BD10B50022002340F66A14A14200D12C
:1075C00000BF0A1201249440A3B2DC43048010BD22
:1075D00010B50446FE48844208D101210846FFF751
:1075E00028FD00210120FFF724FD9DE0B4F1804F2C
:1075F00008D101210846FFF70BFD00210120FFF70C
:1076000007FD91E0F348844208D101210220FFF7F1
:10761000FFFC00210220FFF7FBFC85E0EE488442DE
:1076200008D101210420FFF7F3FC00210420FFF71B
:10763000EFFC79E0E948844208D101210820FFF7F6
:10764000E7FC00210820FFF7E3FC6DE0E4488442FA
:1076500008D101211020FFF7DBFC00211020FFF7EB
:10766000D7FC61E0DF48844208D101212020FFF7E8
:10767000CFFC00212020FFF7CBFC55E0DA48844204
:1076800008D101210220FFF7D4FC00210220FFF7DE
:10769000D0FC49E0D548844209D101210804FFF714
:1076A000C8FC00214FF48030FFF7C3FC3CE0D04819
:1076B000844209D101214804FFF7BBFC00214FF4AB
:1076C0000030FFF7B6FC2FE0CA48844209D10121FF
:1076D0008804FFF7AEFC00214FF48020FFF7A9FCDF
:1076E00022E0C548844208D101214020FFF790FCE8
:1076F00000214020FFF78CFC16E0C048844208D1EE
:1077000001218020FFF784FC00218020FFF780FC0E
:107710000AE0BB48844207D101218015FFF778FCBD
:107720000021A015FFF774FC10BD00220288A84BB1
:1077300098420ED0AC4B98420BD0B0F1804F08D09D
:10774000A44B984205D0A44B984202D0A34B984238
:1077500004D14FF68F731A404B881A43A04B9842BE
:1077600007D0A04B984204D04FF6FF431A400B8934
:107770001A4302804B68C3620B880385944B98427E
:1077800002D0994B984201D18B7A038601238382E0
:1077900070474FF0FF31416000210180018141803D
:1077A000817270470185828270470A4600210188F4
:1077B0004FF68F7319401143018070474162704743
:1077C000C16270470146486A70470146088D70479C
:1077D00021B1028842F00202028004E002884FF6E2
:1077E000FD731A400280704721B1028842F0040202
:1077F000028004E002884FF6FB731A400280704753
:1078000021B1028842F08002028004E002884FF633
:107810007F731A400280704702884FF6F7731A4050
:10782000028002880A430280704702884FF6FF43B5
:107830001A40028002880A430280704721B1028800
:1078400042F00102028004E002884FF6FE731A4003
:107850000280704770B5002400220023058C4FF68B
:10786000FE7635400584028C8388048B4FF68F7535
:107870002C40B51E2C400D882C43751E2A408D8946
:107880002A434D882A43524DA84202D0564DA84261
:1078900013D14FF6F7752A40CD892A434FF6FB7571
:1078A0002A408D882A434FF6FF652B404FF6FF553F
:1078B0002B400D8A2B434D8A2B43838004838D6894
:1078C0004563028470BD70B5002400220023058C3E
:1078D0004FF6EF7635400584028C8388048B48F69A
:1078E000FF752C404FF6FF452C400D884FF6FF7674
:1078F00006EA05252C434FF6DF752A408D8906EAF6
:1079000005152A434D8806EA05152A43304DA8423D
:1079100002D0354DA8421DD14FF67F752A40CD8942
:107920004FF6FF7606EA05152A434FF6BF752A4043
:107930008D8806EA05152A434FF6FF352B404FF296
:10794000FF752B400D8A06EA85052B434D8A06EA12
:1079500085052B43838004838D688563028470BD15
:1079600070B5002400220023058C4FF6FF663540D9
:107970000584028C8388848B4FF68F752C404FF6DC
:10798000FC752C400D882C434FF6FF552A408D89FD
:107990004FF6FF7606EA05252A434D8806EA0525B7
:1079A0002A430B4DA84202D00F4DA84238D14FF2C6
:1079B000FF752A40CD894FF6FF7606EA05252A4352
:1079C0004FF6FF352A408D8806EA05252A4319E03F
:1079D000000001400004004000080040000C00408E
:1079E000001000400014004000040140004001402D
:1079F000004401400048014000180040001C0040C5
:107A0000002000404EF6FF752B404DF6FF752B40D1
:107A10000D8A06EA05152B434D8A06EA05152B4308
:107A2000838084838D68C563028470BD70B5002235
:107A300000230024058C4EF6FF7635400584038C28
:107A40008488828B48F6FF752A404FF6FF452A400E
:107A50000D884FF6FF7606EA05252A434DF6FF7599
:107A60002B408D8906EA05352B434D8806EA0535FE
:107A70002B43FE4DA84202D0FD4DA84208D14BF643
:107A8000FF752C400D8A4FF6FF7606EA85152C43CC
:107A9000848082838D680564038470BD0021018029
:107AA0004180818081608181C181018241827047F2
:107AB00070B50346002000241846183001258D407B
:107AC000ACB21D8CA5431D8409B108290AD100EB75
:107AD000610005684FF68F763540056005681543EF
:107AE00005600FE00D1FC5F34E052844056848F6F4
:107AF000FF763540056005684FF6FF7606EA0226F8
:107B00003543056070BD4163704781637047C16351
:107B10007047016470470A460021018B4FF68F734E
:107B200019401143018370470A460021018B48F632
:107B3000FF7319404FF6FF7303EA022319430183D1
:107B400070470A460021818B4FF68F73194011430D
:107B5000818370470A460021818B48F6FF731940E4
:107B60004FF6FF7303EA02231943818370470A46E5
:107B70000021018B4FF6F7731940114301837047C1
:107B80000A460021018B4FF2FF7319404FF6FF7335
:107B900003EA02231943018370470A460021818BBF
:107BA0004FF6F77319401143818370470A4600214D
:107BB000818B4FF2FF7319404FF6FF7303EA0223E4
:107BC0001943818370470A460021018B4FF6FB73EE
:107BD00019401143018370470A460021018B4FF67B
:107BE000FF3319404FF6FF7303EA02231943018361
:107BF00070470A460021818B4FF6FB7319401143F1
:107C0000818370470A460021818B4FF6FF3319406C
:107C10004FF6FF7303EA02231943818370470A4634
:107C20000021018B4FF67F73194011430183704788
:107C30000A460021018BC1F30E014FF6FF7303EAE0
:107C400002231943018370470A460021818B4FF6B6
:107C50007F7319401143818370470A460021818B4D
:107C6000C1F30E014FF6FF7303EA02231943818328
:107C700070470A460021018C4FF6FD7319401143ED
:107C8000018470470A460021018C4FF6F7731940B2
:107C90001143018470470A460021018C4FF6DF73BF
:107CA00019404FF6FF7303EA02131943018470472A
:107CB0000A460021018C4FF67F7319404FF6FF737F
:107CC00003EA02131943018470470A460021018C1C
:107CD0004FF6FF5319404FF6FF7303EA022319438F
:107CE000018470470A460021018C4FF2FF7319404E
:107CF0004FF6FF7303EA02231943018470470A46D3
:107D00000021018C4DF6FF7319404FF6FF7303EA13
:107D1000023319430184704730B5002301248C409D
:107D2000A3B2048C9C430484048C02FA01F5ADB226
:107D30002C43048430BD30B5002304248C40A3B20E
:107D4000048C9C430484048C02FA01F5ADB22C43EC
:107D5000048430BD828B4FF2FF331A408283828BC2
:107D60004FF6FF7303EA01231A4382837047F0B58D
:107D70000C461546002100220026078C4EF6FF7C9B
:107D800007EA0C070784818B028C4FF6FF7707EA1E
:107D9000043640F6FF4739404FF6FF7707EA0527DC
:107DA00039434FF6FF7707EA0337394345F6FF7744
:107DB0003A4046F480573A4381830284F0BD828B77
:107DC0004FF6F3731A408283828B0A438283704793
:107DD000F0B50C461546002100220026078C4FF610
:107DE000FF6C07EA0C070784818B028C4FF6FF7744
:107DF00007EA04264FF60C7739404FF6FF7707EA7B
:107E000003172F4339434FF2FF573A4046F4807728
:107E10003A4381830284F0BD028B4FF2FF331A4054
:107E20000283028B4FF6FF7303EA01231A43028396
:107E30007047F0B50C461546002100220026078C3D
:107E40004FF6EF7C07EA0C070784018B028C4FF694
:107E5000FF7707EA041640F6FF4739404FF6FF77F1
:107E600007EA033739434FF6FF7703E0000001408C
:107E70000004014007EA052739434FF65F773A408F
:107E800046F010073A4301830284F0BD028B4FF69F
:107E9000F3731A400283028B0A4302837047F0B5E2
:107EA0000C46154600210022068C4FF6FE773E4018
:107EB0000684018B028C4FF60C7631407E1C06EA5C
:107EC00003162E4331434FF6F576324044F0010657
:107ED000324301830284F0BD70B505460C4620880C
:107EE00050B92389A28861882846FFF7D8FFE18826
:107EF0002846FFF7CBFF25E0208804280AD12389F4
:107F0000A28861882846FFF794FFE1882846FFF79A
:107F100083FF17E0208808280AD12389A288618876
:107F20002846FFF755FFE1882846FFF748FF09E09C
:107F30002389A28861882846FFF719FFE18828462F
:107F4000FFF708FF70BD0021018041800121818081
:107F50000021C180018170472DE9F04105460C46A2
:107F600000260127608808B9022600E00026A088C4
:107F7000012801D1022700E001272088A0B9238928
:107F8000A28861882846FFF78AFFE1882846FFF724
:107F90007DFF23893A4631462846FFF74AFFE188AC
:107FA0002846FFF739FF13E02389A2886188284615
:107FB000FFF73FFFE1882846FFF72EFF23893A4667
:107FC00031462846FFF76BFFE1882846FFF75EFF42
:107FD000BDE8F0810146486B70470146886B7047E9
:107FE0000146C86B70470146086C70470A884B8889
:107FF0001A438B881A43CB881A430B891A434B893F
:108000001A438B891A43A0F844207047002101804D
:1080100041808180C180018141818181704731B17E
:10802000B0F8442042F40042A0F8442005E0B0F843
:108030004420C2F30E02A0F84420704721B1828888
:1080400042F00402828004E082884FF6FB731A40FB
:108050008280704721B1828842F00102828004E070
:1080600082884FF6FE731A40828070471AB1838966
:108070000B43838102E083898B4383817047818234
:10808000704702460020138A0B400BB1012000E02C
:1080900000207047CA430282704730B50246002074
:1080A00000230024158A05EA0103958905EA0104E5
:1080B00013B10CB1012000E0002030BDCA430282A0
:1080C000704741EA0203A0F8483070471AB183892B
:1080D0000B43838102E083898B438381704721B105
:1080E000828842F00802828004E082884FF6F773AB
:1080F0001A408280704701894FF6F8721140018161
:1081000070470A46002101894FF68F7319401143C9
:108110000181704730B504460D4629462046FFF7D9
:10812000F0FF208940F00700208130BD2DE9F041AB
:1081300004460D4616461F46602D06D13B460122D9
:1081400031462046FFF775FE05E03B4601223146E9
:108150002046FFF7A4FE29462046FFF7D2FF2089DC
:1081600040F007002081BDE8F08130B50C460021C9
:108170000189C9B24FF6FF7505EA0325154325436A
:108180002943018130BD2DE9F04105460E461746D1
:108190009846002443463A4631462846FFF7E5FF15
:1081A0002C894FF6F870044044F007044FF68F70A6
:1081B000044044F070042C81BDE8F081F0B5044621
:1081C0000D4616461F463B46324629462046FFF7D7
:1081D000CCFF208940F480402081F0BD82884FF69A
:1081E0008F731A40828082880A4382807047028996
:1081F0004FF6F8731A40028102890A4302817047E0
:1082000002894FF67F731A40028102890A43028174
:108210007047F0B50C4615461E460021002200238B
:108220000189028B038C4FF6F877394021434FF6D2
:10823000FC473A4040F201173A434FF6DD773B40A6
:108240004FF6FF7707EA06172F433B43018102836E
:108250000384F0BD21B1828842F08002828004E074
:1082600082884FF67F731A4082807047A0F85010C2
:108270007047000010B501210802FEF7DAFE002168
:108280004FF48070FEF7D5FE10BD30B502460020D9
:1082900000235068F84C20400D790C6844EA05240E
:1082A000204350609068F54C2040D1E903542C43A2
:1082B0008D682C434D7944EA450420439060D06A90
:1082C00020F470000C7D641EE4B2234340EA0350A6
:1082D000D06230BD00210160017141718160C160D7
:1082E00001610121017570470021E54A1168E54AE5
:1082F0001140D0E900231A4383681A43C3681A4324
:108300001143E14AC2F80413704700210160416043
:108310008160C160704721B1826842F001028260D1
:1083200003E0826822F00102826070470A46002161
:108330004168D64B194011434160704741628262E7
:1083400070470A460021416821F01F011143416036
:10835000704738B1CA49096841F40001CA4AC2F8F5
:10836000041306E0C649096821F40001C64AC2F8B0
:108370000413704738B1C249096841F48001C24A08
:10838000C2F8041306E0BE49096821F48001BE4A20
:10839000C2F804137047F0B504460D4600200021D2
:1083A000092D11DDE068A5F10A0606EB4607072650
:1083B00006FA07F18843A5F10A0606EB460603FA1A
:1083C00006F10843E0600CE0206905EB450707264D
:1083D00006FA07F1884305EB450603FA06F1084360
:1083E0002061072A0FDA606B561E06EB86071F26F0
:1083F00006FA07F18843561E06EB860605FA06F1D3
:108400000843606322E00D2A0FDA206BD61F06EBCB
:1084100086071F2606FA07F18843D61F06EB860655
:1084200005FA06F10843206310E0E06AA2F10D06A8
:1084300006EB86071F2606FA07F18843A2F10D0610
:1084400006EB860605FA06F10843E062F0BD816896
:1084500041F0804181607047014600208A6802F047
:1084600080420AB1012000E00020704721B18268FB
:1084700042F48062826003E0826822F4806282605B
:10848000704721B1826842F00202826003E0826894
:1084900022F002028260704710B50A4600210023D4
:1084A000416821F46041531E41EA4331416010BDEF
:1084B00021B1426842F40062426003E0426822F463
:1084C0000062426070470146C86C80B270476C48D9
:1084D000001D0068704721B1826842F4807282609A
:1084E00003E0826822F480728260704721B1826862
:1084F00042F40072826003E0826822F400728260BB
:10850000704738B15E49096841F400515E4AC2F8CB
:10851000041306E05A49096821F400515A4AC2F886
:1085200004137047F0B504461546002000220026CB
:10853000092911DDE068A1F10A0707EB470C0727BD
:1085400007FA0CF29043A1F10A0707EB470703FA79
:1085500007F21043E0600CE0206901EB410C0727B3
:1085600007FA0CF2904301EB410703FA07F21043BC
:108570002061A06BC0F30156EF1C06F1010CA7EBC4
:108580000C0707EB870C1F2707FA0CF29043EF1C30
:1085900006F1010CA7EB0C0707EB870701FA07F2BE
:1085A0001043A063F0BD10B50A4600210023816B83
:1085B00021F44011531E41EA0351816310BD08B5F7
:1085C000002300930090009B0B440093009B1A60D3
:1085D00008BD0A460021816821F4702111438160A1
:1085E00070470A460021816821F4401111438160DF
:1085F0007047816841F48001816070470146002026
:108600008A6802F480020AB1012000E0002070476D
:1086100021B1426842F48062426003E0426822F481
:1086200080624260704721B1426842F480524260E9
:1086300003E0426822F480524260704708B5024667
:1086400000200090009201F12800009B1844009047
:108650000098006880B208BD10B50B460021D9B261
:10866000012404FA01F11AB144680C43446002E0A9
:1086700044688C43446010BDFFFEFFFCFDF7FFC063
:1086800004230140E030FCFF00200140FFFD3FFFDC
:108690000246002013680B400BB1012000E00020CF
:1086A0007047CA430260704770B50246002000233D
:1086B00000240B12556801268E4005EA0604156851
:1086C0001D4015B10CB1012000E0002070BD00225A
:1086D0000A12D34303607047016821F00101016071
:1086E0000021016041608160C1600161212141611F
:1086F000DB49884204D13D21D94A103A91608CE08F
:10870000D7491831884205D14FF47461D44A103AE0
:10871000916082E0D2493031884205D14FF4741122
:10872000CF4A103A916078E0CD494831884205D16E
:108730004FF07461CA4A103A91606EE0C8496031E6
:10874000884204D1C749C64A103AD16065E0C4499D
:108750007831884204D1C449C14A103AD1605CE002
:10876000BF499031884204D1C049BD4A103AD16016
:1087700053E0BB49A831884205D14FF03D51B84A7A
:10878000103AD16049E0BA49884204D13D21B84A43
:10879000083A116041E0B6491831884205D14FF4DA
:1087A0007461B34A083A116037E0B1493031884208
:1087B00005D14FF47411AE4A083A11602DE0AC496E
:1087C0004831884205D14FF07461A94A083A1160D6
:1087D00023E0A7496031884204D1A249A44A121F6C
:1087E00011601AE0A2497831884204D19E49A04A1A
:1087F000121F116011E09E499031884204D19B49BB
:108800009B4A121F116008E09949A831884204D19F
:108810004FF03D51964A121F1160704710B500226B
:108820000268944B1A40CC680B6823434C6923437D
:108830008C692343CC6923430C6A23434C6A23434A
:108840008C6A23434C6B23438C6B23431A43026093
:10885000426922F00702D1E90B3423431A434261F3
:108860000B6943604B6883608B68C36010BD002157
:10887000016041608160C160016141618161C161EC
:10888000016241628162C162016341638163704739
:1088900021B1026842F00102026003E0026822F0A6
:1088A00001020260704721B1026842F40042026096
:1088B00003E0026822F400420260704721B10268BE
:1088C00042F02002026003E0026822F0200202600F
:1088D0007047416070470146486880B2704722B1D6
:1088E000036843F40023036003E0036823F40023D8
:1088F00003600161704721B1026842F48022026086
:1089000003E0026822F48022026070470AB101612C
:1089100000E0C1607047014600200A6802F40022AE
:108920000AB1012000E000207047014600200A68DB
:1089300002F001020AB1012000E000207047014668
:1089400000204A6902F03800704730B503460A46F5
:1089500000200024464DAB4202D24149103901E0CB
:108960004349103902F000550DB14C6800E00C6825
:10897000414D2C4004EA02050DB1012000E0002029
:1089800030BD02463A4B9A4202D23548103801E0D7
:108990003748103801F000531BB1374B0B40C36010
:1089A00002E0354B0B408360704710B501F0800347
:1089B0004BB122B1436943F08003436103E0436953
:1089C00023F08003436180290BD02AB1036801F0B2
:1089D0001E042343036004E0036801F01E04A34364
:1089E000036010BD70B50246002000240025204E13
:1089F000B24202D21A4B103B01E01D4B103B1F4EFE
:108A00000E4036B11E2606EAD124166806EA040591
:108A100002E0566906F0800501F000560EB15C6870
:108A200000E01C68144E344004EA010616B10DB192
:108A3000012000E0002070BD02460D4B9A4202D298
:108A40000748103801E00A48103801F000531BB104
:108A5000094B0B40C36002E0074B0B40836070473B
:108A6000106002403D000020400F002000003D202B
:108A7000106402403F801CF07D0F7D0F3C0F3C0FC7
:108A80009FED3A0A5FEA920C53D000BFF0EC010A66
:108A90000B1DB0EC011A60EEA00A41EE010AF5EEE2
:108AA000C00AF1EE10FAC6BFB1EEE01A81ED001A6D
:108AB00081ED000AF0EC010A191DB0EC011A60EE1C
:108AC000A00A41EE010AF5EEC00AF1EE10FAC6BFA7
:108AD000B1EEE01A83ED001A83ED000AF0EC010A12
:108AE0000B1DB0EC011A60EEA00A41EE010AF5EE92
:108AF000C00AF1EE10FAC6BFB1EEE01A81ED001A1D
:108B000081ED000AF0EC010A191DB0EC011A60EECB
:108B1000A00A41EE010AF5EEC00AF1EE10FAC6BF56
:108B2000B1EEE01A83ED001A83ED000ABCF1010CEE
:108B3000ACD112F0030208BF704700BFF0EC010A8D
:108B40000B46B0EC011A091D60EEA00A41EE010AC5
:108B5000F5EEC00AF1EE10FAC6BFB1EEE01A83EDF1
:108B6000001A83ED000A521EE8D170470000000091
:108B70002DE9F04F8D082DED048B82B00026AC4618
:108B80003446019506EB0C0909EB0C0A0AEB0C08BC
:108B900000EBC60700EBC90900EBCA0A00EBC808E6
:108BA00097ED003AD9ED003ADAED006A98ED006AE7
:108BB00097ED010ADAED014A33EE265A73EE860A82
:108BC00099ED014AD8ED015A30EE241A4FEA440BD0
:108BD00002EBCB0E70EE644A74EE251A35EE200AD5
:108BE0009EED002ADEED012A87ED000A31EE210A12
:108BF00073EEC63A34EE656A87ED010A35EE600A17
:108C000033EE663A71EE610A02EBC40774EEE35A82
:108C100033EE064A97ED005A73EEA41AD7ED014AD7
:108C200033EE461A24EE056A0BEB040725EE855A4F
:108C300002EBC70760EE026A65EEA45A24EE244AEE
:108C400097ED003AD7ED013A60EEA24A20EE822A73
:108C500021EE037A20EE220A61EEA30A21EE833A86
:108C600061EE231A76EEA42A32EE400A36EE251A79
:108C700075EE443AC9ED002A77EE200A89ED010A23
:108C800073EE611A8AED001ACAED013AC8ED000AC6
:108C9000761CC8ED011A1C446D1E7FF473AF4FF6AD
:108CA000FF7404EA830B019B0093042B7DD9664675
:108CB0004FEA9C0C4FF00008C146ACF1010E00BF1A
:108CC0004FEA480303EB080402EBC30302EBC805B9
:108CD00093ED003AD3ED014A02EBC40395ED005A3F
:108CE000D5ED015A93ED006A93ED014AD8444B4605
:108CF00003EB0C0404EB0C0707EB0C0A00EBC305B9
:108D000000EBC70700EBC40400EBCA0AD5ED003A3C
:108D100097ED007AD4ED008A9AED008A95ED010A6C
:108D2000D4ED010AD7ED017ADAED011A33EEC72A44
:108D300070EE676A70EEE12A33EE877A78EE883A51
:108D400030EE270A38EEC81A70EEA11A72EE227AB7
:108D500032EE622A77EE232A70EE618A36EEC18AFD
:108D600030EE210A77EE630A31EE261AC5ED002AAD
:108D700085ED010A28EE050A67EE856A28EE258A48
:108D800020EE837A20EEA49A68EE831A62EE062A19
:108D900061EE063A62EE040A67EEA57A68EEA48AEE
:108DA00021EE041A36EE882A00E027E077EE286AE2
:108DB00071EEC91A30EE670AC4ED006A32EE811A0C
:108DC000C4ED011A73EEE00A87ED002A87ED010A6F
:108DD0008AED001A3344CAED010A8B4288D309F1A7
:108DE0000109F1457FF66CAF4FF6FF7303EA8B0B79
:108DF000009B9B080093042B3FF659AFDDF804104D
:108E000090ED000AD0ED042A90ED025A90ED031A7D
:108E1000D0ED064A90ED073A30EE222AD0ED011A45
:108E2000D0ED050A75EE243A31EE034A30EE620ABF
:108E300071EEA02A31EE431A32EE233A71EEE00AC7
:108E400075EE641A72EE844A32EE632A72EEC43A08
:108E500080ED003A70EE012AC0ED014A30EEE14AA1
:108E600080ED022A30EE410AC0ED033A71EEA00A0D
:108E7000C0ED042A80ED054A80ED060AC0ED070A20
:108E80002030491EBCD102B0BDEC048BBDE8F08F90
:108E90002DE9F04F4FEA910A2DED048B82B00024AA
:108EA000D446A046CDF804A004EB0C0505EB0C0657
:108EB00006EB0C0900EBC40700EBC60600EBC5058A
:108EC00000EBC909D7ED011AD6ED012A95ED006A2C
:108ED000D9ED006AD7ED005A96ED007AD5ED010A7A
:108EE00099ED011A36EE262A71EEA23A35EE873A4E
:108EF00071EEE21A30EE815A70EEC12A4FEA480B49
:108F000002EBCB0E73EE020A9EED004ADEED014A43
:108F1000C7ED000A73EE850A36EE666A75EEC75A2B
:108F2000C7ED010A33EE422A02EBC80731EE861A7A
:108F300033EEC53A71EEC61A97ED006A97ED015A05
:108F400075EEE20A0BEB080702EBC70775EEA22AE3
:108F5000D7ED005AD7ED013A60EE866A22EE047A28
:108F600062EEA57A23EE044A21EE066A61EEA55A66
:108F700060EE850A23EE243A22EE242A21EE051A19
:108F800061EEA31A62EEA32A76EE203A37EE433A58
:108F900074EE020A36EEC11A85ED003A77EEE11A58
:108FA000C5ED010A35EEA22A86ED001AC6ED013A9A
:108FB000C9ED001A641C89ED012A9844BAF1010A2E
:108FC0007FF472AF4FF6FF7404EA830B019B0093AA
:108FD000042B7CD966464FEA9C0C4FF00008C14632
:108FE000ACF1010E4FEA480303EB080402EBC303A4
:108FF00002EBC805D3ED003A93ED017A02EBC4030E
:10900000D5ED006AD5ED015AD3ED004A93ED013A52
:10901000D8444B4603EB0C0404EB0C0707EB0C0A9B
:1090200000EBC30500EBC70700EBC40400EBCA0A62
:1090300095ED012A97ED018A95ED001AD4ED008A8D
:10904000D4ED017A97ED009ADAED001ADAED010A13
:1090500032EE485A71EE492A38EEE14A32EE082AD9
:1090600037EEA08A37EEE06A78EEA11A31EE091ADF
:1090700075EE048A72EEC67A72EE862A71EE610A85
:1090800031EE211A35EE444A32EE489A85ED001A47
:1090900032EE081A28EEA66A27EEA65A68EEA58ACE
:1090A00085ED011A20EEA31A69EE231A22EEA42AF6
:1090B00024EE248A67EEA57A29EE079A60EE870AE5
:1090C00024EE034A62EE832A35EE685A00E027E078
:1090D00036EE276A71EE497A31EEA01A72EE440A32
:1090E000C4ED007A84ED011A78EE221A87ED005A59
:1090F00087ED016ACAED000A3344CAED011A8B42BA
:1091000088D309F10109F1457FF66CAF4FF6FF7383
:1091100003EA8B0B009B9B080093042B3FF65AAF8E
:10912000DDF8041090ED003AD0ED044AD0ED032AAA
:1091300090ED071A90ED024AD0ED061AD0ED013AF3
:10914000D0ED050A33EE242A72EE815A33EE643AEA
:1091500034EE215A73EEA04A73EEE03A32EEC11AB1
:1091600074EE610A32EE454A72EE052A74EEA51AD3
:1091700034EEE55A73EE414A33EEA02A33EE011A7B
:1091800033EEE03A62EE805A61EE800A64EE003A15
:1091900065EE002AC0ED005A64EE801AC0ED010AA7
:1091A00022EE002AC0ED023A21EE004AC0ED032A69
:1091B00023EE001AC0ED041A80ED052A80ED064A60
:1091C00080ED071A2030491EACD102B0BDEC048BF3
:1091D000BDE8F08F70B504460D4680782188A389DC
:1091E000626801280ED02846FFF7C2FCE07801280B
:1091F00018BF70BDE28921882846A368BDE8704089
:1092000000F066B894ED040A2846FFF741FEEDE74A
:1092100010B40180234C446082704FF0000CC37086
:10922000B1F5807F20D004DC10292FD0402906D151
:1092300022E0B1F5806F0FD0B1F5805F04D04FF020
:10924000FF3C10BC6046704701218181C1811649F5
:109250009FED160A816016E004218181C1811449C5
:109260009FED140A81600EE010218181C1811249B5
:109270009FED120A816006E040218181C181104981
:109280009FED100A816080ED040ADAE74FF48071E7
:109290008181C1810C499FED0D0A816080ED040A36
:1092A000CFE700006CB900086CB1000800008039FD
:1092B00072B100080000803A8AB100080000803BCB
:1092C000EAB100080000803C6AB300080000803D5D
:1092D0002DE9F0014E0801244FF0000C04EB51077A
:1092E0006146A6F102082CE061452AD200EBCC05CC
:1092F00000EBC104D5ED000A94ED000AC4ED000AAC
:1093000085ED000AD5ED010A94ED010AC4ED010ACC
:1093100085ED010ACC1900EBC4050CEB070400EB4A
:10932000C40495ED000AD4ED000AC5ED000A84EDF1
:10933000000AD4ED010A95ED010AC5ED010A84ED9C
:10934000010A00EBC104B44400EBCC0C94ED020A1A
:10935000DCED000A891CC4ED020A8CED000ADCED8C
:10936000010A94ED030AC4ED030A8CED010AB3F877
:1093700000C089B203EB42034145B5D9BDE8F00115
:1093800070472DE9F00701254C0805EB51064FF019
:10939000000C651E6146002D88BFA8462ED8BDE88A
:1093A000F0077047614529D250F8315050F83C70B1
:1093B00040F8317040F83C5000EBC10700EBCC099D
:1093C0007D68D9F804A0C7F804A0C9F804508D1925
:1093D0000CEB060750F8359050F837A040F835A050
:1093E00040F8379000EBC50500EBC707D5F80490AF
:1093F000D7F804A0C5F804A0C7F8049000EBC10595
:10940000A444AF6850F83C90C5F8089040F83C7010
:1094100000EBCC0CEF68DCF80490C5F80C90CCF8AD
:109420000470B3F800C0891C03EB42034145B9D373
:10943000BDE8F00770472DE9F00F01244D084FF00B
:10944000000C04EB5107012D9CBFBDE8F00F7047E5
:10945000014600EB870400264FEA550815E000BFDF
:10946000BCEB460F11D950F82CA0D1F80090C1F8F0
:1094700000A040F82C900CEB0709D4F800A050F89D
:1094800029B0C4F800B040F829A0AC44D1F8049049
:1094900050F82CA0C1F804A040F82C90B3F800C0FC
:1094A00008310834761C03EB4203B8F10108D7D128
:1094B000BDE8F00F704770470FB4044910B503AA18
:1094C000029800F0C3F810BC5DF814FB2C000020DB
:1094D0002DE9F0410E460446002020622046E16856
:1094E000884730B3252805D0D4E901219047206A68
:1094F000401CF2E7E168204600278847050018D0A5
:10950000A5F14100192802D820354FF400673246F2
:10951000294620462760F6F771FE40B1012804D0A5
:10952000F61D26F007060836D8E7361DD6E728468A
:10953000DAE7206ABDE8F08170B504460D462146A1
:109540001068AFF300802188090502D50F4A7A44DC
:1095500002E00E4A7A440E32002104F1240305E0B1
:1095600000F00F060009965D5E54491C0028F7D1F3
:1095700020780023000704D5702D02D009B1022302
:1095800011322046BDE8704000F006B81AA4000071
:1095900070477047704770472DE9F0470D46994670
:1095A0009246044600F124080168880604D5E06963
:1095B00021F01001216000E00120A84201DD471BDD
:1095C00000E00027A1697A1902EB0900081AA061DE
:1095D0002078C00602D42046AFF30080002608E0C1
:1095E000D4E901211AF806009047206A401C761C35
:1095F00020624E45F4DB2078C0060AD52046AFF342
:10960000008006E0D4E9012130209047206A401C08
:109610002062381EA7F10107F4DC07E0D4E901213C
:1096200018F805009047206A401C2062281EA5F10A
:109630000105F3DC2046AFF300802078000602D558
:109640000220BDE8F0870120FBE70000074B70B562
:109650000D467B4400F011F80446284600F020F83F
:1096600010B14FF0FF3070BD204670BD0BCAFFFF38
:1096700001694A1C02610878704700B58FB0CDE9D6
:1096800001310021059105497944CDE903101146C6
:109690006846FFF71DFF0FB000BD0000E5FFFFFFAC
:1096A000007B00F080007047754600F029F8AE4658
:1096B00005006946534620F00700854618B020B5DE
:1096C000FCF77EFDBDE820404FF000064FF000079C
:1096D0004FF000084FF0000B21F00701AC46ACE85A
:1096E000C009ACE8C009ACE8C009ACE8C0098D46C7
:1096F00070470446AFF300802046F6F793FD000064
:10970000004870479CE900204FEA1153A3F580639D
:10971000D3F11E03A8BFD3F1200C08DB4FF00042A9
:1097200042EAC12252EA505232FA03F0704709422B
:109730000BD4102BC4BF0020704703F5787CBCF11C
:10974000FF3F05D04FF0FF3070474FF000007047EB
:1097500070B500F0C3F800BF499224800020704724
:10976000F0E7B0FA80F310FA03F10AD0C3F11D0359
:1097700003F580634FEA41504FEA035202EBD121D7
:1097800070474FF000007047DFF848C170B51CEA21
:10979000111E1EBF1CEA13159EEA0C0F95EA0C0F52
:1097A00000F06F8081EA030423EA4C134EEAD47E72
:1097B00021EA4C1141F4801143F48013AE44A1FB23
:1097C000024CA0FB0365AEF17F7E361955EB0C050C
:1097D000A1FB034C4CF10003A0FB021C16EB0C0692
:1097E000654153F10003094218BF46F0010613F426
:1097F000007F0BD14FEA03314FEA0530340341EAD1
:10980000155140EA16506FF003020AE04FEAC321F7
:109810004FEAC520F40241EA555140EA56506FF034
:10982000020202EB2E4201EB025585EACE710AD00C
:109830005FEA440C18BF24F0004450F1000041F1ED
:10984000000120EAD47040F2FE7C624500D270BD77
:10985000A84214BF4FF080444FF04044002E08BF90
:109860000024BEF1806FA8BFA1F1C041BDE87040E7
:1098700080F282804FF0000001F1C04101F0004110
:1098800070479EEA0C0F0CEA131518BF95EA0C0FEF
:1098900006D04FF0000081EA030E0EF0004170BDCB
:1098A00000F01CF88900013E00F007B800F009B88C
:1098B0004FEA430C5FEA5C5C08D081EA030100F0E8
:1098C0005BB84FEA410C5FEA5C5CF6D14FF00000F8
:1098D000014970470000FF070000F87F0EF1020EFB
:1098E0002EF0030E5EF8046B364205D4012A43EBDA
:1098F000030515F5001F12D8012841EB010C1CF5DA
:10990000001F0CD80ED14FEAD17C15F5001F0CEBCF
:109910004C0C0CF1020C08BF4CEBD37C04E04FF074
:10992000080C01E04FEAD37C0CEB4C0526FA05F657
:1099300006F00706B6F1040C06D20EEB860CBDE865
:1099400070404CF0010C6047DFE80CF0090B02029C
:109950004FF000414FF00000A1F5002170BD194605
:109960001046012851EB010418BFD4F5001484BF40
:10997000002001F0004170BD0808A0F500114FEA79
:10998000310170474FF04070E1EE100A704700005F
:1099900000000000000000000000000000003F4048
:1099A00000000000000000003000400030004000D7
:1099B000000009000BC03D000BC03D00090018C0AD
:1099C00024407FE0224031800000180024C01B00AA
:1099D0000D803240018003801C4027401C800740DE
:1099E00000401000600000000000000000000000C7
:1099F000000000001F802040402000004020204048
:109A00001F8000000000090006001F8006000900FA
:109A10000000040004003F80040004000000001067
:109A200000600000000000000000040004000400CA
:109A300004000400000000000040000000000000DE
:109A40000000002001C006003800400000001F8018
:109A50002040204020401F800000000010403FC0F8
:109A600000400000000018C021402240244018405F
:109A7000000010802040244024401B800000020091
:109A80000D0011003FC0014000003C8024402440F4
:109A90002440238000001F80244024403440038061
:109AA00000003000200027C03800200000001B808C
:109AB0002440244024401B8000001C0022C022407F
:109AC00022401F800000000000000840000000004D
:109AD0000000000000000460000000000000000022
:109AE00004000A001100208040400900090009001C
:109AF00009000900000000004040208011000A0019
:109B000004001800200023402400180000001F80DB
:109B10002040274029401F400000004007C0390076
:109B20000F0001C0004020403FC0244024401B8063
:109B300000001F8020402040204030800000204056
:109B40003FC0204020401F80000020403FC02440F4
:109B50002E4030C0000020403FC024402E00300086
:109B600000000F001080204022403380020020407F
:109B70003FC0040004003FC02040204020403FC0C0
:109B80002040204000000060202020203FC0200016
:109B9000200020403FC024400B0030C02040204027
:109BA0003FC020400040004000C03FC03C0003C018
:109BB0003C003FC0000020403FC00C4023003FC09D
:109BC00020001F802040204020401F8000002040B7
:109BD0003FC024402400180000001F802140214085
:109BE00020E01FA0000020403FC02440260019C0F4
:109BF000004018C024402440224031800000300042
:109C000020403FC020403000000020003F80004046
:109C100000403F80200020003E0001C007003800C7
:109C20002000380007C03C0007C03800000020407A
:109C300039C0060039C0204000002000384007C06D
:109C4000384020000000304021C02640384020C06D
:109C50000000000000007FE04020402000000000E5
:109C600070000C00038000400000000040204020F5
:109C70007FE0000000000000200040002000000005
:109C80000000001000100010001000100010000074
:109C900000004000000000000000000002800540BD
:109CA000054003C0004020003FC004400440038042
:109CB0000000000003800440044006400000000053
:109CC0000380044024403FC0004000000380054062
:109CD000054003400000000004401FC02440244011
:109CE0002000000002E005500550065004202040EE
:109CF0003FC00440040003C000400000044027C0EF
:109D000000400000000000100010041027E00000D8
:109D1000000020403FC00140070004C00440204034
:109D200020403FC000400040000007C0040007C0C2
:109D3000040003C00000044007C00440040003C046
:109D40000040000003800440044003800000041031
:109D500007F004500440038000000000038004402A
:109D6000045007F00010044007C002400400040043
:109D70000000000006400540054004C0000000004F
:109D800004001F80044000400000040007800040E1
:109D9000044007C000400400070004C00180060022
:109DA0000400060001C0070001C0060000000440D6
:109DB00006C0010006C0044000000410071004E0C3
:109DC0000180060004000000044005C00640044075
:109DD00000000000000004007BE0402000000000C4
:109DE00000000000FFF000000000000040207BE0C9
:109DF000040000000000400080004000200020001F
:109E00004000000000000000000000000000000012
:109E100000000000000000001FCC000C000000004B
:109E20000000000008003000600008003000600002
:109E30000000022003FC1E20022003FC1E20022042
:109E4000000000000E1811043FFF10840C78000081
:109E500000000F0010840F3800C0077818840078C5
:109E6000000000780F8410C411240E9800E40084D0
:109E700000080800680070000000000000000000FA
:109E8000000000000000000007E018182004400255
:109E90000000000040022004181807E00000000045
:109EA00000000240024001800FF0018002400240A9
:109EB00000000080008000800FF80080008000809B
:109EC00000000001000D000E000000000000000076
:109ED0000000000000800080008000800080008082
:109EE00000800000000C000C0000000000000000DA
:109EF0000000000000060018006001800600180045
:109F00002000000007F0080810041004080807F0FB
:109F100000000000080408041FFC00040004000006
:109F2000000000000E0C10141024104411840E0CBC
:109F3000000000000C1810041104110412880C70A9
:109F40000000000000E00320042408241FFC00247B
:109F5000000000001F981084110411041088107074
:109F60000000000007F00888110411041888007030
:109F7000000000001C00100010FC13001C0010006A
:109F8000000000000E3811441084108411440E3873
:109F9000000000000700088C10441044088807F0F7
:109FA0000000000000000000030C030C0000000093
:109FB0000000000000000001010600000000000099
:109FC0000000000000800140022004100808100476
:109FD0000000022002200220022002200220022093
:109FE0000000000010040808041002200140008056
:109FF000000000000E001200100C106C10800F000A
:10A00000000003E00C1813E4142417C4082807D038
:10A0100000000004003C03C41C40074000E4001C96
:10A02000000410041FFC1104110411040E880070B8
:10A03000000003E00C1810041004100410081C1099
:10A04000000010041FFC100410041004080807F09E
:10A05000000010041FFC1104110417C41004081898
:10A06000000010041FFC1104110017C010000800AC
:10A07000000003E00C181004100410441C78004089
:10A08000000010041FFC10840080008010841FFC5E
:10A0900010040000100410041FFC10041004000041
:10A0A000000000030001100110011FFE100010004D
:10A0B000000010041FFC110403801464181C100419
:10A0C000000010041FFC1004000400040004000C35
:10A0D000000010041FFC1F0000FC1F001FFC1004E8
:10A0E000000010041FFC0C04030000E010181FFC0B
:10A0F000100007F00808100410041004080807F006
:10A10000000010041FFC10841080108010800F00CD
:10A11000000007F0081810241024101C080A07F289
:10A12000000010041FFC1104110011C011300E0CAE
:10A13000000400000E1C11041084108410441C380C
:10A1400000001800100010041FFC1004100018007C
:10A15000000010001FF810040004000410041FF891
:10A16000100010001E0011E0001C007013801C0085
:10A1700010001FC0103C00E01F0000E0103C1FC09A
:10A1800000001004180C163401C001C01634180C5D
:10A19000100410001C00130400FC13041C00100029
:10A1A00000000804101C1064108413041C04101810
:10A1B00000000000000000007FFE4002400240025C
:10A1C0000000000030000C0003800060001C000351
:10A1D000000000004002400240027FFE000000003C
:10A1E000000000000000200040004000400020006F
:10A1F0000000000100010001000100010001000158
:10A2000000010000400040002000000000000000AD
:10A21000000000000098012401440144014400FCB6
:10A22000000410001FFC0088010401040088007075
:10A23000000000000070008801040104010400888F
:10A2400000000000007000880104010411081FFCD8
:10A250000004000000F8014401440144014400C826
:10A2600000000000010401040FFC1104110411009E
:10A270001800000000D601290129012901C90106A1
:10A28000000010041FFC008401000100010400FC18
:10A29000000400000104190419FC0004000400007B
:10A2A00000000000000300010101190119FE000077
:10A2B000000010041FFC0024004001B4010C010444
:10A2C00000000000100410041FFC00040004000043
:10A2D0000000010401FC0104010001FC0104010073
:10A2E00000FC010401FC008401000100010400FCE9
:10A2F0000004000000F8010401040104010400F856
:10A300000000010101FF00850104010400880070C4
:10A31000000000000070008801040104010501FF35
:10A3200000010104010401FC00840104010001801A
:10A330000000000000CC0124012401240124019824
:10A34000000000000100010007F801040104000002
:10A350000000010001F8000400040004010801FCF1
:10A360000004010001800170000C001001600180F8
:10A37000010001F0010C003001C00030010C01F0BF
:10A38000010000000104018C00740170018C0104C3
:10A390000000010101810171000E001801600180BF
:10A3A000010000000184010C013401440184010C0E
:10A3B0000000000000000000000001003EFC400220
:10A3C00040020000000000000000FFFF000000004D
:10A3D00000000000400240023EFC010000000000BE
:10A3E000000000006000800080004000400020006D
:10A3F000200000000000000000000000000000003D
:10A40000000000000000000000000000000000004C
:10A41000000000000000000000000000000000003C
:10A4200000000000000F80380FFE380F8038000059
:10A43000000000000000000000000000000000001C
:10A440000100000600000C0000380000310000068A
:10A4500000000C0000380000300000000000000088
:10A46000000061800067F807F9800061800061806A
:10A470000061800061800067F807F980006180005A
:10A48000000000000000000001C0E003E0F0063022
:10A49000080418081FFFFE040E080787F00381E078
:10A4A00000000000000001F000060C000404080693
:10A4B0000C7001F9C0000E00003BE000EC1807082A
:10A4C00008040C180003E00000000001E00007F0A1
:10A4D00003F818041C0804170807E1D003C0E000C3
:10A4E00023B0003C0800200800001000000000001D
:10A4F000000100003100003200001C0000000000DC
:10A50000000000000000000000000000000000004B
:10A51000000000000000000000000000000000003B
:10A5200000007F0001FFC00780F00C00181000043D
:10A530002000020000000000002000021000040CB7
:10A5400000180780F001FFC0007F0000000000003D
:10A5500000000000000000000000000000004200B9
:10A56000006600006600003C0000180003FFC00009
:10A570001800003C00006600006600004200000079
:10A5800000000800000800000800000800000800A3
:10A5900001FFC000080000080000080000080000DB
:10A5A000080000000000000100003100003200003F
:10A5B0001C0000000000000000000000000000007F
:10A5C000000000000000000000000800000800007B
:10A5D000080000080000080000080000080000084B
:10A5E000000008000008000000000000000000005B
:10A5F00000003800003800003800000000000000B3
:10A60000000000000000000000000000000000004A
:10A610000000000600001C000070000180000E0019
:10A6200000380000C0000700001C000030000000DF
:10A630000000000000007F8001FFE0038070060042
:10A640001804000804000806001803807001FFE0E9
:10A65000007F8000000000000000000001000801F1
:10A66000000801000803FFF807FFF80000080000D9
:10A670000800000800000000000000000001C038D1
:10A6800002C05804009804011804021804041806B3
:10A690001C1803F81801E0F800000000000000009A
:10A6A0000001C0E003C0F004000804080804080822
:10A6B00006180803F41801E7F00001E000000000AC
:10A6C0000000000000000300000D00001100006108
:10A6D0000000810803010807FFF80FFFF8000108D8
:10A6E0000001080000000000000000E007FCD006A8
:10A6F0000808061008061008061008061838060F85
:10A70000F00607C0000000000000000000003F80CD
:10A7100001FFE00384300208180410080410080444
:10A720001008071810030FF00007C0000000000019
:10A730000000000003C0000700000600000600F84B
:10A740000607F806180006E00007000006000000F3
:10A75000000000000001E1E003F7F00634100418E7
:10A7600008041808040C08040C0806161803F3F073
:10A7700001C1E000000000000000F80003FC30030D
:10A78000063804020804020804020804041003083E
:10A79000F001FFC0007F000000000000000000008A
:10A7A0000000000000000000000070380070380059
:10A7B00070380000000000000000000000000000F1
:10A7C0000000000000000000000000000000301A3F
:10A7D00000301C000000000000000000000000002D
:10A7E000000000000000000000080000140000222B
:10A7F00000004100008080010040020020040010A1
:10A8000008000800000000000000210000210000F6
:10A810002100002100002100002100002100002172
:10A8200000002100002100000000000000000000E6
:10A830000800080400100200200100400080800091
:10A840004100002200001400000800000000000089
:10A850000003C00004C000040000080038080F38DE
:10A860000808380810000C300007E00003C00000A2
:10A870000000000000003F8000FFE0038070020F36
:10A880001006708804C088048308047F8802C09082
:10A8900003012000FE400000080000180001F8003D
:10A8A0003E0801C20007020007E20000FE00001F90
:10A8B000C80001F800003800000804000807FFF88D
:10A8C00007FFF80408080408080408080408080634
:10A8D000180803F41801E7F00001E0000000000090
:10A8E00000003F8001FFE0038070020018040008B0
:10A8F0000400080400080400100600200780C000BF
:10A90000000004000807FFF807FFF804000804002F
:10A910000804000804001802001003807001FFE022
:10A92000007F8000000004000807FFF807FFF8041C
:10A930000808040808040808040808043E0804007D
:10A940000806001801006000000004000807FFF876
:10A9500007FFF804080804080004080004080004BD
:10A960003E0006000006000001800000000000001C
:10A9700000003F8001FFE00380700600180400081B
:10A980000402080402080203F00783F0000200003A
:10A99000020004000807FFF807FFF8040808000891
:10A9A0000000080000080000080004080807FFF87D
:10A9B00007FFF8040008000000000000040008047D
:10A9C000000804000807FFF807FFF8040008040067
:10A9D000080400080000000000000000000000065D
:10A9E0000000070000010400010400010400030747
:10A9F000FFFE07FFFC040000040000040000040048
:10AA00000807FFF807FFF8040C08001800003E00D4
:10AA100004C7800503C80600F804003804001800C5
:10AA2000000804000807FFF807FFF804000800000A
:10AA300008000008000008000008000008000018D6
:10AA400000006000000004000807FFF80780080706
:10AA5000FC00007FC00003F80007C00078000780FA
:10AA60000807FFF807FFF804000804000807FFF8CC
:10AA700007000803C00000E000003800001E0000CE
:10AA800007000001C00400F007FFF8040000000008
:10AA900000007F8001FFE0038070060018040008BA
:10AAA00004000806001803003001FFE0007F80006A
:10AAB000000004000807FFF807FFF8040408040476
:10AAC00000040400040400040400060C0003F80061
:10AAD00001F000000000000000007F8001FFE003A3
:10AAE00080700600880400880400C806003C03004B
:10AAF0003E01FFE6007F8400000004000807FFF825
:10AB000007FFF8040808040800040C00040F000400
:10AB10000BC00610F003F03801E008000008000048
:10AB20000001E0F803F0300630100418080418089B
:10AB3000040C08040C080206180207F00781E00064
:10AB40000000018000060000040000040000040072
:10AB50000807FFF807FFF8040008040000040000DD
:10AB600006000001800004000007FFE007FFF0047A
:10AB7000001800000800000800000800000800009D
:10AB80000804001007FFE0040000040000060000B5
:10AB900007E00007FE00041FE00001F80000380095
:10ABA00001E0043E0007C0000600000400000400AD
:10ABB0000007E00007FFC0041FF80007C007F80007
:10ABC00007FF80043FF80007C004F80007000004F6
:10ABD000000000000004000806001807C07805F116
:10ABE000C8003E00001F800463E80780F8060018D4
:10ABF00004000800000004000006000007800007B1
:10AC0000E008047C08001FF80007F800180804E0BA
:10AC10000807000006000004000000000001000812
:10AC20000600380400F80403E8040F08047C080553
:10AC3000F00807C0080700180400600000000000CA
:10AC4000000000000000000000000000003FFFFEC8
:10AC5000200002200002200002200002200002004A
:10AC6000000000000000000008000007000000C015
:10AC7000000038000006000001C000003000000E97
:10AC80000000010000000000000000002000022081
:10AC900000022000022000022000023FFFFE000010
:10ACA00000000000000000000000000000000000A4
:10ACB00000000008000010000030000020000030FC
:10ACC000000010000008000000000000000000006C
:10ACD000010000010000010000010000010000016E
:10ACE000000001000001000001000001000001005F
:10ACF0000001000000000000000000200000200013
:10AD00000010000010000000000000000000000023
:10AD10000000000000000000000000F00019F80032
:10AD20001B18002208002608002408002410003FF9
:10AD3000F8001FF8000008000018000000040000E0
:10AD400007FFF80FFFF00018180010080020080097
:10AD50002008003018001FF0000FC00000000000A5
:10AD6000000007C0001FF000183000200800200875
:10AD7000002008003C08001C1000006000000000DB
:10AD800000000000000007C0001FF000381800207D
:10AD90000800200800200804101007FFF80FFFF03B
:10ADA0000000100000000000000000000007C000CC
:10ADB0001FF0001230002218002208002208003282
:10ADC00008001E10000E20000000000000002000FF
:10ADD00000200800200801FFF803FFF806200804FF
:10ADE00020080420080720000300000000000000E5
:10ADF0000000000E000E6E001FF30031B10020B104
:10AE00000020B1003191001F13002E1E00200E0003
:10AE1000300000000004000807FFF80FFFF80010E2
:10AE200008002000002000002008003FF8001FF864
:10AE300000000800000000000000000000200800E2
:10AE40002008002008063FF8063FF8000008000030
:10AE500008000008000000000000000000000000E2
:10AE60000000030000030020010020010020030671
:10AE70003FFE063FFC000000000000000000000054
:10AE80000004000807FFF80FFFF800018800030026
:10AE9000002FC00038F8002038002008000008000B
:10AEA0000000000000000000040008040008040086
:10AEB0000807FFF80FFFF80000080000080000086E
:10AEC000000000000000002008003FF8003FF800EC
:10AED0001008002000003FF8003FF8001008002094
:10AEE00000003FF8003FF8000008000000002008C4
:10AEF000003FF8003FF8001008001000002000009C
:10AF00002008003FF8001FF80000080000000000C3
:10AF1000000007C0000FF0001830003008002008C3
:10AF2000002008003008001830000FF00007C000B3
:10AF30000000000000002001003FFF003FFF001064
:10AF400011002009002008002008003038001FF000
:10AF5000000FC00000000000000007C0001FF0004C
:10AF60003818002008002008002009001011001FD8
:10AF7000FF003FFF00000100000000200800200843
:10AF8000002008003FF8003FF80008080010080003
:10AF90002008002000003000003000000000000009
:10AFA00000000000000C78001E1800330800230881
:10AFB0000021080021880021980030F0003860004E
:10AFC000000000000000200000200000200000FF22
:10AFD000F003FFF8002008002008002008000030DF
:10AFE000000000000000000000002000003FF00012
:10AFF0007FF8000018000008000008002010003F43
:10B00000F8007FF0000010000000000000002000A9
:10B01000003000003C00003F800023F0000078007A
:10B020000070002380003C00003000002000002061
:10B0300000003C00003FE00023F80000E000270093
:10B04000003E00003FE00021F80001E0003E00006B
:10B050002000000000002008002008003838003ED2
:10B06000680027800003C8002CF80038380020183A
:10B070000020080000000000000020000030030055
:10B080003C01003F830023EC000070002380003C63
:10B090000000200000200000000000000000000070
:10B0A0000038080020380020F80023E8002F88002E
:10B0B0003E08003808002018000070000000000062
:10B0C0000000000000000000000000000000080078
:10B0D0000014001FF7FC30000620000200000000F2
:10B0E0000000000000000000000000000000000060
:10B0F00000000000FFFFFF00000000000000000053
:10B1000000000000000000000000000020000230ED
:10B1100000061FF7FC0014000008000000000000FB
:10B120000000000000000000000000000018000007
:10B1300060000040000040000020000010000008F7
:10B1400000000400000400000C00001000000000DB
:10B150000F0000000F000000FF0000000F000000C3
:10B160000F0000000F0000000000000000040002BB
:10B170000006000100050003000780008004800233
:10B180008006800180058003800740004004400263
:10B1900040064001400540034007C000C004C00213
:10B1A000C006C001C005C003C00720002004200263
:10B1B00020062001200520032007A000A004A002F3
:10B1C000A006A001A005A003A00760006004600223
:10B1D00060066001600560036007E000E004E002D3
:10B1E000E006E001E005E003E007100010041002B3
:10B1F0001006100110051003100790009004900233
:10B200009006900190059003900750005004500262
:10B2100050065001500550035007D000D004D00212
:10B22000D006D001D005D003D00730003004300262
:10B2300030063001300530033007B000B004B002F2
:10B24000B006B001B005B003B00770007004700222
:10B2500070067001700570037007F000F004F002D2
:10B26000F006F001F005F003F007080008040802FA
:10B2700008060801080508030807880088048802F2
:10B280008806880188058803880748004804480222
:10B2900048064801480548034807C800C804C802D2
:10B2A000C806C801C805C803C80728002804280222
:10B2B00028062801280528032807A800A804A802B2
:10B2C000A806A801A805A803A807680068046802E2
:10B2D00068066801680568036807E800E804E80292
:10B2E000E806E801E805E803E80718001804180272
:10B2F00018061801180518031807980098049802F2
:10B300009806980198059803980758005804580221
:10B3100058065801580558035807D800D804D802D1
:10B32000D806D801D805D803D80738003804380221
:10B3300038063801380538033807B800B804B802B1
:10B34000B806B801B805B803B807780078047802E1
:10B3500078067801780578037807F800F804F80291
:10B36000F806F801F805F803F807040004040402DD
:10B370000406040104050403040784008404840211
:10B380008406840184058403840744004404440241
:10B3900044064401440544034407C400C404C402F1
:10B3A000C406C401C405C403C40724002404240241
:10B3B00024062401240524032407A400A404A402D1
:10B3C000A406A401A405A403A40764006404640201
:10B3D00064066401640564036407E400E404E402B1
:10B3E000E406E401E405E403E40714001404140291
:10B3F0001406140114051403140794009404940211
:10B400009406940194059403940754005404540240
:10B4100054065401540554035407D400D404D402F0
:10B42000D406D401D405D403D40734003404340240
:10B4300034063401340534033407B400B404B402D0
:10B44000B406B401B405B403B40774007404740200
:10B4500074067401740574037407F400F404F402B0
:10B46000F406F401F405F403F4070C000C040C02D8
:10B470000C060C010C050C030C078C008C048C02D0
:10B480008C068C018C058C038C074C004C044C0200
:10B490004C064C014C054C034C07CC00CC04CC02B0
:10B4A000CC06CC01CC05CC03CC072C002C042C0200
:10B4B0002C062C012C052C032C07AC00AC04AC0290
:10B4C000AC06AC01AC05AC03AC076C006C046C02C0
:10B4D0006C066C016C056C036C07EC00EC04EC0270
:10B4E000EC06EC01EC05EC03EC071C001C041C0250
:10B4F0001C061C011C051C031C079C009C049C02D0
:10B500009C069C019C059C039C075C005C045C02FF
:10B510005C065C015C055C035C07DC00DC04DC02AF
:10B52000DC06DC01DC05DC03DC073C003C043C02FF
:10B530003C063C013C053C033C07BC00BC04BC028F
:10B54000BC06BC01BC05BC03BC077C007C047C02BF
:10B550007C067C017C057C037C07FC00FC04FC026F
:10B56000FC06FC01FC05FC03FC07020002040202CD
:10B57000020602010205020302078200820482021F
:10B58000820682018205820382074200420442024F
:10B5900042064201420542034207C200C204C202FF
:10B5A000C206C201C205C203C2072200220422024F
:10B5B00022062201220522032207A200A204A202DF
:10B5C000A206A201A205A203A2076200620462020F
:10B5D00062066201620562036207E200E204E202BF
:10B5E000E206E201E205E203E2071200120412029F
:10B5F000120612011205120312079200920492021F
:10B60000920692019205920392075200520452024E
:10B6100052065201520552035207D200D204D202FE
:10B62000D206D201D205D203D2073200320432024E
:10B6300032063201320532033207B200B204B202DE
:10B64000B206B201B205B203B2077200720472020E
:10B6500072067201720572037207F200F204F202BE
:10B66000F206F201F205F203F2070A000A040A02E6
:10B670000A060A010A050A030A078A008A048A02DE
:10B680008A068A018A058A038A074A004A044A020E
:10B690004A064A014A054A034A07CA00CA04CA02BE
:10B6A000CA06CA01CA05CA03CA072A002A042A020E
:10B6B0002A062A012A052A032A07AA00AA04AA029E
:10B6C000AA06AA01AA05AA03AA076A006A046A02CE
:10B6D0006A066A016A056A036A07EA00EA04EA027E
:10B6E000EA06EA01EA05EA03EA071A001A041A025E
:10B6F0001A061A011A051A031A079A009A049A02DE
:10B700009A069A019A059A039A075A005A045A020D
:10B710005A065A015A055A035A07DA00DA04DA02BD
:10B72000DA06DA01DA05DA03DA073A003A043A020D
:10B730003A063A013A053A033A07BA00BA04BA029D
:10B74000BA06BA01BA05BA03BA077A007A047A02CD
:10B750007A067A017A057A037A07FA00FA04FA027D
:10B76000FA06FA01FA05FA03FA07060006040602C9
:10B7700006060601060506030607860086048602FD
:10B78000860686018605860386074600460446022D
:10B7900046064601460546034607C600C604C602DD
:10B7A000C606C601C605C603C6072600260426022D
:10B7B00026062601260526032607A600A604A602BD
:10B7C000A606A601A605A603A607660066046602ED
:10B7D00066066601660566036607E600E604E6029D
:10B7E000E606E601E605E603E6071600160416027D
:10B7F00016061601160516031607960096049602FD
:10B80000960696019605960396075600560456022C
:10B8100056065601560556035607D600D604D602DC
:10B82000D606D601D605D603D6073600360436022C
:10B8300036063601360536033607B600B604B602BC
:10B84000B606B601B605B603B607760076047602EC
:10B8500076067601760576037607F600F604F6029C
:10B86000F606F601F605F603F6070E000E040E02C4
:10B870000E060E010E050E030E078E008E048E02BC
:10B880008E068E018E058E038E074E004E044E02EC
:10B890004E064E014E054E034E07CE00CE04CE029C
:10B8A000CE06CE01CE05CE03CE072E002E042E02EC
:10B8B0002E062E012E052E032E07AE00AE04AE027C
:10B8C000AE06AE01AE05AE03AE076E006E046E02AC
:10B8D0006E066E016E056E036E07EE00EE04EE025C
:10B8E000EE06EE01EE05EE03EE071E001E041E023C
:10B8F0001E061E011E051E031E079E009E049E02BC
:10B900009E069E019E059E039E075E005E045E02EB
:10B910005E065E015E055E035E07DE00DE04DE029B
:10B92000DE06DE01DE05DE03DE073E003E043E02EB
:10B930003E063E013E053E033E07BE00BE04BE027B
:10B94000BE06BE01BE05BE03BE077E007E047E02AB
:10B950007E067E017E057E037E07FE00FE04FE025B
:10B96000FE06FE01FE05FE03FE0701000000803F0B
:10B9700000000000ECFF7F3FD40FC93AB1FF7F3FCA
:10B98000C70F493B4EFF7F3FC1CB963BC4FE7F3F75
:10B99000890FC93B13FE7F3F3053FB3B39FD7F3F8F
:10B9A00059CB163C39FC7F3F02ED2F3C11FB7F3F0A
:10B9B000900E493CC1F97F3F0030623C4AF87F3F1E
:10B9C0004B517B3CACF67F3F38398A3CE6F47F3FF5
:10B9D000B6C9963CF8F27F3F1C5AA33CE3F07F3F88
:10B9E00069EAAF3CA7EE7F3F9B7ABC3C43EC7F3FCC
:10B9F000B00AC93CB8E97F3FA69AD53C05E77F3F2E
:10BA00007B2AE23C2BE47F3F2DBAEE3C29E17F3FCD
:10BA1000B949FB3C00DE7F3F90EC033DAFDA7F3F4E
:10BA20002F340A3D37D77F3FB87B103D98D37F3FF7
:10BA30002CC3163DD1CF7F3F880A1D3DE2CB7F3F0F
:10BA4000CC51233DCCC77F3FF698293D8FC37F3F24
:10BA500007E02F3D2ABF7F3FFC26363D9EBA7F3F41
:10BA6000D56D3C3DEAB57F3F91B4423D0FB17F3F7C
:10BA70002FFB483D0DAC7F3FAF414F3DE3A67F3FDD
:10BA80000E88553D91A17F3F4CCE5B3D189C7F3F7A
:10BA90006814623D78967F3F625A683DB1907F3F5F
:10BAA00038A06E3DC28A7F3FE9E5743DAB847F3F9D
:10BAB000742B7B3D6D7E7F3F6CB8803D08787F3F67
:10BAC0000ADB833D7B717F3F94FD863DC76A7F3FE4
:10BAD0000A208A3DEC637F3F6A428D3DE95C7F3FEF
:10BAE000B464903DBF557F3FE786933D6D4E7F3FE9
:10BAF00005A9963DF4467F3F0ACB993D543F7F3FD1
:10BB0000F9EC9C3D8D377F3FCF0EA03D9D2F7F3FB1
:10BB10008C30A33D87277F3F3052A63D491F7F3F92
:10BB2000BA73A93DE4167F3F2B95AC3D580E7F3F7D
:10BB300080B6AF3DA4057F3FBBD7B23DC9FC7E3F79
:10BB4000DAF8B53DC7F37E3FDD19B93D9DEA7E3F8A
:10BB5000C33ABC3D4CE17E3F8D5BBF3DD4D77E3FB9
:10BB6000397CC23D34CE7E3FC69CC53D6DC47E3F10
:10BB700036BDC83D7FBA7E3F86DDCB3D69B07E3F96
:10BB8000B7FDCE3D2DA67E3FC81DD23DC99B7E3F51
:10BB9000B93DD53D3D917E3F895DD83D8B867E3F49
:10BBA000377DDB3DB17B7E3FC49CDE3DB0707E3F88
:10BBB0002EBCE13D88657E3F76DBE43D385A7E3F12
:10BBC0009AFAE73DC14E7E3F9A19EB3D23437E3FF3
:10BBD0007638EE3D5E377E3F2E57F13D722B7E3F2D
:10BBE000C075F43D5E1F7E3F2C94F73D24137E3FCD
:10BBF00073B2FA3DC2067E3F92D0FD3D38FA7D3FDA
:10BC00004577003E88ED7D3F2E06023EB1E07D3F48
:10BC10000295033EB2D37D3FC223053E8CC67D3FD5
:10BC20006EB2063E40B97D3F0541083ECCAB7D3F3C
:10BC300086CF093E309E7D3FF35D0B3E6E907D3F8B
:10BC40004AEC0C3E85827D3F8B7A0E3E74747D3FBC
:10BC5000B708103E3D667D3FCC96113EDE577D3FD6
:10BC6000CA24133E59497D3FB2B2143EAC3A7D3FDF
:10BC70008340163ED82B7D3F3DCE173EDD1C7D3FD9
:10BC8000E05B193EBC0D7D3F6BE91A3E73FE7C3FC5
:10BC9000DE761C3E03EF7C3F38041E3E6CDF7C3FAB
:10BCA0007B911F3EAECF7C3FA51E213EC9BF7C3F8E
:10BCB000B6AB223EBDAF7C3FAD38243E8A9F7C3F71
:10BCC0008CC5253E318F7C3F5152273EB07E7C3F54
:10BCD000FCDE283E086E7C3F8D6B2A3E3A5D7C3F41
:10BCE00004F82B3E444C7C3F61842D3E283B7C3F36
:10BCF000A2102F3EE5297C3FC99C303E7A187C3F3C
:10BD0000D428323EE9067C3FC4B4333E31F57B3F54
:10BD10009840353E53E37B3F50CC363E4DD17B3F80
:10BD2000EC57383E20BF7B3F6CE3393ECDAC7B3FC8
:10BD3000CF6E3B3E539A7B3F15FA3C3EB2877B3F2A
:10BD40003E853E3EEA747B3F4910403EFC617B3FAE
:10BD5000379B413EE74E7B3F0726433EAB3B7B3F55
:10BD6000B9B0443E48287B3F4D3B463EBE147B3F26
:10BD7000C2C5473E0E017B3F1850493E37ED7A3F22
:10BD80004FDA4A3E3AD97A3F67644C3E16C57A3F4D
:10BD900060EE4D3ECBB07A3F38784F3E599C7A3FAB
:10BDA000F101513EC1877A3F898B523E02737A3F3F
:10BDB0000115543E1C5E7A3F589E553E10497A3F0D
:10BDC0008F27573EDD337A3FA4B0583E841E7A3F1A
:10BDD00097395A3E04097A3F6AC25B3E5EF3793F67
:10BDE0001A4B5D3E91DD793FA8D35E3E9DC7793FFA
:10BDF000135C603E83B1793F5CE4613E439B793FD5
:10BE0000836C633EDC84793F86F4643E4E6E793FFA
:10BE1000667C663E9A57793F2204683EC040793F6F
:10BE2000BA8B693EBF29793F2F136B3E9812793F39
:10BE30007F9A6C3E4AFB783FAB216E3ED6E3783F5B
:10BE4000B2A86F3E3BCC783F942F713E7BB4783FD5
:10BE500051B6723E939C783FE83C743E8684783FAE
:10BE60005AC3753E526C783FA649773EF853783FE7
:10BE7000CCCF783E773B783FCB557A3ED122783F86
:10BE8000A4DB7B3E040A783F56617D3E10F1773F8C
:10BE9000E1E67E3EF7D7773F2236803EB7BE773F5A
:10BEA000C0F8803E51A5773F4ABB813EC58B773FA6
:10BEB000C07D823E1372773F2240833E3A58773FDF
:10BEC0007002843E3C3E773FAAC4843E1724773FED
:10BED000CE86853ECC09773FDF48863E5BEF763FD6
:10BEE000DA0A873EC4D4763FC1CC873E07BA763F94
:10BEF000938E883E249F763F5050893E1B84763F28
:10BF0000F8118A3EEC68763F8AD38A3E974D763F99
:10BF100007958B3E1B32763F6E568C3E7A16763FE7
:10BF2000C0178D3EB3FA753FFCD88D3EC6DE753F17
:10BF3000229A8E3EB3C2753F325B8F3E7BA6753F21
:10BF40002C1C903E1C8A753F10DD903E976D753F0E
:10BF5000DD9D913EED50753F945E923E1D34753FE0
:10BF6000351F933E2717753FBFDF933E0BFA743F93
:10BF700031A0943EC9DC743F8D60953E62BF743F32
:10BF8000D220963ED5A1743F00E1963E2284743FB4
:10BF900017A1973E4966743F1661983E4B48743F1F
:10BFA000FE20993E272A743FCEE0993EDD0B743F78
:10BFB00086A09A3E6EED733F27609B3ED9CE733FBD
:10BFC000AF1F9C3E1FB0733F20DF9C3E3F91733FED
:10BFD000789E9D3E3972733FB85D9E3E0E53733F0F
:10BFE000DF1C9F3EBE33733FEEDB9F3E4714733F23
:10BFF000E59AA03EACF4723FC259A13EEBD4723F29
:10C000008718A23E04B5723F33D7A23EF894723F20
:10C01000C595A33EC774723F3F54A43E7054723F0F
:10C020009F12A53EF433723FE5D0A53E5213723FF6
:10C03000128FA63E8CF2713F254DA73E9FD1713FD6
:10C040001F0BA83E8EB0713FFEC8A83E578F713FB0
:10C05000C486A93EFB6D713F6F44AA3E7A4C713F86
:10C060000102AB3ED42A713F77BFAB3E0809713F56
:10C07000D47CAC3E17E7703F153AAD3E02C5703F29
:10C080003CF7AD3EC6A2703F49B4AE3E6680703FFD
:10C090003A71AF3EE15D703F102EB03E373B703FCE
:10C0A000CBEAB03E6718703F6BA7B13E73F56F3FA8
:10C0B000EF63B23E5AD26F3F5820B33E1BAF6F3F83
:10C0C000A5DCB33EB88B6F3FD698B43E30686F3F67
:10C0D000EC54B53E83446F3FE610B63EB0206F3F50
:10C0E000C3CCB63EBAFC6E3F8488B73E9ED86E3F46
:10C0F0002A44B83E5DB46E3FB2FFB83EF88F6E3F43
:10C100001EBBB93E6D6B6E3F6E76BA3EBE466E3F4D
:10C11000A031BB3EEB216E3FB6ECBB3EF2FC6D3F67
:10C12000AFA7BC3ED5D76D3F8B62BD3E93B26D3F8E
:10C130004A1DBE3E2D8D6D3FEBD7BE3EA1676D3FC4
:10C140006F92BF3EF2416D3FD54CC03E1D1C6D3F0E
:10C150001E07C13E24F66C3F48C1C13E07D06C3F6C
:10C16000557BC23EC5A96C3F4435C33E5E836C3FE0
:10C1700015EFC33ED45C6C3FC8A8C43E24366C3F68
:10C180005C62C53E500F6C3FD21BC63E58E86B3F09
:10C1900029D5C63E3BC16B3F628EC73EFB996B3FC4
:10C1A0007C47C83E95726B3F7700C93E0C4B6B3F96
:10C1B00053B9C93E5E236B3F1072CA3E8CFB6A3F87
:10C1C000AE2ACB3E95D36A3F2CE3CB3E7BAB6A3F96
:10C1D0008B9BCC3E3C836A3FCA53CD3ED95A6A3FC3
:10C1E000EA0BCE3E52326A3FEAC3CE3EA7096A3F0F
:10C1F000CA7BCF3ED7E0693F8A33D03EE4B7693F80
:10C200002AEBD03ECC8E693FAAA2D13E9165693F10
:10C21000095AD23E323C693F4811D33EAE12693FC3
:10C2200067C8D33E07E9683F647FD43E3CBF683FA0
:10C230004136D53E4C95683FFDECD53E396B683FA5
:10C2400099A3D63E0341683F135AD73EA816683FCC
:10C250006B10D83E2AEC673FA3C6D83E87C1673F24
:10C26000B97CD93EC196673FAD32DA3ED86B673FA5
:10C2700080E8DA3ECA40673F319EDB3E9915673F52
:10C28000C153DC3E45EA663F2E09DD3ECCBE663F2B
:10C2900079BEDD3E3093663FA273DE3E7167663F36
:10C2A000A928DF3E8E3B663F8DDDDF3E880F663F6F
:10C2B0004F92E03E5EE3653FEE46E13E10B7653FDC
:10C2C0006AFBE13EA08A653FC4AFE23E0B5E653F7C
:10C2D000FA63E33E5431653F0E18E43E7904653F4E
:10C2E000FECBE43E7BD7643FCB7FE53E59AA643F5B
:10C2F0007533E63E147D643FFBE6E63EAC4F643F9B
:10C300005D9AE73E2122643F9C4DE83E73F4633F13
:10C31000B700E93EA1C6633FAEB3E93EAC98633FC8
:10C320008166EA3E956A633F3019EB3E5A3C633FB3
:10C33000BBCBEB3EFC0D633F217EEC3E7BDF623FDF
:10C340006330ED3ED7B0623F80E2ED3E1082623F47
:10C350007994EE3E2653623F4C46EF3E1A24623FEC
:10C36000FBF7EF3EEAF4613F85A9F03E98C5613FD7
:10C37000EA5AF13E2296613F290CF23E8A66613FFD
:10C3800043BDF23ED036613F386EF33EF206613F68
:10C39000071FF43EF2D6603FB1CFF43ECFA6603F18
:10C3A0003580F53E8976603F9330F63E2146603F0A
:10C3B000CBE0F63E9615603FDC90F73EE9E45F3F48
:10C3C000C840F83E19B45F3F8EF0F83E27835F3FC8
:10C3D0002DA0F93E12525F3FA54FFA3EDB205F3F92
:10C3E000F7FEFA3E81EF5E3F22AEFB3E05BE5E3FAA
:10C3F000275DFC3E678C5E3F040CFD3EA65A5E3F07
:10C40000BBBAFD3EC3285E3F4A69FE3EBEF65D3FB5
:10C41000B217FF3E97C45D3FF3C5FF3E4D925D3FAF
:10C42000063A003FE15F5D3FFF90003F532D5D3FC7
:10C43000E4E7003FA3FA5C3FB53E013FD1C75C3F54
:10C440007395013FDD945C3F1CEC013FC7615C3F8D
:10C45000B142023F8E2E5C3F3299023F34FB5B3F7C
:10C460009FEF023FB8C75B3FF845033F1A945B3F1D
:10C470003D9C033F5A605B3F6DF2033F792C5B3F6D
:10C480008948043F75F85A3F919E043F50C45A3F73
:10C4900084F4043F09905A3F624A053FA05B5A3F2B
:10C4A0002CA0053F16275A3FE2F5053F6AF2593F97
:10C4B000824B063F9CBD593F0EA1063FAD88593FB8
:10C4C00086F6063F9C53593FE84B073F6A1E593F8B
:10C4D00036A1073F17E9583F6FF6073FA1B3583F12
:10C4E000924B083F0B7E583FA1A0083F5348583F4E
:10C4F0009BF5083F7912583F7F4A093F7FDC573F41
:10C500004E9F093F63A6573F09F4093F2670573FE6
:10C51000AD480A3FC739573F3D9D0A3F4803573F43
:10C52000B7F10A3FA7CC563F1C460B3FE595563F57
:10C530006B9A0B3F025F563FA5EE0B3FFE27563F1F
:10C54000C9420C3FD9F0553FD7960C3F93B9553FA0
:10C55000D0EA0C3F2C82553FB33E0D3FA44A553FD5
:10C5600081920D3FFB12553F38E60D3F31DB543FC2
:10C57000DA390E3F47A3543F658D0E3F3B6B543F66
:10C58000DBE00E3F0F33543F3B340F3FC3FA533FC2
:10C5900084870F3F55C2533FB8DA0F3FC789533FD7
:10C5A000D52D103F1851533FDC80103F4918533FA1
:10C5B000CDD3103F59DF523FA726113F49A6523F26
:10C5C0006B79113F186D523F19CC113FC633523F62
:10C5D000B01E123F54FA513F3071123FC2C0513F5A
:10C5E0009AC3123F1087513FEE15133F3D4D513F07
:10C5F0002A68133F4A13513F50BA133F37D9503F6F
:10C600005F0C143F039F503F585E143FAF64503F90
:10C6100039B0143F3B2A503F0402153FA8EF4F3F6B
:10C62000B753153FF4B44F3F54A5153F1F7A4F3F02
:10C63000D9F6153F2B3F4F3F4748163F17044F3F52
:10C640009F99163FE4C84E3FDFEA163F908D4E3F5C
:10C65000073C173F1C524E3F188D173F89164E3F1F
:10C6600012DE173FD5DA4D3FF52E183F029F4D3FA2
:10C67000C07F183F10634D3F73D0183FFD264D3FDC
:10C680000F21193FCBEA4C3F9471193F79AE4C3FD3
:10C6900000C2193F08724C3F55121A3F78354C3F83
:10C6A00093621A3FC7F84B3FB8B21A3FF8BB4B3FF3
:10C6B000C6021B3F097F4B3FBB521B3FFA414B3F1A
:10C6C00099A21B3FCC044B3F5FF21B3F7FC74A3F01
:10C6D0000C421C3F138A4A3FA2911C3F874C4A3FA1
:10C6E0001FE11C3FDC0E4A3F84301D3F12D1493F01
:10C6F000D17F1D3F2993493F06CF1D3F2155493F1B
:10C70000221E1E3FFA16493F266D1E3FB3D8483FF2
:10C7100012BC1E3F4E9A483FE50A1F3FCA5B483F86
:10C720009F591F3F271D483F41A81F3F65DE473FD8
:10C73000CBF61F3F849F473F3B45203F8560473FE7
:10C740009393203F6721473FD2E1203F2AE2463FB3
:10C75000F92F213FCEA2463F067E213F5463463F3C
:10C76000FBCB213FBB23463FD719223F03E4453F84
:10C770009967223F2DA4453F43B5223F3964453F89
:10C78000D302233F2624453F4B50233FF5E3443F4C
:10C79000A99D233FA5A3443FEEEA233F3763443FCF
:10C7A0001A38243FAB22443F2C85243F00E2433F0C
:10C7B00025D2243F38A1433F041F253F5160433F0A
:10C7C000CB6B253F4C1F433F77B8253F29DE423FC7
:10C7D0000A05263FE89C423F8451263F895B423F41
:10C7E000E39D263F0B1A423F2AEA263F70D8413F7D
:10C7F0005636273FB796413F6882273FE154413F75
:10C8000061CE273FEC12413F401A283FDAD0403F2B
:10C810000566283FA98E403FB0B1283F5C4C403FA1
:10C8200041FD283FF009403FB848293F67C73F3FD7
:10C830001594293FC0843F3F57DF293FFC413F3FCC
:10C84000802A2A3F1BFF3E3F8E752A3F1BBC3E3F7E
:10C8500082C02A3FFF783E3F5B0B2B3FC5353E3FF2
:10C860001B562B3F6EF23D3FBFA02B3FF9AE3D3F25
:10C870004AEB2B3F676B3D3FB9352C3FB8273D3F17
:10C880000F802C3FECE33C3F49CA2C3F03A03C3FC8
:10C8900069142D3FFC5B3C3F6F5E2D3FD9173C3F39
:10C8A00059A82D3F98D33B3F29F22D3F3B8F3B3F6B
:10C8B000DE3B2E3FC14A3B3F78852E3F29063B3F5A
:10C8C000F7CE2E3F75C13A3F5B182F3FA47C3A3F0D
:10C8D000A5612F3FB7373A3FD3AA2F3FACF2393F7C
:10C8E000E6F32F3F85AD393FDE3C303F4268393FAC
:10C8F000BB85303FE122393F7CCE303F65DD383F9C
:10C900002217313FCB97383FAD5F313F1652383F4A
:10C910001DA8313F430C383F71F0313F55C6373FBA
:10C92000AA38323F4A80373FC780323F233A373FE9
:10C93000C9C8323FDFF3363FAF10333F7FAD363FDC
:10C940007A58333F0467363F29A0333F6C20363F87
:10C95000BCE7333FB8D9353F342F343FE792353FFA
:10C960008F76343FFB4B353FCFBD343FF304353F2B
:10C97000F304353FCFBD343FFB4B353F8F76343F1B
:10C98000E792353F342F343FB8D9353FBCE7333FCA
:10C990006C20363F29A0333F0467363F7A58333F37
:10C9A0007FAD363FAF10333FDFF3363FC9C8323F6C
:10C9B000233A373FC780323F4A80373FAA38323F59
:10C9C00055C6373F71F0313F430C383F1DA8313F0A
:10C9D0001652383FAD5F313FCB97383F2217313F7A
:10C9E00065DD383F7CCE303FE122393FBB85303FAB
:10C9F0004268393FDE3C303F85AD393FE6F32F3F9B
:10CA0000ACF2393FD3AA2F3FB7373A3FA5612F3F4A
:10CA1000A47C3A3F5B182F3F75C13A3FF7CE2E3FBB
:10CA200029063B3F78852E3FC14A3B3FDE3B2E3FE8
:10CA30003B8F3B3F29F22D3F98D33B3F59A82D3FD9
:10CA4000D9173C3F6F5E2D3FFC5B3C3F69142D3F87
:10CA500003A03C3F49CA2C3FECE33C3F0F802C3FF6
:10CA6000B8273D3FB9352C3F676B3D3F4AEB2B3F25
:10CA7000F9AE3D3FBFA02B3F6EF23D3F1B562B3F13
:10CA8000C5353E3F5B0B2B3FFF783E3F82C02A3FC0
:10CA90001BBC3E3F8E752A3F1BFF3E3F802A2A3F2C
:10CAA000FC413F3F57DF293FC0843F3F1594293F5A
:10CAB00067C73F3FB848293FF009403F41FD283F45
:10CAC0005C4C403FB0B1283FA98E403F0566283FEF
:10CAD000DAD0403F401A283FEC12413F61CE273F59
:10CAE000E154413F6882273FB796413F5636273F82
:10CAF00070D8413F2AEA263F0B1A423FE39D263F6A
:10CB0000895B423F8451263FE89C423F0A05263F0D
:10CB100029DE423F77B8253F4C1F433FCB6B253F73
:10CB20005160433F041F253F38A1433F25D2243F96
:10CB300000E2433F2C85243FAB22443F1A38243F78
:10CB40003763443FEEEA233FA5A3443FA99D233F1B
:10CB5000F5E3443F4B50233F2624453FD302233F78
:10CB60003964453F43B5223F2DA4453F9967223F95
:10CB700003E4453FD719223FBB23463FFBCB213F70
:10CB80005463463F067E213FCEA2463FF92F213F08
:10CB90002AE2463FD2E1203F6721473F9393203F5F
:10CBA0008560473F3B45203F849F473FCBF61F3F73
:10CBB00065DE473F41A81F3F271D483F9F591F3F44
:10CBC000CA5B483FE50A1F3F4E9A483F12BC1E3FD2
:10CBD000B3D8483F266D1E3FFA16493F221E1E3F1E
:10CBE0002155493F06CF1D3F2993493FD17F1D3F26
:10CBF00012D1493F84301D3FDC0E4A3F1FE11C3FEC
:10CC0000874C4A3FA2911C3F138A4A3F0C421C3F6B
:10CC10007FC74A3F5FF21B3FCC044B3F99A21B3FAB
:10CC2000FA414B3FBB521B3F097F4B3FC6021B3FA4
:10CC3000F8BB4B3FB8B21A3FC7F84B3F93621A3F5D
:10CC400078354C3F55121A3F08724C3F00C2193FCD
:10CC500079AE4C3F9471193FCBEA4C3F0F21193FFD
:10CC6000FD264D3F73D0183F10634D3FC07F183FE6
:10CC7000029F4D3FF52E183FD5DA4D3F12DE173F8C
:10CC800089164E3F188D173F1C524E3F073C173FE9
:10CC9000908D4E3FDFEA163FE4C84E3F9F99163F06
:10CCA00017044F3F4748163F2B3F4F3FD9F6153FDC
:10CCB0001F7A4F3F54A5153FF4B44F3FB753153F6C
:10CCC000A8EF4F3F0402153F3B2A503F39B0143FB5
:10CCD000AF64503F585E143F039F503F5F0C143FBA
:10CCE00037D9503F50BA133F4A13513F2A68133F78
:10CCF0003D4D513FEE15133F1087513F9AC3123FF0
:10CD0000C2C0513F3071123F54FA513FB01E123F22
:10CD1000C633523F19CC113F186D523F6B79113F0A
:10CD200049A6523FA726113F59DF523FCDD3103FAE
:10CD30004918533FDC80103F1851533FD52D103F09
:10CD4000C789533FB8DA0F3F55C2533F84870F3F1F
:10CD5000C3FA533F3B340F3F0F33543FDBE00E3FEA
:10CD60003B6B543F658D0E3F47A3543FDA390E3F6E
:10CD700031DB543F38E60D3FFB12553F81920D3FAA
:10CD8000A44A553FB33E0D3F2C82553FD0EA0C3F9D
:10CD900093B9553FD7960C3FD9F0553FC9420C3F48
:10CDA000FE27563FA5EE0B3F025F563F6B9A0B3FA7
:10CDB000E595563F1C460B3FA7CC563FB7F10A3FBF
:10CDC0004803573F3D9D0A3FC739573FAD480A3F8B
:10CDD0002670573F09F4093F63A6573F4E9F093F0E
:10CDE0007FDC573F7F4A093F7912583F9BF5083F48
:10CDF0005348583FA1A0083F0B7E583F924B083F35
:10CE0000A1B3583F6FF6073F17E9583F36A1073FD8
:10CE10006A1E593FE84B073F9C53593F86F6063F31
:10CE2000AD88593F0EA1063F9CBD593F824B063F3E
:10CE30006AF2593FE2F5053F16275A3F2CA0053FFD
:10CE4000A05B5A3F624A053F09905A3F84F4043F71
:10CE500050C45A3F919E043F75F85A3F8948043F99
:10CE6000792C5B3F6DF2033F5A605B3F3D9C033F73
:10CE70001A945B3FF845033FB8C75B3F9FEF023F03
:10CE800034FB5B3F3299023F8E2E5C3FB142023F42
:10CE9000C7615C3F1CEC013FDD945C3F7395013F33
:10CEA000D1C75C3FB53E013FA3FA5C3FE4E7003FDA
:10CEB000532D5D3FFF90003FE15F5D3F063A003F2D
:10CEC0004D925D3FF3C5FF3E97C45D3FB217FF3EF5
:10CED000BEF65D3F4A69FE3EC3285E3FBBBAFD3EDB
:10CEE000A65A5E3F040CFD3E678C5E3F275DFC3E0C
:10CEF00005BE5E3F22AEFB3E81EF5E3FF7FEFA3E8F
:10CF0000DB205F3FA54FFA3E12525F3F2DA0F93E56
:10CF100027835F3F8EF0F83E19B45F3FC840F83E6C
:10CF2000E9E45F3FDC90F73E9615603FCBE0F63ECC
:10CF30002146603F9330F63E8976603F3580F53E6E
:10CF4000CFA6603FB1CFF43EF2D6603F071FF43E5C
:10CF5000F206613F386EF33ED036613F43BDF23E8C
:10CF60008A66613F290CF23E2296613FEA5AF13E01
:10CF700098C5613F85A9F03EEAF4613FFBF7EF3EBB
:10CF80001A24623F4C46EF3E2653623F7994EE3EB0
:10CF90001082623F80E2ED3ED7B0623F6330ED3EEB
:10CFA0007BDF623F217EEC3EFC0D633FBBCBEB3E63
:10CFB0005A3C633F3019EB3E956A633F8166EA3E17
:10CFC000AC98633FAEB3E93EA1C6633FB700E93E0C
:10CFD00073F4633F9C4DE83E2122643F5D9AE73E37
:10CFE000AC4F643FFBE6E63E147D643F7533E63E9E
:10CFF00059AA643FCB7FE53E7BD7643FFECBE43E3E
:10D000007904653F0E18E43E5431653FFA63E33E10
:10D010000B5E653FC4AFE23EA08A653F6AFBE13E1E
:10D0200010B7653FEE46E13E5EE3653F4F92E03E5E
:10D03000880F663F8DDDDF3E8E3B663FA928DF3ED1
:10D040007167663FA273DE3E3093663F79BEDD3E78
:10D05000CCBE663F2E09DD3E45EA663FC153DC3E4D
:10D060009915673F319EDB3ECA40673F80E8DA3E54
:10D07000D86B673FAD32DA3EC196673FB97CD93E87
:10D0800087C1673FA3C6D83E2AEC673F6B10D83EE6
:10D09000A816683F135AD73E0341683F99A3D63E6E
:10D0A000396B683FFDECD53E4C95683F4136D53E27
:10D0B0003CBF683F647FD43E07E9683F67C8D33E02
:10D0C000AE12693F4811D33E323C693F095AD23E05
:10D0D0009165693FAAA2D13ECC8E693F2AEBD03E32
:10D0E000E4B7693F8A33D03ED7E0693FCA7BCF3E81
:10D0F000A7096A3FEAC3CE3E52326A3FEA0BCE3EF0
:10D10000D95A6A3FCA53CD3E3C836A3F8B9BCC3E83
:10D110007BAB6A3F2CE3CB3E95D36A3FAE2ACB3E36
:10D120008CFB6A3F1072CA3E5E236B3F53B9C93E07
:10D130000C4B6B3F7700C93E95726B3F7C47C83EF6
:10D14000FB996B3F628EC73E3BC16B3F29D5C63E04
:10D1500058E86B3FD21BC63E500F6C3F5C62C53E29
:10D1600024366C3FC8A8C43ED45C6C3F15EFC33E68
:10D170005E836C3F4435C33EC5A96C3F557BC23EC0
:10D1800007D06C3F48C1C13E24F66C3F1E07C13E2C
:10D190001D1C6D3FD54CC03EF2416D3F6F92BF3EAE
:10D1A000A1676D3FEBD7BE3E2D8D6D3F4A1DBE3E44
:10D1B00093B26D3F8B62BD3ED5D76D3FAFA7BC3EEE
:10D1C000F2FC6D3FB6ECBB3EEB216E3FA031BB3EA7
:10D1D000BE466E3F6E76BA3E6D6B6E3F1EBBB93E6D
:10D1E000F88F6E3FB2FFB83E5DB46E3F2A44B83E42
:10D1F0009ED86E3F8488B73EBAFC6E3FC3CCB63E25
:10D20000B0206F3FE610B63E83446F3FEC54B53E0E
:10D2100030686F3FD698B43EB88B6F3FA5DCB33E05
:10D220001BAF6F3F5820B33E5AD26F3FEF63B23E01
:10D2300073F56F3F6BA7B13E6718703FCBEAB03E06
:10D24000373B703F102EB03EE15D703F3A71AF3E0C
:10D250006680703F49B4AE3EC6A2703F3CF7AD3E1B
:10D2600002C5703F153AAD3E17E7703FD47CAC3E27
:10D270000809713F77BFAB3ED42A713F0102AB3E34
:10D280007A4C713F6F44AA3EFB6D713FC486A93E44
:10D29000578F713FFEC8A83E8EB0713F1F0BA83E4E
:10D2A0009FD1713F254DA73E8CF2713F128FA63E54
:10D2B0005213723FE5D0A53EF433723F9F12A53E54
:10D2C0007054723F3F54A43EC774723FC595A33E4D
:10D2D000F894723F33D7A23E04B5723F8718A23E3E
:10D2E000EBD4723FC259A13EACF4723FE59AA03E26
:10D2F0004714733FEEDB9F3EBE33733FDF1C9F3E00
:10D300000E53733FB85D9E3E3972733F789E9D3ECB
:10D310003F91733F20DF9C3E1FB0733FAF1F9C3E89
:10D32000D9CE733F27609B3E6EED733F86A09A3E39
:10D33000DD0B743FCEE0993E272A743FFE20993ED4
:10D340004B48743F1661983E4966743F17A1973E5B
:10D350002284743F00E1963ED5A1743FD220963ED0
:10D3600062BF743F8D60953EC9DC743F31A0943E2E
:10D370000BFA743FBFDF933E2717753F351F933E6F
:10D380001D34753F945E923EED50753FDD9D913E9C
:10D39000976D753F10DD903E1C8A753F2C1C903EAA
:10D3A0007BA6753F325B8F3EB3C2753F229A8E3E9D
:10D3B000C6DE753FFCD88D3EB3FA753FC0178D3E73
:10D3C0007A16763F6E568C3E1B32763F07958B3E23
:10D3D000974D763F8AD38A3EEC68763FF8118A3EB5
:10D3E0001B84763F5050893E249F763F938E883E23
:10D3F00007BA763FC1CC873EC4D4763FDA0A873E6F
:10D400005BEF763FDF48863ECC09773FCE86853E90
:10D410001724773FAAC4843E3C3E773F7002843E87
:10D420003A58773F2240833E1372773FC07D823E59
:10D43000C58B773F4ABB813E51A5773FC0F8803E00
:10D44000B7BE773F2236803EF7D7773FE1E67E3E94
:10D4500010F1773F56617D3E040A783FA4DB7B3EA6
:10D46000D122783FCB557A3E773B783FCCCF783E80
:10D47000F853783FA649773E526C783F5AC3753EC1
:10D480008684783FE83C743E939C783F51B6723E68
:10D490007BB4783F942F713E3BCC783FB2A86F3E6F
:10D4A000D6E3783FAB216E3E4AFB783F7F9A6C3ED5
:10D4B0009812793F2F136B3EBF29793FBA8B693E93
:10D4C000C040793F2204683E9A57793F667C663EA9
:10D4D0004E6E793F86F4643EDC84793F836C633E14
:10D4E000439B793F5CE4613E83B1793F135C603ECE
:10D4F0009DC7793FA8D35E3E91DD793F1A4B5D3ED3
:10D500005EF3793F6AC25B3E04097A3F97395A3E1F
:10D51000841E7A3FA4B0583EDD337A3F8F27573EB2
:10D5200010497A3F589E553E1C5E7A3F0115543E85
:10D5300002737A3F898B523EC1877A3FF101513E97
:10D54000599C7A3F38784F3ECBB07A3F60EE4D3EE3
:10D5500016C57A3F67644C3E3AD97A3F4FDA4A3E65
:10D5600037ED7A3F1850493E0E017B3FC2C5473E1A
:10D57000BE147B3F4D3B463E48287B3FB9B0443EFE
:10D58000AB3B7B3F0726433EE74E7B3F379B413E0D
:10D59000FC617B3F4910403EEA747B3F3E853E3E46
:10D5A000B2877B3F15FA3C3E539A7B3FCF6E3B3EA2
:10D5B000CDAC7B3F6CE3393E20BF7B3FEC57383E20
:10D5C0004DD17B3F50CC363E53E37B3F9840353EB8
:10D5D00031F57B3FC4B4333EE9067C3FD428323E6C
:10D5E0007A187C3FC99C303EE5297C3FA2102F3E33
:10D5F000283B7C3F61842D3E444C7C3F04F82B3E0D
:10D600003A5D7C3F8D6B2A3E086E7C3FFCDE283EF7
:10D61000B07E7C3F5152273E318F7C3F8CC5253EEA
:10D620008A9F7C3FAD38243EBDAF7C3FB6AB223EE7
:10D63000C9BF7C3FA51E213EAECF7C3F7B911F3EE4
:10D640006CDF7C3F38041E3E03EF7C3FDE761C3EE1
:10D6500073FE7C3F6BE91A3EBC0D7D3FE05B193EDB
:10D66000DD1C7D3F3DCE173ED82B7D3F8340163ECF
:10D67000AC3A7D3FB2B2143E59497D3FCA24133EB5
:10D68000DE577D3FCC96113E3D667D3FB708103E8C
:10D6900074747D3F8B7A0E3E85827D3F4AEC0C3E52
:10D6A0006E907D3FF35D0B3E309E7D3F86CF093E01
:10D6B000CCAB7D3F0541083E40B97D3F6EB2063E92
:10D6C0008CC67D3FC223053EB2D37D3F0295033E0B
:10D6D000B1E07D3F2E06023E88ED7D3F4577003E5E
:10D6E00038FA7D3F92D0FD3DC2067E3F73B2FA3DCF
:10D6F00024137E3F2C94F73D5E1F7E3FC075F43DA2
:10D70000722B7E3F2E57F13D5E377E3F7638EE3DE1
:10D7100023437E3F9A19EB3DC14E7E3F9AFAE73D87
:10D72000385A7E3F76DBE43D88657E3F2EBCE13D86
:10D73000B0707E3FC49CDE3DB17B7E3F377DDB3DDC
:10D740008B867E3F895DD83D3D917E3FB93DD53D7D
:10D75000C99B7E3FC81DD23D2DA67E3FB7FDCE3D65
:10D7600069B07E3F86DDCB3D7FBA7E3F36BDC83D8A
:10D770006DC47E3FC69CC53D34CE7E3F397CC23DE4
:10D78000D4D77E3F8D5BBF3D4CE17E3FC33ABC3D6D
:10D790009DEA7E3FDD19B93DC7F37E3FDAF8B53D1E
:10D7A000C9FC7E3FBBD7B23DA4057F3F80B6AF3DED
:10D7B000580E7F3F2B95AC3DE4167F3FBA73A93DD1
:10D7C000491F7F3F3052A63D87277F3F8C30A33DC6
:10D7D0009D2F7F3FCF0EA03D8D377F3FF9EC9C3DC5
:10D7E000543F7F3F0ACB993DF4467F3F05A9963DC4
:10D7F0006D4E7F3FE786933DBF557F3FB464903DBC
:10D80000E95C7F3F6A428D3DEC637F3F0A208A3DA1
:10D81000C76A7F3F94FD863D7B717F3F0ADB833D76
:10D8200008787F3F6CB8803D6D7E7F3F742B7B3DD9
:10D83000AB847F3FE9E5743DC28A7F3F38A06E3DEF
:10D84000B1907F3F625A683D78967F3F6814623D91
:10D85000189C7F3F4CCE5B3D91A17F3F0E88553D8C
:10D86000E3A67F3FAF414F3D0DAC7F3F2FFB483DCF
:10D870000FB17F3F91B4423DEAB57F3FD56D3C3D4E
:10D880009EBA7F3FFC26363D2ABF7F3F07E02F3DF3
:10D890008FC37F3FF698293DCCC77F3FCC51233DB6
:10D8A000E2CB7F3F880A1D3DD1CF7F3F2CC3163D81
:10D8B00098D37F3FB87B103D37D77F3F2F340A3D49
:10D8C000AFDA7F3F90EC033D00DE7F3FB949FB3C80
:10D8D00029E17F3F2DBAEE3C2BE47F3F7B2AE23CDF
:10D8E00005E77F3FA69AD53CB8E97F3FB00AC93C1F
:10D8F00043EC7F3F9B7ABC3CA7EE7F3F69EAAF3C9D
:10D90000E3F07F3F1C5AA33CF8F27F3FB6C9963C38
:10D91000E6F47F3F38398A3CACF67F3F4B517B3C85
:10D920004AF87F3F0030623CC1F97F3F900E493C8E
:10D9300011FB7F3F02ED2F3C39FC7F3F59CB163C5A
:10D9400039FD7F3F3053FB3B13FE7F3F890FC93BBF
:10D95000C4FE7F3FC1CB963B4EFF7F3FC70F493B85
:10D96000B1FF7F3FD40FC93AECFF7F3F00000000BA
:10D970000000803FD40FC9BAECFF7F3FC70F49BBFF
:10D98000B1FF7F3FC1CB96BB4EFF7F3F890FC9BB25
:10D99000C4FE7F3F3053FBBB13FE7F3F59CB16BC09
:10D9A00039FD7F3F02ED2FBC39FC7F3F900E49BC13
:10D9B00011FB7F3F003062BCC1F97F3F4B517BBC04
:10D9C0004AF87F3F38398ABCACF67F3FB6C996BC6F
:10D9D000E6F47F3F1C5AA3BCF8F27F3F69EAAFBC74
:10D9E000E3F07F3F9B7ABCBCA7EE7F3FB00AC9BC87
:10D9F00043EC7F3FA69AD5BCB8E97F3F7B2AE2BCC7
:10DA000005E77F3F2DBAEEBC2BE47F3FB949FBBC55
:10DA100029E17F3F90EC03BD00DE7F3F2F340ABD3C
:10DA2000AFDA7F3FB87B10BD37D77F3F2CC316BD21
:10DA300098D37F3F880A1DBDD1CF7F3FCC5123BDF6
:10DA4000E2CB7F3FF69829BDCCC77F3F07E02FBDD3
:10DA50008FC37F3FFC2636BD2ABF7F3FD56D3CBDBF
:10DA60009EBA7F3F91B442BDEAB57F3F2FFB48BDD0
:10DA70000FB17F3FAF414FBD0DAC7F3F0E8855BD0D
:10DA8000E3A67F3F4CCE5BBD91A17F3F681462BD92
:10DA9000189C7F3F625A68BD78967F3F38A06EBD64
:10DAA000B1907F3FE9E574BDC28A7F3F742B7BBD97
:10DAB000AB847F3F6CB880BD6D7E7F3F0ADB83BD4A
:10DAC00008787F3F94FD86BD7B717F3F0A208ABD29
:10DAD000C76A7F3F6A428DBDEC637F3FB46490BDEF
:10DAE000E95C7F3FE78693BDBF557F3F05A996BDA3
:10DAF0006D4E7F3F0ACB99BDF4467F3FF9EC9CBD4C
:10DB0000543F7F3FCF0EA0BD8D377F3F8C30A3BDEC
:10DB10009D2F7F3F3052A6BD87277F3FBA73A9BD97
:10DB2000491F7F3F2B95ACBDE4167F3F80B6AFBD4C
:10DB3000580E7F3FBBD7B2BDA4057F3FDAF8B5BD15
:10DB4000C9FC7E3FDD19B9BDC7F37E3FC33ABCBDFA
:10DB50009DEA7E3F8D5BBFBD4CE17E3F397CC2BDFF
:10DB6000D4D77E3FC69CC5BD34CE7E3F36BDC8BD32
:10DB70006DC47E3F86DDCBBD7FBA7E3FB7FDCEBD97
:10DB800069B07E3FC81DD2BD2DA67E3FB93DD5BD33
:10DB9000C99B7E3F895DD8BD3D917E3F377DDBBD12
:10DBA0008B867E3FC49CDEBDB17B7E3F2EBCE1BD3B
:10DBB000B0707E3F76DBE4BD88657E3F9AFAE7BDB4
:10DBC000385A7E3F9A19EBBDC14E7E3F7638EEBD86
:10DBD00023437E3F2E57F1BD5E377E3FC075F4BDB7
:10DBE000722B7E3F2C94F7BD5E1F7E3F73B2FABD51
:10DBF00024137E3F92D0FDBDC2067E3F457700BE16
:10DC000038FA7D3F2E0602BE88ED7D3F029503BEA9
:10DC1000B1E07D3FC22305BEB2D37D3F6EB206BEEA
:10DC20008CC67D3F054108BE40B97D3F86CF09BE09
:10DC3000CCAB7D3FF35D0BBE309E7D3F4AEC0CBE0E
:10DC40006E907D3F8B7A0EBE85827D3FB70810BEF9
:10DC500074747D3FCC9611BE3D667D3FCA2413BED1
:10DC6000DE577D3FB2B214BE59497D3F834016BE98
:10DC7000AC3A7D3F3DCE17BED82B7D3FE05B19BE51
:10DC8000DD1C7D3F6BE91ABEBC0D7D3FDE761CBE00
:10DC900073FE7C3F38041EBE03EF7C3F7B911FBEAA
:10DCA0006CDF7C3FA51E21BEAECF7C3FB6AB22BE53
:10DCB000C9BF7C3FAD3824BEBDAF7C3F8CC525BEFF
:10DCC0008A9F7C3F515227BE318F7C3FFCDE28BEAD
:10DCD000B07E7C3F8D6B2ABE086E7C3F04F82BBE65
:10DCE0003A5D7C3F61842DBE444C7C3FA2102FBE28
:10DCF000283B7C3FC99C30BEE5297C3FD42832BEFE
:10DD00007A187C3FC4B433BEE9067C3F984035BEE8
:10DD100031F57B3F50CC36BE53E37B3FEC5738BEEA
:10DD20004DD17B3F6CE339BE20BF7B3FCF6E3BBE06
:10DD3000CDAC7B3F15FA3CBE539A7B3F3E853EBE41
:10DD4000B2877B3F491040BEEA747B3F379B41BEA0
:10DD5000FC617B3F072643BEE74E7B3FB9B044BE24
:10DD6000AB3B7B3F4D3B46BE48287B3FC2C547BED1
:10DD7000BE147B3F185049BE0E017B3F4FDA4ABEAE
:10DD800037ED7A3F67644CBE3AD97A3F60EE4DBEBC
:10DD900016C57A3F38784FBECBB07A3FF10151BEFD
:10DDA000599C7A3F898B52BEC1877A3F011554BE78
:10DDB00002737A3F589E55BE1C5E7A3F8F2757BE2E
:10DDC00010497A3FA4B058BEDD337A3F97395ABE26
:10DDD000841E7A3F6AC25BBE04097A3F1A4B5DBE5D
:10DDE0005EF3793FA8D35EBE91DD793F135C60BEE0
:10DDF0009DC7793F5CE461BE83B1793F836C63BEAC
:10DE0000439B793F86F464BEDC84793F667C66BEC2
:10DE10004E6E793F220468BE9A57793FBA8B69BE2D
:10DE2000C040793F2F136BBEBF29793F7F9A6CBEEC
:10DE30009812793FAB216EBE4AFB783FB2A86FBE05
:10DE4000D6E3783F942F71BE3BCC783F51B672BE7B
:10DE50007BB4783FE83C74BE939C783F5AC375BE50
:10DE60008684783FA64977BE526C783FCCCF78BE87
:10DE7000F853783FCB557ABE773B783FA4DB7BBE27
:10DE8000D122783F56617DBE040A783FE1E67EBE2E
:10DE900010F1773F223680BEF7D7773FC0F880BEBB
:10DEA000B7BE773F4ABB81BE51A5773FC07D82BEDA
:10DEB000C58B773F224083BE1372773F700284BECA
:10DEC0003A58773FAAC484BE3C3E773FCE8685BE93
:10DED0001724773FDF4886BECC09773FDA0A87BE32
:10DEE0005BEF763FC1CC87BEC4D4763F938E88BEAD
:10DEF00007BA763F505089BE249F763FF8118ABEFC
:10DF00001B84763F8AD38ABEEC68763F07958BBE2A
:10DF1000974D763F6E568CBE1B32763FC0178DBE36
:10DF20007A16763FFCD88DBEB3FA753F229A8EBE24
:10DF3000C6DE753F325B8FBEB3C2753F2C1C90BEF0
:10DF40007BA6753F10DD90BE1C8A753FDD9D91BE9E
:10DF5000976D753F945E92BEED50753F351F93BE31
:10DF60001D34753FBFDF93BE2717753F31A094BEA8
:10DF70000BFA743F8D6095BEC9DC743FD22096BE0B
:10DF800062BF743F00E196BED5A1743F17A197BE52
:10DF90002284743F166198BE4966743FFE2099BE84
:10DFA0004B48743FCEE099BE272A743F86A09ABEA4
:10DFB000DD0B743F27609BBE6EED733FAF1F9CBEB1
:10DFC000D9CE733F20DF9CBE1FB0733F789E9DBEAD
:10DFD0003F91733FB85D9EBE3972733FDF1C9FBE99
:10DFE0000E53733FEEDB9FBEBE33733FE59AA0BE78
:10DFF0004714733FC259A1BEACF4723F8718A2BE4A
:10E00000EBD4723F33D7A2BE04B5723FC595A3BE11
:10E01000F894723F3F54A4BEC774723F9F12A5BECE
:10E020007054723FE5D0A5BEF433723F128FA6BE86
:10E030005213723F254DA7BE8CF2713F1F0BA8BE35
:10E040009FD1713FFEC8A8BE8EB0713FC486A9BEE5
:10E05000578F713F6F44AABEFB6D713F0102ABBE8B
:10E060007A4C713F77BFABBED42A713FD47CACBE33
:10E070000809713F153AADBE17E7703F3CF7ADBEDA
:10E0800002C5703F49B4AEBEC6A2703F3A71AFBE82
:10E090006680703F102EB0BEE15D703FCBEAB0BE2F
:10E0A000373B703F6BA7B1BE6718703FEF63B2BEDE
:10E0B00073F56F3F5820B3BE5AD26F3FA5DCB3BE95
:10E0C0001BAF6F3FD698B4BEB88B6F3FEC54B5BE54
:10E0D00030686F3FE610B6BE83446F3FC3CCB6BE18
:10E0E000B0206F3F8488B7BEBAFC6E3F2A44B8BEEA
:10E0F0009ED86E3FB2FFB8BE5DB46E3F1EBBB9BEC8
:10E10000F88F6E3F6E76BABE6D6B6E3FA031BBBEB0
:10E11000BE466E3FB6ECBBBEEB216E3FAFA7BCBEAA
:10E12000F2FC6D3F8B62BDBED5D76D3F4A1DBEBEB2
:10E1300093B26D3FEBD7BEBE2D8D6D3F6F92BFBECC
:10E14000A1676D3FD54CC0BEF2416D3F1E07C1BEF9
:10E150001D1C6D3F48C1C1BE24F66C3F557BC2BE3D
:10E1600007D06C3F4435C3BEC5A96C3F15EFC3BE95
:10E170005E836C3FC8A8C4BED45C6C3F5C62C5BE05
:10E1800024366C3FD21BC6BE500F6C3F29D5C6BE8D
:10E1900058E86B3F628EC7BE3BC16B3F7C47C8BE31
:10E1A000FB996B3F7700C9BE95726B3F53B9C9BEEF
:10E1B0000C4B6B3F1072CABE5E236B3FAE2ACBBEC8
:10E1C0008CFB6A3F2CE3CBBE95D36A3F8B9BCCBEC6
:10E1D0007BAB6A3FCA53CDBE3C836A3FEA0BCEBEDF
:10E1E000D95A6A3FEAC3CEBE52326A3FCA7BCFBE1B
:10E1F000A7096A3F8A33D0BED7E0693F2AEBD0BE79
:10E20000E4B7693FAAA2D1BECC8E693F095AD2BEFB
:10E210009165693F4811D3BE323C693F67C8D3BEA0
:10E22000AE12693F647FD4BE07E9683F4136D5BE70
:10E230003CBF683FFDECD5BE4C95683F99A3D6BE68
:10E24000396B683F135AD7BE0341683F6B10D8BE85
:10E25000A816683FA3C6D8BE2AEC673FB97CD9BED2
:10E2600087C1673FAD32DABEC196673F80E8DABE4C
:10E27000D86B673F319EDBBECA40673FC153DCBEEF
:10E280009915673F2E09DDBE45EA663F79BEDDBEC2
:10E29000CCBE663FA273DEBE3093663FA928DFBEC8
:10E2A0007167663F8DDDDFBE8E3B663F4F92E0BEFD
:10E2B000880F663FEE46E1BE5EE3653F6AFBE1BE66
:10E2C00010B7653FC4AFE2BEA08A653FFA63E3BE04
:10E2D0000B5E653F0E18E4BE5431653FFECBE4BED5
:10E2E0007904653FCB7FE5BE7BD7643F7533E6BEDF
:10E2F00059AA643FFBE6E6BE147D643F5D9AE7BE23
:10E30000AC4F643F9C4DE8BE2122643FB700E9BE9C
:10E3100073F4633FAEB3E9BEA1C6633F8166EABE54
:10E32000AC98633F3019EBBE956A633FBBCBEBBE45
:10E330005A3C633F217EECBEFC0D633F6330EDBE73
:10E340007BDF623F80E2EDBED7B0623F7994EEBEE4
:10E350001082623F4C46EFBE2653623FFBF7EFBE92
:10E360001A24623F85A9F0BEEAF4613FEA5AF1BE81
:10E3700098C5613F290CF2BE2296613F43BDF2BEB3
:10E380008A66613F386EF3BED036613F071FF4BE28
:10E39000F206613FB1CFF4BEF2D6603F3580F5BEE4
:10E3A000CFA6603F9330F6BE8976603FCBE0F6BEE5
:10E3B0002146603FDC90F7BE9615603FC840F8BE2E
:10E3C000E9E45F3F8EF0F8BE19B45F3F2DA0F9BEBF
:10E3D00027835F3FA54FFABE12525F3FF7FEFABE9A
:10E3E000DB205F3F22AEFBBE81EF5E3F275DFCBEC0
:10E3F00005BE5E3F040CFDBE678C5E3FBBBAFDBE32
:10E40000A65A5E3F4A69FEBEC3285E3FB217FFBEF2
:10E41000BEF65D3FF3C5FFBE97C45D3F063A00BF41
:10E420004D925D3FFF9000BFE15F5D3FE4E700BFBD
:10E43000532D5D3FB53E01BFA3FA5C3F739501BF0D
:10E44000D1C75C3F1CEC01BFDD945C3FB14202BF11
:10E45000C7615C3F329902BF8E2E5C3F9FEF02BFC7
:10E4600034FB5B3FF84503BFB8C75B3F3D9C03BF30
:10E470001A945B3F6DF203BF5A605B3F894804BF4B
:10E48000792C5B3F919E04BF75F85A3F84F404BF1A
:10E4900050C45A3F624A05BF09905A3F2CA005BF9D
:10E4A000A05B5A3FE2F505BF16275A3F824B06BFD5
:10E4B0006AF2593F0EA106BF9CBD593F86F606BFC2
:10E4C000AD88593FE84B07BF9C53593F36A107BF62
:10E4D0006A1E593F6FF607BF17E9583F924B08BFB6
:10E4E000A1B3583FA1A008BF0B7E583F9BF508BFC2
:10E4F0005348583F7F4A09BF7912583F4E9F09BF82
:10E500007FDC573F09F409BF63A6573FAD480ABFF8
:10E510002670573F3D9D0ABFC739573FB7F10ABF25
:10E520004803573F1C460BBFA7CC563F6B9A0BBF07
:10E53000E595563FA5EE0BBF025F563FC9420CBFA3
:10E54000FE27563FD7960CBFD9F0553FD0EA0CBFF7
:10E5500093B9553FB33E0DBF2C82553F81920DBFFD
:10E56000A44A553F38E60DBFFB12553FDA390EBFBE
:10E5700031DB543F658D0EBF47A3543FDBE00EBF38
:10E580003B6B543F3B340FBF0F33543F84870FBF67
:10E59000C3FA533FB8DA0FBF55C2533FD52D10BF52
:10E5A000C789533FDC8010BF1851533FCDD310BFF4
:10E5B0004918533FA72611BF59DF523F6B7911BF4E
:10E5C00049A6523F19CC11BF186D523FB01E12BF61
:10E5D000C633523F307112BF54FA513F9AC312BF33
:10E5E000C2C0513FEE1513BF1087513F2A6813BFB9
:10E5F0003D4D513F50BA13BF4A13513F5F0C14BFFA
:10E6000037D9503F585E14BF039F503F39B014BFF5
:10E61000AF64503F040215BF3B2A503FB75315BFAC
:10E62000A8EF4F3F54A515BFF4B44F3FD9F615BF1F
:10E630001F7A4F3F474816BF2B3F4F3F9F9916BF4A
:10E6400017044F3FDFEA16BFE4C84E3F073C17BF31
:10E65000908D4E3F188D17BF1C524E3F12DE17BFD4
:10E6600089164E3FF52E18BFD5DA4D3FC07F18BF33
:10E67000029F4D3F73D018BF10634D3F0F2119BF4C
:10E68000FD264D3F947119BFCBEA4C3F00C219BF24
:10E6900079AE4C3F55121ABF08724C3F93621ABFB5
:10E6A00078354C3FB8B21ABFC7F84B3FC6021BBF04
:10E6B000F8BB4B3FBB521BBF097F4B3F99A21BBF0F
:10E6C000FA414B3F5FF21BBFCC044B3F0C421CBFD7
:10E6D0007FC74A3FA2911CBF138A4A3F1FE11CBF5C
:10E6E000874C4A3F84301DBFDC0E4A3FD17F1DBF9F
:10E6F00012D1493F06CF1DBF2993493F221E1EBF9D
:10E700002155493F266D1EBFFA16493F12BC1EBF58
:10E71000B3D8483FE50A1FBF4E9A483F9F591FBFD5
:10E72000CA5B483F41A81FBF271D483FCBF61FBF0C
:10E7300065DE473F3B4520BF849F473F939320BF03
:10E740008560473FD2E120BF6721473FF92F21BFB6
:10E750002AE2463F067E21BFCEA2463FFBCB21BF29
:10E760005463463FD71922BFBB23463F996722BF58
:10E7700003E4453F43B522BF2DA4453FD30223BF49
:10E780003964453F4B5023BF2624453FA99D23BFF5
:10E79000F5E3443FEEEA23BFA5A3443F1A3824BF64
:10E7A0003763443F2C8524BFAB22443F25D224BF8E
:10E7B00000E2433F041F25BF38A1433FCB6B25BF79
:10E7C0005160433F77B825BF4C1F433F0A0526BF22
:10E7D00029DE423F845126BFE89C423FE39D26BF8D
:10E7E000895B423F2AEA26BF0B1A423F563627BFB3
:10E7F00070D8413F688227BFB796413F61CE27BF9F
:10E80000E154413F401A28BFEC12413F056628BF42
:10E81000DAD0403FB0B128BFA98E403F41FD28BFAC
:10E820005C4C403FB84829BFF009403F159429BFD0
:10E8300067C73F3F57DF29BFC0843F3F802A2ABFB9
:10E84000FC413F3F8E752ABF1BFF3E3F82C02ABF5F
:10E850001BBC3E3F5B0B2BBFFF783E3F1B562BBFC5
:10E86000C5353E3FBFA02BBF6EF23D3F4AEB2BBFED
:10E87000F9AE3D3FB9352CBF676B3D3F0F802CBFD4
:10E88000B8273D3F49CA2CBFECE33C3F69142DBF7C
:10E8900003A03C3F6F5E2DBFFC5B3C3F59A82DBFE2
:10E8A000D9173C3F29F22DBF98D33B3FDE3B2EBF0B
:10E8B0003B8F3B3F78852EBFC14A3B3FF7CE2EBFF3
:10E8C00029063B3F5B182FBF75C13A3FA5612FBF9B
:10E8D000A47C3A3FD3AA2FBFB7373A3FE6F32FBF06
:10E8E000ACF2393FDE3C30BF85AD393FBB8530BF30
:10E8F0004268393F7CCE30BFE122393F221731BF19
:10E9000065DD383FAD5F31BFCB97383F1DA831BFC4
:10E910001652383F71F031BF430C383FAA3832BF2E
:10E9200055C6373FC78032BF4A80373FC9C832BF5C
:10E93000233A373FAF1033BFDFF3363F7A5833BF48
:10E940007FAD363F29A033BF0467363FBCE733BFF6
:10E950006C20363F342F34BFB8D9353F8F7634BF63
:10E96000E792353FCFBD34BFFB4B353FF30435BF96
:10E97000F304353FFB4B35BFCFBD343FE79235BF86
:10E980008F76343FB8D935BF342F343F6C2036BF33
:10E99000BCE7333F046736BF29A0333F7FAD36BFA6
:10E9A0007A58333FDFF336BFAF10333F233A37BFD8
:10E9B000C9C8323F4A8037BFC780323F55C637BFCC
:10E9C000AA38323F430C38BF71F0313F165238BF7E
:10E9D0001DA8313FCB9738BFAD5F313F65DD38BFF4
:10E9E0002217313FE12239BF7CCE303F426839BF28
:10E9F000BB85303F85AD39BFDE3C303FACF239BF1F
:10EA0000E6F32F3FB7373ABFD3AA2F3FA47C3ABFD4
:10EA1000A5612F3F75C13ABF5B182F3F29063BBF49
:10EA2000F7CE2E3FC14A3BBF78852E3F3B8F3BBF81
:10EA3000DE3B2E3F98D33BBF29F22D3FD9173CBF79
:10EA400059A82D3FFC5B3CBF6F5E2D3F03A03CBF30
:10EA500069142D3FECE33CBF49CA2C3FB8273DBFAA
:10EA60000F802C3F676B3DBFB9352C3FF9AE3DBFE2
:10EA70004AEB2B3F6EF23DBFBFA02B3FC5353EBFDB
:10EA80001B562B3FFF783EBF5B0B2B3F1BBC3EBF93
:10EA900082C02A3F1BFF3EBF8E752A3FFC413FBF0D
:10EAA000802A2A3FC0843FBF57DF293F67C73FBF47
:10EAB0001594293FF00940BFB848293F5C4C40BF3E
:10EAC00041FD283FA98E40BFB0B1283FDAD040BFFA
:10EAD0000566283FEC1241BF401A283FE15441BF70
:10EAE00061CE273FB79641BF6882273F70D841BFAC
:10EAF0005636273F0B1A42BF2AEA263F895B42BFA0
:10EB0000E39D263FE89C42BF8451263F29DE42BF59
:10EB10000A05263F4C1F43BF77B8253F516043BFCE
:10EB2000CB6B253F38A143BF041F253F00E243BF05
:10EB300025D2243FAB2244BF2C85243F376344BFFA
:10EB40001A38243FA5A344BFEEEA233FF5E344BFB0
:10EB5000A99D233F262445BF4B50233F396445BF21
:10EB6000D302233F2DA445BF43B5223F03E445BF55
:10EB70009967223FBB2346BFD719223F546346BF44
:10EB8000FBCB213FCEA246BF067E213F2AE246BFF5
:10EB9000F92F213F672147BFD2E1203F856047BF62
:10EBA0009393203F849F47BF3B45203F65DE47BF8F
:10EBB000CBF61F3F271D48BF41A81F3FCA5B48BF78
:10EBC0009F591F3F4E9A48BFE50A1F3FB3D848BF21
:10EBD00012BC1E3FFA1649BF266D1E3F215549BF84
:10EBE000221E1E3F299349BF06CF1D3F12D149BFA8
:10EBF000D17F1D3FDC0E4ABF84301D3F874C4ABF8A
:10EC00001FE11C3F138A4ABFA2911C3F7FC74ABF26
:10EC10000C421C3FCC044BBF5FF21B3FFA414BBF81
:10EC200099A21B3F097F4BBFBB521B3FF8BB4BBF99
:10EC3000C6021B3FC7F84BBFB8B21A3F78354CBF6E
:10EC400093621A3F08724CBF55121A3F79AE4CBFFF
:10EC500000C2193FCBEA4CBF9471193FFD264DBF4E
:10EC60000F21193F10634DBF73D0183F029F4DBF56
:10EC7000C07F183FD5DA4DBFF52E183F89164EBF1D
:10EC800012DE173F1C524EBF188D173F908D4EBF9E
:10EC9000073C173FE4C84EBFDFEA163F17044FBFDB
:10ECA0009F99163F2B3F4FBF4748163F1F7A4FBFD4
:10ECB000D9F6153FF4B44FBF54A5153FA8EF4FBF89
:10ECC000B753153F3B2A50BF0402153FAF6450BFF6
:10ECD00039B0143F039F50BF585E143F37D950BF1F
:10ECE0005F0C143F4A1351BF50BA133F3D4D51BF03
:10ECF0002A68133F108751BFEE15133FC2C051BFA2
:10ED00009AC3123F54FA51BF3071123FC63352BFFB
:10ED1000B01E123F186D52BF19CC113F49A652BF09
:10ED20006B79113F59DF52BFA726113F491853BFD6
:10ED3000CDD3103F185153BFDC80103FC78953BF5C
:10ED4000D52D103F55C253BFB8DA0F3FC3FA53BF9A
:10ED500084870F3F0F3354BF3B340F3F3B6B54BF8F
:10ED6000DBE00E3F47A354BF658D0E3F31DB54BF40
:10ED7000DA390E3FFB1255BF38E60D3FA44A55BFA6
:10ED800081920D3F2C8255BFB33E0D3F93B955BFC5
:10ED9000D0EA0C3FD9F055BFD7960C3FFE2756BF9F
:10EDA000C9420C3F025F56BFA5EE0B3FE59556BF2B
:10EDB0006B9A0B3FA7CC56BF1C460B3F480357BF6F
:10EDC000B7F10A3FC73957BF3D9D0A3F267057BF6D
:10EDD000AD480A3F63A657BF09F4093F7FDC57BF20
:10EDE0004E9F093F791258BF7F4A093F534858BF89
:10EDF0009BF5083F0B7E58BFA1A0083FA1B358BFA9
:10EE0000924B083F17E958BF6FF6073F6A1E59BF7C
:10EE100036A1073F9C5359BFE84B073FAD8859BF08
:10EE200086F6063F9CBD59BF0EA1063F6AF259BF48
:10EE3000824B063F16275ABFE2F5053FA05B5ABF3B
:10EE40002CA0053F09905ABF624A053F50C45ABFE3
:10EE500084F4043F75F85ABF919E043F792C5BBF40
:10EE60008948043F5A605BBF6DF2033F1A945BBF51
:10EE70003D9C033FB8C75BBFF845033F34FB5BBF16
:10EE80009FEF023F8E2E5CBF3299023FC7615CBF8D
:10EE9000B142023FDD945CBF1CEC013FD1C75CBFB7
:10EEA0007395013FA3FA5CBFB53E013F532D5DBF93
:10EEB000E4E7003FE15F5DBFFF90003F4D925DBF23
:10EEC000063A003F97C45DBFF3C5FF3EBEF65DBF87
:10EED000B217FF3EC3285EBF4A69FE3EA65A5EBF18
:10EEE000BBBAFD3E678C5EBF040CFD3E05BE5EBF37
:10EEF000275DFC3E81EF5EBF22AEFB3EDB205FBFA5
:10EF0000F7FEFA3E12525FBFA54FFA3E27835FBF5E
:10EF10002DA0F93E19B45FBF8EF0F83EE9E45FBF63
:10EF2000C840F83E961560BFDC90F73E214660BFB2
:10EF3000CBE0F63E897660BF9330F63ECFA660BF49
:10EF40003580F53EF2D660BFB1CFF43EF20661BF28
:10EF5000071FF43ED03661BF386EF33E8A6661BF4C
:10EF600043BDF23E229661BF290CF23E98C561BFB7
:10EF7000EA5AF13EEAF461BF85A9F03E1A2462BF65
:10EF8000FBF7EF3E265362BF4C46EF3E108262BF56
:10EF90007994EE3ED7B062BF80E2ED3E7BDF62BF88
:10EFA0006330ED3EFC0D63BF217EEC3E5A3C63BFF7
:10EFB000BBCBEB3E956A63BF3019EB3EAC9863BFA9
:10EFC0008166EA3EA1C663BFAEB3E93E73F463BF98
:10EFD000B700E93E212264BF9C4DE83EAC4F64BFC0
:10EFE0005D9AE73E147D64BFFBE6E63E59AA64BF26
:10EFF0007533E63E7BD764BFCB7FE53E790465BFC2
:10F00000FECBE43E543165BF0E18E43E0B5E65BF97
:10F01000FA63E33EA08A65BFC4AFE23E10B765BFA6
:10F020006AFBE13E5EE365BFEE46E13E880F66BFE8
:10F030004F92E03E8E3B66BF8DDDDF3E716766BF5F
:10F04000A928DF3E309366BFA273DE3ECCBE66BF0A
:10F0500079BEDD3E45EA66BF2E09DD3E991567BFE4
:10F06000C153DC3ECA4067BF319EDB3ED86B67BFF1
:10F0700080E8DA3EC19667BFAD32DA3E87C167BF2E
:10F08000B97CD93E2AEC67BFA3C6D83EA81668BF94
:10F090006B10D83E034168BF135AD73E396B68BF27
:10F0A00099A3D63E4C9568BFFDECD53E3CBF68BFEA
:10F0B0004136D53E07E968BF647FD43EAE1269BFD2
:10F0C00067C8D33E323C69BF4811D33E916569BFE2
:10F0D000095AD23ECC8E69BFAAA2D13EE4B769BF1D
:10F0E0002AEBD03ED7E069BF8A33D03EA7096ABF7A
:10F0F000CA7BCF3E52326ABFEAC3CE3ED95A6ABFFC
:10F10000EA0BCE3E3C836ABFCA53CD3E7BAB6ABF9F
:10F110008B9BCC3E95D36ABF2CE3CB3E8CFB6ABF66
:10F12000AE2ACB3E5E236BBF1072CA3E0C4B6BBF48
:10F1300053B9C93E95726BBF7700C93EFB996BBF4F
:10F140007C47C83E3BC16BBF628EC73E58E86BBF71
:10F1500029D5C63E500F6CBFD21BC63E24366CBFAD
:10F160005C62C53ED45C6CBFC8A8C43E5E836CBF05
:10F1700015EFC33EC5A96CBF4435C33E07D06CBF75
:10F18000557BC23E24F66CBF48C1C13E1D1C6DBFFD
:10F190001E07C13EF2416DBFD54CC03EA1676DBF99
:10F1A0006F92BF3E2D8D6DBFEBD7BE3E93B26DBF4C
:10F1B0004A1DBE3ED5D76DBF8B62BD3EF2FC6DBF12
:10F1C000AFA7BC3EEB216EBFB6ECBB3EBE466EBFEA
:10F1D000A031BB3E6D6B6EBF6E76BA3EF88F6EBFD0
:10F1E0001EBBB93E5DB46EBFB2FFB83E9ED86EBFC7
:10F1F0002A44B83EBAFC6EBF8488B73EB0206FBFC9
:10F20000C3CCB63E83446FBFE610B63E30686FBFD6
:10F21000EC54B53EB88B6FBFD698B43E1BAF6FBFF2
:10F22000A5DCB33E5AD26FBF5820B33E73F56FBF13
:10F23000EF63B23E671870BF6BA7B13E373B70BF3C
:10F24000CBEAB03EE15D70BF102EB03E668070BF6D
:10F250003A71AF3EC6A270BF49B4AE3E02C570BFA0
:10F260003CF7AD3E17E770BF153AAD3E080971BFD8
:10F27000D47CAC3ED42A71BF77BFAB3E7A4C71BF11
:10F280000102AB3EFB6D71BF6F44AA3E578F71BF49
:10F29000C486A93E8EB071BFFEC8A83E9FD171BF83
:10F2A0001F0BA83E8CF271BF254DA73E521372BFB3
:10F2B000128FA63EF43372BFE5D0A53E705472BFE4
:10F2C0009F12A53EC77472BF3F54A43EF89472BF0C
:10F2D000C595A33E04B572BF33D7A23EEBD472BF2F
:10F2E0008718A23EACF472BFC259A13E471473BF47
:10F2F000E59AA03EBE3373BFEEDB9F3E0E5373BF55
:10F30000DF1C9F3E397273BFB85D9E3E3F9173BF55
:10F31000789E9D3E1FB073BF20DF9C3ED9CE73BF49
:10F32000AF1F9C3E6EED73BF27609B3EDD0B74BF2D
:10F3300086A09A3E272A74BFCEE0993E4B4874BF00
:10F34000FE20993E496674BF1661983E228474BFC0
:10F3500017A1973ED5A174BF00E1963E62BF74BF6E
:10F36000D220963EC9DC74BF8D60953E0BFA74BF07
:10F3700031A0943E271775BFBFDF933E1D3475BF84
:10F38000351F933EED5075BF945E923E976D75BFED
:10F39000DD9D913E1C8A75BF10DD903E7BA675BF3A
:10F3A0002C1C903EB3C275BF325B8F3EC6DE75BF6C
:10F3B000229A8E3EB3FA75BFFCD88D3E7A1676BF80
:10F3C000C0178D3E1B3276BF6E568C3E974D76BF72
:10F3D00007958B3EEC6876BF8AD38A3E1B8476BF46
:10F3E000F8118A3E249F76BF5050893E07BA76BFF7
:10F3F000938E883EC4D476BFC1CC873E5BEF76BF88
:10F40000DA0A873ECC0977BFDF48863E172477BFEC
:10F41000CE86853E3C3E77BFAAC4843E3A5877BF2D
:10F420007002843E137277BF2240833EC58B77BF44
:10F43000C07D823E51A577BF4ABB813EB7BE77BF34
:10F44000C0F8803EF7D777BF2236803E10F177BFF5
:10F45000E1E67E3E040A78BF56617D3ED12278BF48
:10F46000A4DB7B3E773B78BFCB557A3EF85378BF21
:10F47000CCCF783E526C78BFA649773E868478BF61
:10F480005AC3753E939C78BFE83C743E7BB478BF0A
:10F4900051B6723E3BCC78BF942F713ED6E378BF15
:10F4A000B2A86F3E4AFB78BFAB216E3E981279BF7F
:10F4B0007F9A6C3EBF2979BF2F136B3EC04079BF46
:10F4C000BA8B693E9A5779BF2204683E4E6E79BF67
:10F4D000667C663EDC8479BF86F4643E439B79BFDC
:10F4E000836C633E83B179BF5CE4613E9DC779BFA5
:10F4F000135C603E91DD79BFA8D35E3E5EF379BFB9
:10F500001A4B5D3E04097ABF6AC25B3E841E7ABF15
:10F5100097395A3EDD337ABFA4B0583E10497ABFBE
:10F520008F27573E1C5E7ABF589E553E02737ABFA6
:10F530000115543EC1877ABF898B523E599C7ABFD0
:10F54000F101513ECBB07ABF38784F3E16C57ABF35
:10F5500060EE4D3E3AD97ABF67644C3E37ED7ABFD4
:10F560004FDA4A3E0E017BBF1850493EBE147BBFA6
:10F57000C2C5473E48287BBF4D3B463EAB3B7BBFA9
:10F58000B9B0443EE74E7BBF0726433EFC617BBFDC
:10F59000379B413EEA747BBF4910403EB2877BBF38
:10F5A0003E853E3E539A7BBF15FA3C3ECDAC7BBFB9
:10F5B000CF6E3B3E20BF7BBF6CE3393E4DD17BBF5E
:10F5C000EC57383E53E37BBF50CC363E31F57BBF22
:10F5D0009840353EE9067CBFC4B4333E7A187CBF00
:10F5E000D428323EE5297CBFC99C303E283B7CBFF5
:10F5F000A2102F3E444C7CBF61842D3E3A5D7CBFFF
:10F6000004F82B3E086E7CBF8D6B2A3EB07E7CBF1B
:10F61000FCDE283E318F7CBF5152273E8A9F7CBF43
:10F620008CC5253EBDAF7CBFAD38243EC9BF7CBF75
:10F63000B6AB223EAECF7CBFA51E213E6CDF7CBFA9
:10F640007B911F3E03EF7CBF38041E3E73FE7CBFE0
:10F65000DE761C3EBC0D7DBF6BE91A3EDD1C7DBF16
:10F66000E05B193ED82B7DBF3DCE173EAC3A7DBF47
:10F670008340163E59497DBFB2B2143EDE577DBF6E
:10F68000CA24133E3D667DBFCC96113E74747DBF87
:10F69000B708103E85827DBF8B7A0E3E6E907DBF8F
:10F6A0004AEC0C3E309E7DBFF35D0B3ECCAB7DBF84
:10F6B00086CF093E40B97DBF0541083E8CC67DBF5F
:10F6C0006EB2063EB2D37DBFC223053EB1E07DBF20
:10F6D0000295033E88ED7DBF2E06023E38FA7DBFBF
:10F6E0004577003EC2067EBF92D0FD3D24137EBF0B
:10F6F00073B2FA3D5E1F7EBF2C94F73D722B7EBF26
:10F70000C075F43D5E377EBF2E57F13D23437EBF6B
:10F710007638EE3DC14E7EBF9A19EB3D385A7EBF1A
:10F720009AFAE73D88657EBF76DBE43DB0707EBF28
:10F730002EBCE13DB17B7EBFC49CDE3D8B867EBF8F
:10F74000377DDB3D3D917EBF895DD83DC99B7EBF46
:10F75000B93DD53D2DA67EBFC81DD23D69B07EBF47
:10F76000B7FDCE3D7FBA7EBF86DDCB3D6DC47EBF8B
:10F7700036BDC83D34CE7EBFC69CC53DD4D77EBF06
:10F78000397CC23D4CE17EBF8D5BBF3D9DEA7EBFB3
:10F79000C33ABC3DC7F37EBFDD19B93DC9FC7EBF8E
:10F7A000DAF8B53DA4057FBFBBD7B23D580E7FBF89
:10F7B00080B6AF3DE4167FBF2B95AC3D491F7FBFA0
:10F7C000BA73A93D87277FBF3052A63D9D2F7FBFCB
:10F7D0008C30A33D8D377FBFCF0EA03D543F7FBF00
:10F7E000F9EC9C3DF4467FBF0ACB993D6D4E7FBF3F
:10F7F00005A9963DBF557FBFE786933DE95C7FBF76
:10F80000B464903DEC637FBF6A428D3DC76A7FBFA1
:10F810000A208A3D7B717FBF94FD863D08787FBFBB
:10F820000ADB833D6D7E7FBF6CB8803DAB847FBFBC
:10F83000742B7B3DC28A7FBFE9E5743DB1907FBFE9
:10F8400038A06E3D78967FBF625A683D189C7FBF96
:10F850006814623D91A17FBF4CCE5B3DE3A67FBFA4
:10F860000E88553D0DAC7FBFAF414F3D0FB17FBFFF
:10F870002FFB483DEAB57FBF91B4423D9EBA7FBFA2
:10F88000D56D3C3D2ABF7FBFFC26363D8FC37FBF71
:10F8900007E02F3DCCC77FBFF698293DE2CB7FBF65
:10F8A000CC51233DD1CF7FBF880A1D3D98D37FBF68
:10F8B0002CC3163D37D77FBFB87B103DAFDA7FBF73
:10F8C0002F340A3D00DE7FBF90EC033D29E17FBF6E
:10F8D000B949FB3C2BE47FBF2DBAEE3C05E77FBF67
:10F8E0007B2AE23CB8E97FBFA69AD53C43EC7FBFB8
:10F8F000B00AC93CA7EE7FBF9B7ABC3CE3F07FBF58
:10F9000069EAAF3CF8F27FBF1C5AA33CE6F47FBF24
:10F91000B6C9963CACF67FBF38398A3C4AF87FBFFF
:10F920004B517B3CC1F97FBF0030623C11FB7FBF74
:10F93000900E493C39FC7FBF02ED2F3C39FD7FBF63
:10F9400059CB163C13FE7FBF3053FB3BC4FE7FBF39
:10F95000890FC93B4EFF7FBFC1CB963BB1FF7FBF35
:10F96000C70F493BECFF7FBFD40FC93A000080BFEF
:10F9700000000000ECFF7FBFD40FC9BAB1FF7FBF0A
:10F98000C70F49BB4EFF7FBFC1CB96BBC4FE7FBF35
:10F99000890FC9BB13FE7FBF3053FBBB39FD7FBF4F
:10F9A00059CB16BC39FC7FBF02ED2FBC11FB7FBFCA
:10F9B000900E49BCC1F97FBF003062BC4AF87FBFDE
:10F9C0004B517BBCACF67FBF38398ABCE6F47FBFB5
:10F9D000B6C996BCF8F27FBF1C5AA3BCE3F07FBF48
:10F9E00069EAAFBCA7EE7FBF9B7ABCBC43EC7FBF8C
:10F9F000B00AC9BCB8E97FBFA69AD5BC05E77FBFEE
:10FA00007B2AE2BC2BE47FBF2DBAEEBC29E17FBF8D
:10FA1000B949FBBC00DE7FBF90EC03BDAFDA7FBF0E
:10FA20002F340ABD37D77FBFB87B10BD98D37FBFB7
:10FA30002CC316BDD1CF7FBF880A1DBDE2CB7FBFCF
:10FA4000CC5123BDCCC77FBFF69829BD8FC37FBFE4
:10FA500007E02FBD2ABF7FBFFC2636BD9EBA7FBF01
:10FA6000D56D3CBDEAB57FBF91B442BD0FB17FBF3C
:10FA70002FFB48BD0DAC7FBFAF414FBDE3A67FBF9D
:10FA80000E8855BD91A17FBF4CCE5BBD189C7FBF3A
:10FA9000681462BD78967FBF625A68BDB1907FBF1F
:10FAA00038A06EBDC28A7FBFE9E574BDAB847FBF5D
:10FAB000742B7BBD6D7E7FBF6CB880BD08787FBF27
:10FAC0000ADB83BD7B717FBF94FD86BDC76A7FBFA4
:10FAD0000A208ABDEC637FBF6A428DBDE95C7FBFAF
:10FAE000B46490BDBF557FBFE78693BD6D4E7FBFA9
:10FAF00005A996BDF4467FBF0ACB99BD543F7FBF91
:10FB0000F9EC9CBD8D377FBFCF0EA0BD9D2F7FBF71
:10FB10008C30A3BD87277FBF3052A6BD491F7FBF52
:10FB2000BA73A9BDE4167FBF2B95ACBD580E7FBF3D
:10FB300080B6AFBDA4057FBFBBD7B2BDC9FC7EBF39
:10FB4000DAF8B5BDC7F37EBFDD19B9BD9DEA7EBF4A
:10FB5000C33ABCBD4CE17EBF8D5BBFBDD4D77EBF79
:10FB6000397CC2BD34CE7EBFC69CC5BD6DC47EBFD0
:10FB700036BDC8BD7FBA7EBF86DDCBBD69B07EBF56
:10FB8000B7FDCEBD2DA67EBFC81DD2BDC99B7EBF11
:10FB9000B93DD5BD3D917EBF895DD8BD8B867EBF09
:10FBA000377DDBBDB17B7EBFC49CDEBDB0707EBF48
:10FBB0002EBCE1BD88657EBF76DBE4BD385A7EBFD2
:10FBC0009AFAE7BDC14E7EBF9A19EBBD23437EBFB3
:10FBD0007638EEBD5E377EBF2E57F1BD722B7EBFED
:10FBE000C075F4BD5E1F7EBF2C94F7BD24137EBF8D
:10FBF00073B2FABDC2067EBF92D0FDBD38FA7DBF9A
:10FC0000457700BE88ED7DBF2E0602BEB1E07DBF08
:10FC1000029503BEB2D37DBFC22305BE8CC67DBF95
:10FC20006EB206BE40B97DBF054108BECCAB7DBFFC
:10FC300086CF09BE309E7DBFF35D0BBE6E907DBF4B
:10FC40004AEC0CBE85827DBF8B7A0EBE74747DBF7C
:10FC5000B70810BE3D667DBFCC9611BEDE577DBF96
:10FC6000CA2413BE59497DBFB2B214BEAC3A7DBF9F
:10FC7000834016BED82B7DBF3DCE17BEDD1C7DBF99
:10FC8000E05B19BEBC0D7DBF6BE91ABE73FE7CBF85
:10FC9000DE761CBE03EF7CBF38041EBE6CDF7CBF6B
:10FCA0007B911FBEAECF7CBFA51E21BEC9BF7CBF4E
:10FCB000B6AB22BEBDAF7CBFAD3824BE8A9F7CBF31
:10FCC0008CC525BE318F7CBF515227BEB07E7CBF14
:10FCD000FCDE28BE086E7CBF8D6B2ABE3A5D7CBF01
:10FCE00004F82BBE444C7CBF61842DBE283B7CBFF6
:10FCF000A2102FBEE5297CBFC99C30BE7A187CBFFC
:10FD0000D42832BEE9067CBFC4B433BE31F57BBF14
:10FD1000984035BE53E37BBF50CC36BE4DD17BBF40
:10FD2000EC5738BE20BF7BBF6CE339BECDAC7BBF88
:10FD3000CF6E3BBE539A7BBF15FA3CBEB2877BBFEA
:10FD40003E853EBEEA747BBF491040BEFC617BBF6E
:10FD5000379B41BEE74E7BBF072643BEAB3B7BBF15
:10FD6000B9B044BE48287BBF4D3B46BEBE147BBFE6
:10FD7000C2C547BE0E017BBF185049BE37ED7ABFE2
:10FD80004FDA4ABE3AD97ABF67644CBE16C57ABF0D
:10FD900060EE4DBECBB07ABF38784FBE599C7ABF6B
:10FDA000F10151BEC1877ABF898B52BE02737ABFFF
:10FDB000011554BE1C5E7ABF589E55BE10497ABFCD
:10FDC0008F2757BEDD337ABFA4B058BE841E7ABFDA
:10FDD00097395ABE04097ABF6AC25BBE5EF379BF27
:10FDE0001A4B5DBE91DD79BFA8D35EBE9DC779BFBA
:10FDF000135C60BE83B179BF5CE461BE439B79BF95
:10FE0000836C63BEDC8479BF86F464BE4E6E79BFBA
:10FE1000667C66BE9A5779BF220468BEC04079BF2F
:10FE2000BA8B69BEBF2979BF2F136BBE981279BFF9
:10FE30007F9A6CBE4AFB78BFAB216EBED6E378BF1B
:10FE4000B2A86FBE3BCC78BF942F71BE7BB478BF95
:10FE500051B672BE939C78BFE83C74BE868478BF6E
:10FE60005AC375BE526C78BFA64977BEF85378BFA7
:10FE7000CCCF78BE773B78BFCB557ABED12278BF46
:10FE8000A4DB7BBE040A78BF56617DBE10F177BF4C
:10FE9000E1E67EBEF7D777BF223680BEB7BE77BF1A
:10FEA000C0F880BE51A577BF4ABB81BEC58B77BF66
:10FEB000C07D82BE137277BF224083BE3A5877BF9F
:10FEC000700284BE3C3E77BFAAC484BE172477BFAD
:10FED000CE8685BECC0977BFDF4886BE5BEF76BF96
:10FEE000DA0A87BEC4D476BFC1CC87BE07BA76BF54
:10FEF000938E88BE249F76BF505089BE1B8476BFE8
:10FF0000F8118ABEEC6876BF8AD38ABE974D76BF59
:10FF100007958BBE1B3276BF6E568CBE7A1676BFA7
:10FF2000C0178DBEB3FA75BFFCD88DBEC6DE75BFD7
:10FF3000229A8EBEB3C275BF325B8FBE7BA675BFE1
:10FF40002C1C90BE1C8A75BF10DD90BE976D75BFCE
:10FF5000DD9D91BEED5075BF945E92BE1D3475BFA0
:10FF6000351F93BE271775BFBFDF93BE0BFA74BF53
:10FF700031A094BEC9DC74BF8D6095BE62BF74BFF2
:10FF8000D22096BED5A174BF00E196BE228474BF74
:10FF900017A197BE496674BF166198BE4B4874BFDF
:10FFA000FE2099BE272A74BFCEE099BEDD0B74BF38
:10FFB00086A09ABE6EED73BF27609BBED9CE73BF7D
:10FFC000AF1F9CBE1FB073BF20DF9CBE3F9173BFAD
:10FFD000789E9DBE397273BFB85D9EBE0E5373BFCF
:10FFE000DF1C9FBEBE3373BFEEDB9FBE471473BFE3
:10FFF000E59AA0BEACF472BFC259A1BEEBD472BFE9
:020000040801F1
:100000008718A2BE04B572BF33D7A2BEF89472BFE0
:10001000C595A3BEC77472BF3F54A4BE705472BFCF
:100020009F12A5BEF43372BFE5D0A5BE521372BFB6
:10003000128FA6BE8CF271BF254DA7BE9FD171BF96
:100040001F0BA8BE8EB071BFFEC8A8BE578F71BF70
:10005000C486A9BEFB6D71BF6F44AABE7A4C71BF46
:100060000102ABBED42A71BF77BFABBE080971BF16
:10007000D47CACBE17E770BF153AADBE02C570BFE9
:100080003CF7ADBEC6A270BF49B4AEBE668070BFBD
:100090003A71AFBEE15D70BF102EB0BE373B70BF8E
:1000A000CBEAB0BE671870BF6BA7B1BE73F56FBF68
:1000B000EF63B2BE5AD26FBF5820B3BE1BAF6FBF43
:1000C000A5DCB3BEB88B6FBFD698B4BE30686FBF27
:1000D000EC54B5BE83446FBFE610B6BEB0206FBF10
:1000E000C3CCB6BEBAFC6EBF8488B7BE9ED86EBF06
:1000F0002A44B8BE5DB46EBFB2FFB8BEF88F6EBF03
:100100001EBBB9BE6D6B6EBF6E76BABEBE466EBF0D
:10011000A031BBBEEB216EBFB6ECBBBEF2FC6DBF27
:10012000AFA7BCBED5D76DBF8B62BDBE93B26DBF4E
:100130004A1DBEBE2D8D6DBFEBD7BEBEA1676DBF84
:100140006F92BFBEF2416DBFD54CC0BE1D1C6DBFCE
:100150001E07C1BE24F66CBF48C1C1BE07D06CBF2C
:10016000557BC2BEC5A96CBF4435C3BE5E836CBFA0
:1001700015EFC3BED45C6CBFC8A8C4BE24366CBF28
:100180005C62C5BE500F6CBFD21BC6BE58E86BBFC9
:1001900029D5C6BE3BC16BBF628EC7BEFB996BBF84
:1001A0007C47C8BE95726BBF7700C9BE0C4B6BBF56
:1001B00053B9C9BE5E236BBF1072CABE8CFB6ABF47
:1001C000AE2ACBBE95D36ABF2CE3CBBE7BAB6ABF56
:1001D0008B9BCCBE3C836ABFCA53CDBED95A6ABF83
:1001E000EA0BCEBE52326ABFEAC3CEBEA7096ABFCF
:1001F000CA7BCFBED7E069BF8A33D0BEE4B769BF40
:100200002AEBD0BECC8E69BFAAA2D1BE916569BFD0
:10021000095AD2BE323C69BF4811D3BEAE1269BF83
:1002200067C8D3BE07E968BF647FD4BE3CBF68BF60
:100230004136D5BE4C9568BFFDECD5BE396B68BF65
:1002400099A3D6BE034168BF135AD7BEA81668BF8C
:100250006B10D8BE2AEC67BFA3C6D8BE87C167BFE4
:10026000B97CD9BEC19667BFAD32DABED86B67BF65
:1002700080E8DABECA4067BF319EDBBE991567BF12
:10028000C153DCBE45EA66BF2E09DDBECCBE66BFEB
:1002900079BEDDBE309366BFA273DEBE716766BFF6
:1002A000A928DFBE8E3B66BF8DDDDFBE880F66BF2F
:1002B0004F92E0BE5EE365BFEE46E1BE10B765BF9C
:1002C0006AFBE1BEA08A65BFC4AFE2BE0B5E65BF3C
:1002D000FA63E3BE543165BF0E18E4BE790465BF0E
:1002E000FECBE4BE7BD764BFCB7FE5BE59AA64BF1B
:1002F0007533E6BE147D64BFFBE6E6BEAC4F64BF5B
:100300005D9AE7BE212264BF9C4DE8BE73F463BFD3
:10031000B700E9BEA1C663BFAEB3E9BEAC9863BF88
:100320008166EABE956A63BF3019EBBE5A3C63BF73
:10033000BBCBEBBEFC0D63BF217EECBE7BDF62BF9F
:100340006330EDBED7B062BF80E2EDBE108262BF07
:100350007994EEBE265362BF4C46EFBE1A2462BFAC
:10036000FBF7EFBEEAF461BF85A9F0BE98C561BF97
:10037000EA5AF1BE229661BF290CF2BE8A6661BFBD
:1003800043BDF2BED03661BF386EF3BEF20661BF28
:10039000071FF4BEF2D660BFB1CFF4BECFA660BFD8
:1003A0003580F5BE897660BF9330F6BE214660BFCA
:1003B000CBE0F6BE961560BFDC90F7BEE9E45FBF08
:1003C000C840F8BE19B45FBF8EF0F8BE27835FBF88
:1003D0002DA0F9BE12525FBFA54FFABEDB205FBF52
:1003E000F7FEFABE81EF5EBF22AEFBBE05BE5EBF6A
:1003F000275DFCBE678C5EBF040CFDBEA65A5EBFC7
:10040000BBBAFDBEC3285EBF4A69FEBEBEF65DBF75
:10041000B217FFBE97C45DBFF3C5FFBE4D925DBF6F
:10042000063A00BFE15F5DBFFF9000BF532D5DBF87
:10043000E4E700BFA3FA5CBFB53E01BFD1C75CBF14
:10044000739501BFDD945CBF1CEC01BFC7615CBF4D
:10045000B14202BF8E2E5CBF329902BF34FB5BBF3C
:100460009FEF02BFB8C75BBFF84503BF1A945BBFDD
:100470003D9C03BF5A605BBF6DF203BF792C5BBF2D
:10048000894804BF75F85ABF919E04BF50C45ABF33
:1004900084F404BF09905ABF624A05BFA05B5ABFEB
:1004A0002CA005BF16275ABFE2F505BF6AF259BF57
:1004B000824B06BF9CBD59BF0EA106BFAD8859BF78
:1004C00086F606BF9C5359BFE84B07BF6A1E59BF4B
:1004D00036A107BF17E958BF6FF607BFA1B358BFD2
:1004E000924B08BF0B7E58BFA1A008BF534858BF0E
:1004F0009BF508BF791258BF7F4A09BF7FDC57BF01
:100500004E9F09BF63A657BF09F409BF267057BFA6
:10051000AD480ABFC73957BF3D9D0ABF480357BF03
:10052000B7F10ABFA7CC56BF1C460BBFE59556BF17
:100530006B9A0BBF025F56BFA5EE0BBFFE2756BFDF
:10054000C9420CBFD9F055BFD7960CBF93B955BF60
:10055000D0EA0CBF2C8255BFB33E0DBFA44A55BF95
:1005600081920DBFFB1255BF38E60DBF31DB54BF82
:10057000DA390EBF47A354BF658D0EBF3B6B54BF26
:10058000DBE00EBF0F3354BF3B340FBFC3FA53BF82
:1005900084870FBF55C253BFB8DA0FBFC78953BF97
:1005A000D52D10BF185153BFDC8010BF491853BF61
:1005B000CDD310BF59DF52BFA72611BF49A652BFE6
:1005C0006B7911BF186D52BF19CC11BFC63352BF22
:1005D000B01E12BF54FA51BF307112BFC2C051BF1A
:1005E0009AC312BF108751BFEE1513BF3D4D51BFC7
:1005F0002A6813BF4A1351BF50BA13BF37D950BF2F
:100600005F0C14BF039F50BF585E14BFAF6450BF50
:1006100039B014BF3B2A50BF040215BFA8EF4FBF2B
:10062000B75315BFF4B44FBF54A515BF1F7A4FBFC2
:10063000D9F615BF2B3F4FBF474816BF17044FBF12
:100640009F9916BFE4C84EBFDFEA16BF908D4EBF1C
:10065000073C17BF1C524EBF188D17BF89164EBFDF
:1006600012DE17BFD5DA4DBFF52E18BF029F4DBF62
:10067000C07F18BF10634DBF73D018BFFD264DBF9C
:100680000F2119BFCBEA4CBF947119BF79AE4CBF93
:1006900000C219BF08724CBF55121ABF78354CBF43
:1006A00093621ABFC7F84BBFB8B21ABFF8BB4BBFB3
:1006B000C6021BBF097F4BBFBB521BBFFA414BBFDA
:1006C00099A21BBFCC044BBF5FF21BBF7FC74ABFC1
:1006D0000C421CBF138A4ABFA2911CBF874C4ABF61
:1006E0001FE11CBFDC0E4ABF84301DBF12D149BFC1
:1006F000D17F1DBF299349BF06CF1DBF215549BFDB
:10070000221E1EBFFA1649BF266D1EBFB3D848BFB2
:1007100012BC1EBF4E9A48BFE50A1FBFCA5B48BF46
:100720009F591FBF271D48BF41A81FBF65DE47BF98
:10073000CBF61FBF849F47BF3B4520BF856047BFA7
:10074000939320BF672147BFD2E120BF2AE246BF73
:10075000F92F21BFCEA246BF067E21BF546346BFFC
:10076000FBCB21BFBB2346BFD71922BF03E445BF44
:10077000996722BF2DA445BF43B522BF396445BF49
:10078000D30223BF262445BF4B5023BFF5E344BF0C
:10079000A99D23BFA5A344BFEEEA23BF376344BF8F
:1007A0001A3824BFAB2244BF2C8524BF00E243BFCC
:1007B00025D224BF38A143BF041F25BF516043BFCA
:1007C000CB6B25BF4C1F43BF77B825BF29DE42BF87
:1007D0000A0526BFE89C42BF845126BF895B42BF01
:1007E000E39D26BF0B1A42BF2AEA26BF70D841BF3D
:1007F000563627BFB79641BF688227BFE15441BF35
:1008000061CE27BFEC1241BF401A28BFDAD040BFEB
:10081000056628BFA98E40BFB0B128BF5C4C40BF61
:1008200041FD28BFF00940BFB84829BF67C73FBF97
:10083000159429BFC0843FBF57DF29BFFC413FBF8C
:10084000802A2ABF1BFF3EBF8E752ABF1BBC3EBF3E
:1008500082C02ABFFF783EBF5B0B2BBFC5353EBFB2
:100860001B562BBF6EF23DBFBFA02BBFF9AE3DBFE5
:100870004AEB2BBF676B3DBFB9352CBFB8273DBFD7
:100880000F802CBFECE33CBF49CA2CBF03A03CBF88
:1008900069142DBFFC5B3CBF6F5E2DBFD9173CBFF9
:1008A00059A82DBF98D33BBF29F22DBF3B8F3BBF2B
:1008B000DE3B2EBFC14A3BBF78852EBF29063BBF1A
:1008C000F7CE2EBF75C13ABF5B182FBFA47C3ABFCD
:1008D000A5612FBFB7373ABFD3AA2FBFACF239BF3C
:1008E000E6F32FBF85AD39BFDE3C30BF426839BF6C
:1008F000BB8530BFE12239BF7CCE30BF65DD38BF5C
:10090000221731BFCB9738BFAD5F31BF165238BF0A
:100910001DA831BF430C38BF71F031BF55C637BF7A
:10092000AA3832BF4A8037BFC78032BF233A37BFA9
:10093000C9C832BFDFF336BFAF1033BF7FAD36BF9C
:100940007A5833BF046736BF29A033BF6C2036BF47
:10095000BCE733BFB8D935BF342F34BFE79235BFBA
:100960008F7634BFFB4B35BFCFBD34BFF30435BFEB
:10097000F30435BFCFBD34BFFB4B35BF8F7634BFDB
:10098000E79235BF342F34BFB8D935BFBCE733BF8A
:100990006C2036BF29A033BF046736BF7A5833BFF7
:1009A0007FAD36BFAF1033BFDFF336BFC9C832BF2C
:1009B000233A37BFC78032BF4A8037BFAA3832BF19
:1009C00055C637BF71F031BF430C38BF1DA831BFCA
:1009D000165238BFAD5F31BFCB9738BF221731BF3A
:1009E00065DD38BF7CCE30BFE12239BFBB8530BF6B
:1009F000426839BFDE3C30BF85AD39BFE6F32FBF5B
:100A0000ACF239BFD3AA2FBFB7373ABFA5612FBF0A
:100A1000A47C3ABF5B182FBF75C13ABFF7CE2EBF7B
:100A200029063BBF78852EBFC14A3BBFDE3B2EBFA8
:100A30003B8F3BBF29F22DBF98D33BBF59A82DBF99
:100A4000D9173CBF6F5E2DBFFC5B3CBF69142DBF47
:100A500003A03CBF49CA2CBFECE33CBF0F802CBFB6
:100A6000B8273DBFB9352CBF676B3DBF4AEB2BBFE5
:100A7000F9AE3DBFBFA02BBF6EF23DBF1B562BBFD3
:100A8000C5353EBF5B0B2BBFFF783EBF82C02ABF80
:100A90001BBC3EBF8E752ABF1BFF3EBF802A2ABFEC
:100AA000FC413FBF57DF29BFC0843FBF159429BF1A
:100AB00067C73FBFB84829BFF00940BF41FD28BF05
:100AC0005C4C40BFB0B128BFA98E40BF056628BFAF
:100AD000DAD040BF401A28BFEC1241BF61CE27BF19
:100AE000E15441BF688227BFB79641BF563627BF42
:100AF00070D841BF2AEA26BF0B1A42BFE39D26BF2A
:100B0000895B42BF845126BFE89C42BF0A0526BFCD
:100B100029DE42BF77B825BF4C1F43BFCB6B25BF33
:100B2000516043BF041F25BF38A143BF25D224BF56
:100B300000E243BF2C8524BFAB2244BF1A3824BF38
:100B4000376344BFEEEA23BFA5A344BFA99D23BFDB
:100B5000F5E344BF4B5023BF262445BFD30223BF38
:100B6000396445BF43B522BF2DA445BF996722BF55
:100B700003E445BFD71922BFBB2346BFFBCB21BF30
:100B8000546346BF067E21BFCEA246BFF92F21BFC8
:100B90002AE246BFD2E120BF672147BF939320BF1F
:100BA000856047BF3B4520BF849F47BFCBF61FBF33
:100BB00065DE47BF41A81FBF271D48BF9F591FBF04
:100BC000CA5B48BFE50A1FBF4E9A48BF12BC1EBF92
:100BD000B3D848BF266D1EBFFA1649BF221E1EBFDE
:100BE000215549BF06CF1DBF299349BFD17F1DBFE6
:100BF00012D149BF84301DBFDC0E4ABF1FE11CBFAC
:100C0000874C4ABFA2911CBF138A4ABF0C421CBF2B
:100C10007FC74ABF5FF21BBFCC044BBF99A21BBF6B
:100C2000FA414BBFBB521BBF097F4BBFC6021BBF64
:100C3000F8BB4BBFB8B21ABFC7F84BBF93621ABF1D
:100C400078354CBF55121ABF08724CBF00C219BF8D
:100C500079AE4CBF947119BFCBEA4CBF0F2119BFBD
:100C6000FD264DBF73D018BF10634DBFC07F18BFA6
:100C7000029F4DBFF52E18BFD5DA4DBF12DE17BF4C
:100C800089164EBF188D17BF1C524EBF073C17BFA9
:100C9000908D4EBFDFEA16BFE4C84EBF9F9916BFC6
:100CA00017044FBF474816BF2B3F4FBFD9F615BF9C
:100CB0001F7A4FBF54A515BFF4B44FBFB75315BF2C
:100CC000A8EF4FBF040215BF3B2A50BF39B014BF75
:100CD000AF6450BF585E14BF039F50BF5F0C14BF7A
:100CE00037D950BF50BA13BF4A1351BF2A6813BF38
:100CF0003D4D51BFEE1513BF108751BF9AC312BFB0
:100D0000C2C051BF307112BF54FA51BFB01E12BFE2
:100D1000C63352BF19CC11BF186D52BF6B7911BFCA
:100D200049A652BFA72611BF59DF52BFCDD310BF6E
:100D3000491853BFDC8010BF185153BFD52D10BFC9
:100D4000C78953BFB8DA0FBF55C253BF84870FBFDF
:100D5000C3FA53BF3B340FBF0F3354BFDBE00EBFAA
:100D60003B6B54BF658D0EBF47A354BFDA390EBF2E
:100D700031DB54BF38E60DBFFB1255BF81920DBF6A
:100D8000A44A55BFB33E0DBF2C8255BFD0EA0CBF5D
:100D900093B955BFD7960CBFD9F055BFC9420CBF08
:100DA000FE2756BFA5EE0BBF025F56BF6B9A0BBF67
:100DB000E59556BF1C460BBFA7CC56BFB7F10ABF7F
:100DC000480357BF3D9D0ABFC73957BFAD480ABF4B
:100DD000267057BF09F409BF63A657BF4E9F09BFCE
:100DE0007FDC57BF7F4A09BF791258BF9BF508BF08
:100DF000534858BFA1A008BF0B7E58BF924B08BFF5
:100E0000A1B358BF6FF607BF17E958BF36A107BF98
:100E10006A1E59BFE84B07BF9C5359BF86F606BFF1
:100E2000AD8859BF0EA106BF9CBD59BF824B06BFFE
:100E30006AF259BFE2F505BF16275ABF2CA005BFBD
:100E4000A05B5ABF624A05BF09905ABF84F404BF31
:100E500050C45ABF919E04BF75F85ABF894804BF59
:100E6000792C5BBF6DF203BF5A605BBF3D9C03BF33
:100E70001A945BBFF84503BFB8C75BBF9FEF02BFC3
:100E800034FB5BBF329902BF8E2E5CBFB14202BF02
:100E9000C7615CBF1CEC01BFDD945CBF739501BFF3
:100EA000D1C75CBFB53E01BFA3FA5CBFE4E700BF9A
:100EB000532D5DBFFF9000BFE15F5DBF063A00BFED
:100EC0004D925DBFF3C5FFBE97C45DBFB217FFBEB5
:100ED000BEF65DBF4A69FEBEC3285EBFBBBAFDBE9B
:100EE000A65A5EBF040CFDBE678C5EBF275DFCBECC
:100EF00005BE5EBF22AEFBBE81EF5EBFF7FEFABE4F
:100F0000DB205FBFA54FFABE12525FBF2DA0F9BE16
:100F100027835FBF8EF0F8BE19B45FBFC840F8BE2C
:100F2000E9E45FBFDC90F7BE961560BFCBE0F6BE8C
:100F3000214660BF9330F6BE897660BF3580F5BE2E
:100F4000CFA660BFB1CFF4BEF2D660BF071FF4BE1C
:100F5000F20661BF386EF3BED03661BF43BDF2BE4C
:100F60008A6661BF290CF2BE229661BFEA5AF1BEC1
:100F700098C561BF85A9F0BEEAF461BFFBF7EFBE7B
:100F80001A2462BF4C46EFBE265362BF7994EEBE70
:100F9000108262BF80E2EDBED7B062BF6330EDBEAB
:100FA0007BDF62BF217EECBEFC0D63BFBBCBEBBE23
:100FB0005A3C63BF3019EBBE956A63BF8166EABED7
:100FC000AC9863BFAEB3E9BEA1C663BFB700E9BECC
:100FD00073F463BF9C4DE8BE212264BF5D9AE7BEF7
:100FE000AC4F64BFFBE6E6BE147D64BF7533E6BE5E
:100FF00059AA64BFCB7FE5BE7BD764BFFECBE4BEFE
:10100000790465BF0E18E4BE543165BFFA63E3BED0
:101010000B5E65BFC4AFE2BEA08A65BF6AFBE1BEDE
:1010200010B765BFEE46E1BE5EE365BF4F92E0BE1E
:10103000880F66BF8DDDDFBE8E3B66BFA928DFBE91
:10104000716766BFA273DEBE309366BF79BEDDBE38
:10105000CCBE66BF2E09DDBE45EA66BFC153DCBE0D
:10106000991567BF319EDBBECA4067BF80E8DABE14
:10107000D86B67BFAD32DABEC19667BFB97CD9BE47
:1010800087C167BFA3C6D8BE2AEC67BF6B10D8BEA6
:10109000A81668BF135AD7BE034168BF99A3D6BE2E
:1010A000396B68BFFDECD5BE4C9568BF4136D5BEE7
:1010B0003CBF68BF647FD4BE07E968BF67C8D3BEC2
:1010C000AE1269BF4811D3BE323C69BF095AD2BEC5
:1010D000916569BFAAA2D1BECC8E69BF2AEBD0BEF2
:1010E000E4B769BF8A33D0BED7E069BFCA7BCFBE41
:1010F000A7096ABFEAC3CEBE52326ABFEA0BCEBEB0
:10110000D95A6ABFCA53CDBE3C836ABF8B9BCCBE43
:101110007BAB6ABF2CE3CBBE95D36ABFAE2ACBBEF6
:101120008CFB6ABF1072CABE5E236BBF53B9C9BEC7
:101130000C4B6BBF7700C9BE95726BBF7C47C8BEB6
:10114000FB996BBF628EC7BE3BC16BBF29D5C6BEC4
:1011500058E86BBFD21BC6BE500F6CBF5C62C5BEE9
:1011600024366CBFC8A8C4BED45C6CBF15EFC3BE28
:101170005E836CBF4435C3BEC5A96CBF557BC2BE80
:1011800007D06CBF48C1C1BE24F66CBF1E07C1BEEC
:101190001D1C6DBFD54CC0BEF2416DBF6F92BFBE6E
:1011A000A1676DBFEBD7BEBE2D8D6DBF4A1DBEBE04
:1011B00093B26DBF8B62BDBED5D76DBFAFA7BCBEAE
:1011C000F2FC6DBFB6ECBBBEEB216EBFA031BBBE67
:1011D000BE466EBF6E76BABE6D6B6EBF1EBBB9BE2D
:1011E000F88F6EBFB2FFB8BE5DB46EBF2A44B8BE02
:1011F0009ED86EBF8488B7BEBAFC6EBFC3CCB6BEE5
:10120000B0206FBFE610B6BE83446FBFEC54B5BECE
:1012100030686FBFD698B4BEB88B6FBFA5DCB3BEC5
:101220001BAF6FBF5820B3BE5AD26FBFEF63B2BEC1
:1012300073F56FBF6BA7B1BE671870BFCBEAB0BEC6
:10124000373B70BF102EB0BEE15D70BF3A71AFBECC
:10125000668070BF49B4AEBEC6A270BF3CF7ADBEDB
:1012600002C570BF153AADBE17E770BFD47CACBEE7
:10127000080971BF77BFABBED42A71BF0102ABBEF4
:101280007A4C71BF6F44AABEFB6D71BFC486A9BE04
:10129000578F71BFFEC8A8BE8EB071BF1F0BA8BE0E
:1012A0009FD171BF254DA7BE8CF271BF128FA6BE14
:1012B000521372BFE5D0A5BEF43372BF9F12A5BE14
:1012C000705472BF3F54A4BEC77472BFC595A3BE0D
:1012D000F89472BF33D7A2BE04B572BF8718A2BEFE
:1012E000EBD472BFC259A1BEACF472BFE59AA0BEE6
:1012F000471473BFEEDB9FBEBE3373BFDF1C9FBEC0
:101300000E5373BFB85D9EBE397273BF789E9DBE8B
:101310003F9173BF20DF9CBE1FB073BFAF1F9CBE49
:10132000D9CE73BF27609BBE6EED73BF86A09ABEF9
:10133000DD0B74BFCEE099BE272A74BFFE2099BE94
:101340004B4874BF166198BE496674BF17A197BE1B
:10135000228474BF00E196BED5A174BFD22096BE90
:1013600062BF74BF8D6095BEC9DC74BF31A094BEEE
:101370000BFA74BFBFDF93BE271775BF351F93BE2F
:101380001D3475BF945E92BEED5075BFDD9D91BE5C
:10139000976D75BF10DD90BE1C8A75BF2C1C90BE6A
:1013A0007BA675BF325B8FBEB3C275BF229A8EBE5D
:1013B000C6DE75BFFCD88DBEB3FA75BFC0178DBE33
:1013C0007A1676BF6E568CBE1B3276BF07958BBEE3
:1013D000974D76BF8AD38ABEEC6876BFF8118ABE75
:1013E0001B8476BF505089BE249F76BF938E88BEE3
:1013F00007BA76BFC1CC87BEC4D476BFDA0A87BE2F
:101400005BEF76BFDF4886BECC0977BFCE8685BE50
:10141000172477BFAAC484BE3C3E77BF700284BE47
:101420003A5877BF224083BE137277BFC07D82BE19
:10143000C58B77BF4ABB81BE51A577BFC0F880BEC0
:10144000B7BE77BF223680BEF7D777BFE1E67EBE54
:1014500010F177BF56617DBE040A78BFA4DB7BBE66
:10146000D12278BFCB557ABE773B78BFCCCF78BE40
:10147000F85378BFA64977BE526C78BF5AC375BE81
:10148000868478BFE83C74BE939C78BF51B672BE28
:101490007BB478BF942F71BE3BCC78BFB2A86FBE2F
:1014A000D6E378BFAB216EBE4AFB78BF7F9A6CBE95
:1014B000981279BF2F136BBEBF2979BFBA8B69BE53
:1014C000C04079BF220468BE9A5779BF667C66BE69
:1014D0004E6E79BF86F464BEDC8479BF836C63BED4
:1014E000439B79BF5CE461BE83B179BF135C60BE8E
:1014F0009DC779BFA8D35EBE91DD79BF1A4B5DBE93
:101500005EF379BF6AC25BBE04097ABF97395ABEDF
:10151000841E7ABFA4B058BEDD337ABF8F2757BE72
:1015200010497ABF589E55BE1C5E7ABF011554BE45
:1015300002737ABF898B52BEC1877ABFF10151BE57
:10154000599C7ABF38784FBECBB07ABF60EE4DBEA3
:1015500016C57ABF67644CBE3AD97ABF4FDA4ABE25
:1015600037ED7ABF185049BE0E017BBFC2C547BEDA
:10157000BE147BBF4D3B46BE48287BBFB9B044BEBE
:10158000AB3B7BBF072643BEE74E7BBF379B41BECD
:10159000FC617BBF491040BEEA747BBF3E853EBE06
:1015A000B2877BBF15FA3CBE539A7BBFCF6E3BBE62
:1015B000CDAC7BBF6CE339BE20BF7BBFEC5738BEE0
:1015C0004DD17BBF50CC36BE53E37BBF984035BE78
:1015D00031F57BBFC4B433BEE9067CBFD42832BE2C
:1015E0007A187CBFC99C30BEE5297CBFA2102FBEF3
:1015F000283B7CBF61842DBE444C7CBF04F82BBECD
:101600003A5D7CBF8D6B2ABE086E7CBFFCDE28BEB7
:10161000B07E7CBF515227BE318F7CBF8CC525BEAA
:101620008A9F7CBFAD3824BEBDAF7CBFB6AB22BEA7
:10163000C9BF7CBFA51E21BEAECF7CBF7B911FBEA4
:101640006CDF7CBF38041EBE03EF7CBFDE761CBEA1
:1016500073FE7CBF6BE91ABEBC0D7DBFE05B19BE9B
:10166000DD1C7DBF3DCE17BED82B7DBF834016BE8F
:10167000AC3A7DBFB2B214BE59497DBFCA2413BE75
:10168000DE577DBFCC9611BE3D667DBFB70810BE4C
:1016900074747DBF8B7A0EBE85827DBF4AEC0CBE12
:1016A0006E907DBFF35D0BBE309E7DBF86CF09BEC1
:1016B000CCAB7DBF054108BE40B97DBF6EB206BE52
:1016C0008CC67DBFC22305BEB2D37DBF029503BECB
:1016D000B1E07DBF2E0602BE88ED7DBF457700BE1E
:1016E00038FA7DBF92D0FDBDC2067EBF73B2FABD8F
:1016F00024137EBF2C94F7BD5E1F7EBFC075F4BD62
:10170000722B7EBF2E57F1BD5E377EBF7638EEBDA1
:1017100023437EBF9A19EBBDC14E7EBF9AFAE7BD47
:10172000385A7EBF76DBE4BD88657EBF2EBCE1BD46
:10173000B0707EBFC49CDEBDB17B7EBF377DDBBD9C
:101740008B867EBF895DD8BD3D917EBFB93DD5BD3D
:10175000C99B7EBFC81DD2BD2DA67EBFB7FDCEBD25
:1017600069B07EBF86DDCBBD7FBA7EBF36BDC8BD4A
:101770006DC47EBFC69CC5BD34CE7EBF397CC2BDA4
:10178000D4D77EBF8D5BBFBD4CE17EBFC33ABCBD2D
:101790009DEA7EBFDD19B9BDC7F37EBFDAF8B5BDDE
:1017A000C9FC7EBFBBD7B2BDA4057FBF80B6AFBDAD
:1017B000580E7FBF2B95ACBDE4167FBFBA73A9BD91
:1017C000491F7FBF3052A6BD87277FBF8C30A3BD86
:1017D0009D2F7FBFCF0EA0BD8D377FBFF9EC9CBD85
:1017E000543F7FBF0ACB99BDF4467FBF05A996BD84
:1017F0006D4E7FBFE78693BDBF557FBFB46490BD7C
:10180000E95C7FBF6A428DBDEC637FBF0A208ABD61
:10181000C76A7FBF94FD86BD7B717FBF0ADB83BD36
:1018200008787FBF6CB880BD6D7E7FBF742B7BBD99
:10183000AB847FBFE9E574BDC28A7FBF38A06EBDAF
:10184000B1907FBF625A68BD78967FBF681462BD51
:10185000189C7FBF4CCE5BBD91A17FBF0E8855BD4C
:10186000E3A67FBFAF414FBD0DAC7FBF2FFB48BD8F
:101870000FB17FBF91B442BDEAB57FBFD56D3CBD0E
:101880009EBA7FBFFC2636BD2ABF7FBF07E02FBDB3
:101890008FC37FBFF69829BDCCC77FBFCC5123BD76
:1018A000E2CB7FBF880A1DBDD1CF7FBF2CC316BD41
:1018B00098D37FBFB87B10BD37D77FBF2F340ABD09
:1018C000AFDA7FBF90EC03BD00DE7FBFB949FBBC40
:1018D00029E17FBF2DBAEEBC2BE47FBF7B2AE2BC9F
:1018E00005E77FBFA69AD5BCB8E97FBFB00AC9BCDF
:1018F00043EC7FBF9B7ABCBCA7EE7FBF69EAAFBC5D
:10190000E3F07FBF1C5AA3BCF8F27FBFB6C996BCF8
:10191000E6F47FBF38398ABCACF67FBF4B517BBC45
:101920004AF87FBF003062BCC1F97FBF900E49BC4E
:1019300011FB7FBF02ED2FBC39FC7FBF59CB16BC1A
:1019400039FD7FBF3053FBBB13FE7FBF890FC9BB7F
:10195000C4FE7FBFC1CB96BB4EFF7FBFC70F49BB45
:10196000B1FF7FBFD40FC9BAECFF7FBF000000807A
:10197000000080BFD40FC93AECFF7FBFC70F493BBF
:10198000B1FF7FBFC1CB963B4EFF7FBF890FC93BE5
:10199000C4FE7FBF3053FB3B13FE7FBF59CB163CC9
:1019A00039FD7FBF02ED2F3C39FC7FBF900E493CD3
:1019B00011FB7FBF0030623CC1F97FBF4B517B3CC4
:1019C0004AF87FBF38398A3CACF67FBFB6C9963C2F
:1019D000E6F47FBF1C5AA33CF8F27FBF69EAAF3C34
:1019E000E3F07FBF9B7ABC3CA7EE7FBFB00AC93C47
:1019F00043EC7FBFA69AD53CB8E97FBF7B2AE23C87
:101A000005E77FBF2DBAEE3C2BE47FBFB949FB3C15
:101A100029E17FBF90EC033D00DE7FBF2F340A3DFC
:101A2000AFDA7FBFB87B103D37D77FBF2CC3163DE1
:101A300098D37FBF880A1D3DD1CF7FBFCC51233DB6
:101A4000E2CB7FBFF698293DCCC77FBF07E02F3D93
:101A50008FC37FBFFC26363D2ABF7FBFD56D3C3D7F
:101A60009EBA7FBF91B4423DEAB57FBF2FFB483D90
:101A70000FB17FBFAF414F3D0DAC7FBF0E88553DCD
:101A8000E3A67FBF4CCE5B3D91A17FBF6814623D52
:101A9000189C7FBF625A683D78967FBF38A06E3D24
:101AA000B1907FBFE9E5743DC28A7FBF742B7B3D57
:101AB000AB847FBF6CB8803D6D7E7FBF0ADB833D0A
:101AC00008787FBF94FD863D7B717FBF0A208A3DE9
:101AD000C76A7FBF6A428D3DEC637FBFB464903DAF
:101AE000E95C7FBFE786933DBF557FBF05A9963D63
:101AF0006D4E7FBF0ACB993DF4467FBFF9EC9C3D0C
:101B0000543F7FBFCF0EA03D8D377FBF8C30A33DAC
:101B10009D2F7FBF3052A63D87277FBFBA73A93D57
:101B2000491F7FBF2B95AC3DE4167FBF80B6AF3D0C
:101B3000580E7FBFBBD7B23DA4057FBFDAF8B53DD5
:101B4000C9FC7EBFDD19B93DC7F37EBFC33ABC3DBA
:101B50009DEA7EBF8D5BBF3D4CE17EBF397CC23DBF
:101B6000D4D77EBFC69CC53D34CE7EBF36BDC83DF2
:101B70006DC47EBF86DDCB3D7FBA7EBFB7FDCE3D57
:101B800069B07EBFC81DD23D2DA67EBFB93DD53DF3
:101B9000C99B7EBF895DD83D3D917EBF377DDB3DD2
:101BA0008B867EBFC49CDE3DB17B7EBF2EBCE13DFB
:101BB000B0707EBF76DBE43D88657EBF9AFAE73D74
:101BC000385A7EBF9A19EB3DC14E7EBF7638EE3D46
:101BD00023437EBF2E57F13D5E377EBFC075F43D77
:101BE000722B7EBF2C94F73D5E1F7EBF73B2FA3D11
:101BF00024137EBF92D0FD3DC2067EBF4577003ED6
